{
  "contractName": "M3taMoguls",
  "abi": [
    {
      "inputs": [
        {
          "internalType": "string",
          "name": "baseURI",
          "type": "string"
        },
        {
          "internalType": "uint256",
          "name": "maxBatchSize_",
          "type": "uint256"
        },
        {
          "internalType": "uint256",
          "name": "collectionSize_",
          "type": "uint256"
        }
      ],
      "stateMutability": "nonpayable",
      "type": "constructor"
    },
    {
      "anonymous": false,
      "inputs": [
        {
          "indexed": true,
          "internalType": "address",
          "name": "owner",
          "type": "address"
        },
        {
          "indexed": true,
          "internalType": "address",
          "name": "approved",
          "type": "address"
        },
        {
          "indexed": true,
          "internalType": "uint256",
          "name": "tokenId",
          "type": "uint256"
        }
      ],
      "name": "Approval",
      "type": "event"
    },
    {
      "anonymous": false,
      "inputs": [
        {
          "indexed": true,
          "internalType": "address",
          "name": "owner",
          "type": "address"
        },
        {
          "indexed": true,
          "internalType": "address",
          "name": "operator",
          "type": "address"
        },
        {
          "indexed": false,
          "internalType": "bool",
          "name": "approved",
          "type": "bool"
        }
      ],
      "name": "ApprovalForAll",
      "type": "event"
    },
    {
      "anonymous": false,
      "inputs": [
        {
          "indexed": false,
          "internalType": "uint256",
          "name": "tokenId",
          "type": "uint256"
        },
        {
          "indexed": false,
          "internalType": "address",
          "name": "sender",
          "type": "address"
        }
      ],
      "name": "AssetMinted",
      "type": "event"
    },
    {
      "anonymous": false,
      "inputs": [
        {
          "indexed": true,
          "internalType": "address",
          "name": "previousOwner",
          "type": "address"
        },
        {
          "indexed": true,
          "internalType": "address",
          "name": "newOwner",
          "type": "address"
        }
      ],
      "name": "OwnershipTransferred",
      "type": "event"
    },
    {
      "anonymous": false,
      "inputs": [
        {
          "indexed": false,
          "internalType": "bool",
          "name": "isMintActive",
          "type": "bool"
        }
      ],
      "name": "SaleActivation",
      "type": "event"
    },
    {
      "anonymous": false,
      "inputs": [
        {
          "indexed": true,
          "internalType": "address",
          "name": "from",
          "type": "address"
        },
        {
          "indexed": true,
          "internalType": "address",
          "name": "to",
          "type": "address"
        },
        {
          "indexed": true,
          "internalType": "uint256",
          "name": "tokenId",
          "type": "uint256"
        }
      ],
      "name": "Transfer",
      "type": "event"
    },
    {
      "inputs": [
        {
          "internalType": "address",
          "name": "to",
          "type": "address"
        },
        {
          "internalType": "uint256",
          "name": "tokenId",
          "type": "uint256"
        }
      ],
      "name": "approve",
      "outputs": [],
      "stateMutability": "nonpayable",
      "type": "function"
    },
    {
      "inputs": [
        {
          "internalType": "address",
          "name": "owner",
          "type": "address"
        }
      ],
      "name": "balanceOf",
      "outputs": [
        {
          "internalType": "uint256",
          "name": "",
          "type": "uint256"
        }
      ],
      "stateMutability": "view",
      "type": "function"
    },
    {
      "inputs": [
        {
          "internalType": "uint256",
          "name": "tokenId",
          "type": "uint256"
        }
      ],
      "name": "getApproved",
      "outputs": [
        {
          "internalType": "address",
          "name": "",
          "type": "address"
        }
      ],
      "stateMutability": "view",
      "type": "function"
    },
    {
      "inputs": [
        {
          "internalType": "address",
          "name": "owner",
          "type": "address"
        },
        {
          "internalType": "address",
          "name": "operator",
          "type": "address"
        }
      ],
      "name": "isApprovedForAll",
      "outputs": [
        {
          "internalType": "bool",
          "name": "",
          "type": "bool"
        }
      ],
      "stateMutability": "view",
      "type": "function"
    },
    {
      "inputs": [],
      "name": "isClosedMintForever",
      "outputs": [
        {
          "internalType": "bool",
          "name": "",
          "type": "bool"
        }
      ],
      "stateMutability": "view",
      "type": "function"
    },
    {
      "inputs": [],
      "name": "isMintActive",
      "outputs": [
        {
          "internalType": "bool",
          "name": "",
          "type": "bool"
        }
      ],
      "stateMutability": "view",
      "type": "function"
    },
    {
      "inputs": [],
      "name": "isRaffleActive1",
      "outputs": [
        {
          "internalType": "bool",
          "name": "",
          "type": "bool"
        }
      ],
      "stateMutability": "view",
      "type": "function"
    },
    {
      "inputs": [],
      "name": "isRaffleActive2",
      "outputs": [
        {
          "internalType": "bool",
          "name": "",
          "type": "bool"
        }
      ],
      "stateMutability": "view",
      "type": "function"
    },
    {
      "inputs": [],
      "name": "isRaffleActive3",
      "outputs": [
        {
          "internalType": "bool",
          "name": "",
          "type": "bool"
        }
      ],
      "stateMutability": "view",
      "type": "function"
    },
    {
      "inputs": [],
      "name": "maxPerAddressDuringMint",
      "outputs": [
        {
          "internalType": "uint256",
          "name": "",
          "type": "uint256"
        }
      ],
      "stateMutability": "view",
      "type": "function"
    },
    {
      "inputs": [],
      "name": "maximumAllowedTokensPerPurchase",
      "outputs": [
        {
          "internalType": "uint256",
          "name": "",
          "type": "uint256"
        }
      ],
      "stateMutability": "view",
      "type": "function"
    },
    {
      "inputs": [],
      "name": "maximumAllowedTokensPerWallet",
      "outputs": [
        {
          "internalType": "uint256",
          "name": "",
          "type": "uint256"
        }
      ],
      "stateMutability": "view",
      "type": "function"
    },
    {
      "inputs": [],
      "name": "maximumMintSupply",
      "outputs": [
        {
          "internalType": "uint256",
          "name": "",
          "type": "uint256"
        }
      ],
      "stateMutability": "view",
      "type": "function"
    },
    {
      "inputs": [],
      "name": "mintPrice",
      "outputs": [
        {
          "internalType": "uint256",
          "name": "",
          "type": "uint256"
        }
      ],
      "stateMutability": "view",
      "type": "function"
    },
    {
      "inputs": [],
      "name": "name",
      "outputs": [
        {
          "internalType": "string",
          "name": "",
          "type": "string"
        }
      ],
      "stateMutability": "view",
      "type": "function"
    },
    {
      "inputs": [],
      "name": "nextOwnerToExplicitlySet",
      "outputs": [
        {
          "internalType": "uint256",
          "name": "",
          "type": "uint256"
        }
      ],
      "stateMutability": "view",
      "type": "function"
    },
    {
      "inputs": [],
      "name": "owner",
      "outputs": [
        {
          "internalType": "address",
          "name": "",
          "type": "address"
        }
      ],
      "stateMutability": "view",
      "type": "function"
    },
    {
      "inputs": [
        {
          "internalType": "uint256",
          "name": "tokenId",
          "type": "uint256"
        }
      ],
      "name": "ownerOf",
      "outputs": [
        {
          "internalType": "address",
          "name": "",
          "type": "address"
        }
      ],
      "stateMutability": "view",
      "type": "function"
    },
    {
      "inputs": [],
      "name": "raffleBreakPoint1",
      "outputs": [
        {
          "internalType": "uint256",
          "name": "",
          "type": "uint256"
        }
      ],
      "stateMutability": "view",
      "type": "function"
    },
    {
      "inputs": [],
      "name": "raffleBreakPoint2",
      "outputs": [
        {
          "internalType": "uint256",
          "name": "",
          "type": "uint256"
        }
      ],
      "stateMutability": "view",
      "type": "function"
    },
    {
      "inputs": [],
      "name": "raffleBreakPoint3",
      "outputs": [
        {
          "internalType": "uint256",
          "name": "",
          "type": "uint256"
        }
      ],
      "stateMutability": "view",
      "type": "function"
    },
    {
      "inputs": [],
      "name": "raffleMaxMint1",
      "outputs": [
        {
          "internalType": "uint256",
          "name": "",
          "type": "uint256"
        }
      ],
      "stateMutability": "view",
      "type": "function"
    },
    {
      "inputs": [],
      "name": "raffleMaxMint2",
      "outputs": [
        {
          "internalType": "uint256",
          "name": "",
          "type": "uint256"
        }
      ],
      "stateMutability": "view",
      "type": "function"
    },
    {
      "inputs": [],
      "name": "raffleMaxMint3",
      "outputs": [
        {
          "internalType": "uint256",
          "name": "",
          "type": "uint256"
        }
      ],
      "stateMutability": "view",
      "type": "function"
    },
    {
      "inputs": [],
      "name": "raffleMintPrice",
      "outputs": [
        {
          "internalType": "uint256",
          "name": "",
          "type": "uint256"
        }
      ],
      "stateMutability": "view",
      "type": "function"
    },
    {
      "inputs": [],
      "name": "renounceOwnership",
      "outputs": [],
      "stateMutability": "nonpayable",
      "type": "function"
    },
    {
      "inputs": [],
      "name": "root",
      "outputs": [
        {
          "internalType": "bytes32",
          "name": "",
          "type": "bytes32"
        }
      ],
      "stateMutability": "view",
      "type": "function"
    },
    {
      "inputs": [
        {
          "internalType": "address",
          "name": "from",
          "type": "address"
        },
        {
          "internalType": "address",
          "name": "to",
          "type": "address"
        },
        {
          "internalType": "uint256",
          "name": "tokenId",
          "type": "uint256"
        }
      ],
      "name": "safeTransferFrom",
      "outputs": [],
      "stateMutability": "nonpayable",
      "type": "function"
    },
    {
      "inputs": [
        {
          "internalType": "address",
          "name": "from",
          "type": "address"
        },
        {
          "internalType": "address",
          "name": "to",
          "type": "address"
        },
        {
          "internalType": "uint256",
          "name": "tokenId",
          "type": "uint256"
        },
        {
          "internalType": "bytes",
          "name": "_data",
          "type": "bytes"
        }
      ],
      "name": "safeTransferFrom",
      "outputs": [],
      "stateMutability": "nonpayable",
      "type": "function"
    },
    {
      "inputs": [
        {
          "internalType": "address",
          "name": "operator",
          "type": "address"
        },
        {
          "internalType": "bool",
          "name": "approved",
          "type": "bool"
        }
      ],
      "name": "setApprovalForAll",
      "outputs": [],
      "stateMutability": "nonpayable",
      "type": "function"
    },
    {
      "inputs": [
        {
          "internalType": "bytes4",
          "name": "interfaceId",
          "type": "bytes4"
        }
      ],
      "name": "supportsInterface",
      "outputs": [
        {
          "internalType": "bool",
          "name": "",
          "type": "bool"
        }
      ],
      "stateMutability": "view",
      "type": "function"
    },
    {
      "inputs": [],
      "name": "symbol",
      "outputs": [
        {
          "internalType": "string",
          "name": "",
          "type": "string"
        }
      ],
      "stateMutability": "view",
      "type": "function"
    },
    {
      "inputs": [
        {
          "internalType": "uint256",
          "name": "index",
          "type": "uint256"
        }
      ],
      "name": "tokenByIndex",
      "outputs": [
        {
          "internalType": "uint256",
          "name": "",
          "type": "uint256"
        }
      ],
      "stateMutability": "view",
      "type": "function"
    },
    {
      "inputs": [
        {
          "internalType": "address",
          "name": "owner",
          "type": "address"
        },
        {
          "internalType": "uint256",
          "name": "index",
          "type": "uint256"
        }
      ],
      "name": "tokenOfOwnerByIndex",
      "outputs": [
        {
          "internalType": "uint256",
          "name": "",
          "type": "uint256"
        }
      ],
      "stateMutability": "view",
      "type": "function"
    },
    {
      "inputs": [
        {
          "internalType": "uint256",
          "name": "tokenId",
          "type": "uint256"
        }
      ],
      "name": "tokenURI",
      "outputs": [
        {
          "internalType": "string",
          "name": "",
          "type": "string"
        }
      ],
      "stateMutability": "view",
      "type": "function"
    },
    {
      "inputs": [],
      "name": "totalSupply",
      "outputs": [
        {
          "internalType": "uint256",
          "name": "",
          "type": "uint256"
        }
      ],
      "stateMutability": "view",
      "type": "function"
    },
    {
      "inputs": [
        {
          "internalType": "address",
          "name": "from",
          "type": "address"
        },
        {
          "internalType": "address",
          "name": "to",
          "type": "address"
        },
        {
          "internalType": "uint256",
          "name": "tokenId",
          "type": "uint256"
        }
      ],
      "name": "transferFrom",
      "outputs": [],
      "stateMutability": "nonpayable",
      "type": "function"
    },
    {
      "inputs": [
        {
          "internalType": "address",
          "name": "newOwner",
          "type": "address"
        }
      ],
      "name": "transferOwnership",
      "outputs": [],
      "stateMutability": "nonpayable",
      "type": "function"
    },
    {
      "inputs": [
        {
          "internalType": "uint256",
          "name": "_count",
          "type": "uint256"
        }
      ],
      "name": "setMaximumAllowedTokens",
      "outputs": [],
      "stateMutability": "nonpayable",
      "type": "function"
    },
    {
      "inputs": [
        {
          "internalType": "uint256",
          "name": "_count",
          "type": "uint256"
        }
      ],
      "name": "setMaximumAllowedTokensPerWallet",
      "outputs": [],
      "stateMutability": "nonpayable",
      "type": "function"
    },
    {
      "inputs": [
        {
          "internalType": "bool",
          "name": "val",
          "type": "bool"
        }
      ],
      "name": "setMintActive",
      "outputs": [],
      "stateMutability": "nonpayable",
      "type": "function"
    },
    {
      "inputs": [
        {
          "internalType": "uint256",
          "name": "maxMintSupply",
          "type": "uint256"
        }
      ],
      "name": "setMaxMintSupply",
      "outputs": [],
      "stateMutability": "nonpayable",
      "type": "function"
    },
    {
      "inputs": [
        {
          "internalType": "uint256",
          "name": "point",
          "type": "uint256"
        }
      ],
      "name": "setRaffleBreakPoint1",
      "outputs": [],
      "stateMutability": "nonpayable",
      "type": "function"
    },
    {
      "inputs": [
        {
          "internalType": "uint256",
          "name": "point",
          "type": "uint256"
        }
      ],
      "name": "setRaffleBreakPoint2",
      "outputs": [],
      "stateMutability": "nonpayable",
      "type": "function"
    },
    {
      "inputs": [
        {
          "internalType": "uint256",
          "name": "point",
          "type": "uint256"
        }
      ],
      "name": "setRaffleBreakPoint3",
      "outputs": [],
      "stateMutability": "nonpayable",
      "type": "function"
    },
    {
      "inputs": [
        {
          "internalType": "bool",
          "name": "_isRaffleActive",
          "type": "bool"
        }
      ],
      "name": "setRaffleActive1",
      "outputs": [],
      "stateMutability": "nonpayable",
      "type": "function"
    },
    {
      "inputs": [
        {
          "internalType": "bool",
          "name": "_isRaffleActive",
          "type": "bool"
        }
      ],
      "name": "setRaffleActive2",
      "outputs": [],
      "stateMutability": "nonpayable",
      "type": "function"
    },
    {
      "inputs": [
        {
          "internalType": "bool",
          "name": "_isRaffleActive",
          "type": "bool"
        }
      ],
      "name": "setRaffleActive3",
      "outputs": [],
      "stateMutability": "nonpayable",
      "type": "function"
    },
    {
      "inputs": [
        {
          "internalType": "uint256",
          "name": "maxMint",
          "type": "uint256"
        }
      ],
      "name": "setRaffleMaxMint1",
      "outputs": [],
      "stateMutability": "nonpayable",
      "type": "function"
    },
    {
      "inputs": [
        {
          "internalType": "uint256",
          "name": "maxMint",
          "type": "uint256"
        }
      ],
      "name": "setRaffleMaxMint2",
      "outputs": [],
      "stateMutability": "nonpayable",
      "type": "function"
    },
    {
      "inputs": [
        {
          "internalType": "uint256",
          "name": "maxMint",
          "type": "uint256"
        }
      ],
      "name": "setRaffleMaxMint3",
      "outputs": [],
      "stateMutability": "nonpayable",
      "type": "function"
    },
    {
      "inputs": [
        {
          "internalType": "address",
          "name": "addr",
          "type": "address"
        }
      ],
      "name": "checkIfOnAllowList",
      "outputs": [
        {
          "internalType": "bool",
          "name": "",
          "type": "bool"
        }
      ],
      "stateMutability": "view",
      "type": "function"
    },
    {
      "inputs": [
        {
          "internalType": "address[]",
          "name": "addresses",
          "type": "address[]"
        }
      ],
      "name": "removeFromAllowList",
      "outputs": [],
      "stateMutability": "nonpayable",
      "type": "function"
    },
    {
      "inputs": [
        {
          "internalType": "uint256",
          "name": "val",
          "type": "uint256"
        }
      ],
      "name": "setReserveAtATime",
      "outputs": [],
      "stateMutability": "nonpayable",
      "type": "function"
    },
    {
      "inputs": [
        {
          "internalType": "uint256",
          "name": "val",
          "type": "uint256"
        }
      ],
      "name": "setMaxReserve",
      "outputs": [],
      "stateMutability": "nonpayable",
      "type": "function"
    },
    {
      "inputs": [
        {
          "internalType": "uint256",
          "name": "_price",
          "type": "uint256"
        }
      ],
      "name": "setMintPrice",
      "outputs": [],
      "stateMutability": "nonpayable",
      "type": "function"
    },
    {
      "inputs": [
        {
          "internalType": "uint256",
          "name": "_price",
          "type": "uint256"
        }
      ],
      "name": "setRaffleMintPrice",
      "outputs": [],
      "stateMutability": "nonpayable",
      "type": "function"
    },
    {
      "inputs": [
        {
          "internalType": "string",
          "name": "baseURI",
          "type": "string"
        }
      ],
      "name": "setBaseURI",
      "outputs": [],
      "stateMutability": "nonpayable",
      "type": "function"
    },
    {
      "inputs": [],
      "name": "getMaximumAllowedTokens",
      "outputs": [
        {
          "internalType": "uint256",
          "name": "",
          "type": "uint256"
        }
      ],
      "stateMutability": "view",
      "type": "function"
    },
    {
      "inputs": [],
      "name": "getMintPrice",
      "outputs": [
        {
          "internalType": "uint256",
          "name": "",
          "type": "uint256"
        }
      ],
      "stateMutability": "view",
      "type": "function"
    },
    {
      "inputs": [],
      "name": "getRaffleMintPrice",
      "outputs": [
        {
          "internalType": "uint256",
          "name": "",
          "type": "uint256"
        }
      ],
      "stateMutability": "view",
      "type": "function"
    },
    {
      "inputs": [],
      "name": "getIsClosedMintForever",
      "outputs": [
        {
          "internalType": "bool",
          "name": "",
          "type": "bool"
        }
      ],
      "stateMutability": "view",
      "type": "function"
    },
    {
      "inputs": [],
      "name": "setIsClosedMintForever",
      "outputs": [],
      "stateMutability": "nonpayable",
      "type": "function"
    },
    {
      "inputs": [
        {
          "internalType": "bytes32",
          "name": "_root",
          "type": "bytes32"
        }
      ],
      "name": "setRoot",
      "outputs": [],
      "stateMutability": "nonpayable",
      "type": "function"
    },
    {
      "inputs": [],
      "name": "getReserveAtATime",
      "outputs": [
        {
          "internalType": "uint256",
          "name": "",
          "type": "uint256"
        }
      ],
      "stateMutability": "view",
      "type": "function"
    },
    {
      "inputs": [],
      "name": "getTotalSupply",
      "outputs": [
        {
          "internalType": "uint256",
          "name": "",
          "type": "uint256"
        }
      ],
      "stateMutability": "view",
      "type": "function"
    },
    {
      "inputs": [],
      "name": "getRoot",
      "outputs": [
        {
          "internalType": "bytes32",
          "name": "",
          "type": "bytes32"
        }
      ],
      "stateMutability": "view",
      "type": "function"
    },
    {
      "inputs": [],
      "name": "getContractOwner",
      "outputs": [
        {
          "internalType": "address",
          "name": "",
          "type": "address"
        }
      ],
      "stateMutability": "view",
      "type": "function"
    },
    {
      "inputs": [],
      "name": "reserveNft",
      "outputs": [],
      "stateMutability": "nonpayable",
      "type": "function"
    },
    {
      "inputs": [
        {
          "internalType": "address",
          "name": "_walletAddress",
          "type": "address"
        },
        {
          "internalType": "uint256",
          "name": "_count",
          "type": "uint256"
        }
      ],
      "name": "reserveToCustomWallet",
      "outputs": [],
      "stateMutability": "nonpayable",
      "type": "function"
    },
    {
      "inputs": [
        {
          "internalType": "address",
          "name": "_to",
          "type": "address"
        },
        {
          "internalType": "uint256",
          "name": "_count",
          "type": "uint256"
        }
      ],
      "name": "mint",
      "outputs": [],
      "stateMutability": "payable",
      "type": "function"
    },
    {
      "inputs": [
        {
          "internalType": "uint256",
          "name": "_count",
          "type": "uint256"
        },
        {
          "internalType": "bytes32[]",
          "name": "_proof",
          "type": "bytes32[]"
        }
      ],
      "name": "raffleMint",
      "outputs": [],
      "stateMutability": "payable",
      "type": "function"
    },
    {
      "inputs": [
        {
          "internalType": "address",
          "name": "owner",
          "type": "address"
        }
      ],
      "name": "numberMinted",
      "outputs": [
        {
          "internalType": "uint256",
          "name": "",
          "type": "uint256"
        }
      ],
      "stateMutability": "view",
      "type": "function"
    },
    {
      "inputs": [
        {
          "internalType": "address",
          "name": "_owner",
          "type": "address"
        }
      ],
      "name": "walletOfOwner",
      "outputs": [
        {
          "internalType": "uint256[]",
          "name": "",
          "type": "uint256[]"
        }
      ],
      "stateMutability": "view",
      "type": "function"
    },
    {
      "inputs": [],
      "name": "withdraw",
      "outputs": [],
      "stateMutability": "nonpayable",
      "type": "function"
    }
  ],
  "bytecode": "0x60e060405260008080556007819055670429d069189e0000600a908155670214e8348c4f0000600b556005600c819055600d91909155600f600e8190556032905560109190915560646011556013805464ffffffffff191690556122b86014556015819055601655600260175560036018556004601955601a8054739dbf14c79847d1566419dcddd5ad35daf0382e056001600160a01b03199182168117909255601b80549091169091179055348015620000b957600080fd5b50604051620042ae380380620042ae833981016040819052620000dc9162000311565b6040518060400160405280600b81526020016a4d335441204d4f47554c5360a81b815250604051806040016040528060028152602001614d4d60f01b815250838360008111620001495760405162461bcd60e51b8152600401620001409062000442565b60405180910390fd5b600082116200016c5760405162461bcd60e51b81526004016200014090620003fb565b8351620001819060019060208701906200026b565b508251620001979060029060208601906200026b565b5060a09190915260805250620001b89050620001b2620001ce565b620001d2565b620001c38362000224565b5060c05250620004e3565b3390565b600880546001600160a01b038381166001600160a01b0319831681179093556040519116919082907f8be0079c531659141344cd1fd0a4f28419497f9722a3daafe3b4186f6b6457e090600090a35050565b336200022f6200025c565b6001600160a01b0316146200024357600080fd5b8051620002589060129060208401906200026b565b5050565b6008546001600160a01b031690565b828054620002799062000490565b90600052602060002090601f0160209004810192826200029d5760008555620002e8565b82601f10620002b857805160ff1916838001178555620002e8565b82800160010185558215620002e8579182015b82811115620002e8578251825591602001919060010190620002cb565b50620002f6929150620002fa565b5090565b5b80821115620002f65760008155600101620002fb565b60008060006060848603121562000326578283fd5b83516001600160401b03808211156200033d578485fd5b818601915086601f83011262000351578485fd5b815181811115620003665762000366620004cd565b604051601f8201601f19908116603f01168101908382118183101715620003915762000391620004cd565b81604052828152602093508984848701011115620003ad578788fd5b8791505b82821015620003d05784820184015181830185015290830190620003b1565b82821115620003e157878484830101525b928801516040909801519299979850919695505050505050565b60208082526027908201527f455243373231413a206d61782062617463682073697a65206d757374206265206040820152666e6f6e7a65726f60c81b606082015260800190565b6020808252602e908201527f455243373231413a20636f6c6c656374696f6e206d757374206861766520612060408201526d6e6f6e7a65726f20737570706c7960901b606082015260800190565b600281046001821680620004a557607f821691505b60208210811415620004c757634e487b7160e01b600052602260045260246000fd5b50919050565b634e487b7160e01b600052604160045260246000fd5b60805160a05160c051613d89620005256000396000818161124f0152611b5201526000818161255d015281816125870152612990015260005050613d896000f3fe60806040526004361061043c5760003560e01c80637890b2c911610234578063c4e41b221161012e578063ea6eb836116100b6578063f2fde38b1161007a578063f2fde38b14610bbd578063f4a0a52814610bdd578063f4c21dbc14610bfd578063f53beee114610c12578063f6c9d9e314610c325761043c565b8063ea6eb83614610b33578063ebf0c71714610b53578063ecfdeb4014610b68578063ee1cc94414610b88578063f132dc2914610ba85761043c565b8063d8a5a68e116100fd578063d8a5a68e14610a9e578063dab5f34014610abe578063dc33e68114610ade578063e7b62d9614610afe578063e985e9c514610b135761043c565b8063c4e41b2214610a3f578063c87b56dd14610a54578063cadf881814610a74578063d7224ba014610a895761043c565b80639cf24f18116101bc578063ad06d75811610180578063ad06d758146109b5578063b80a07e7146109ca578063b88d4fde146109df578063bc2ec854146109ff578063c3ac4feb14610a1f5761043c565b80639cf24f1814610920578063a22cb46514610940578063a51312c814610960578063a5166c1b14610980578063a7f93ebd146109a05761043c565b80638da5cb5b116102035780638da5cb5b146108b7578063932ecebc146108cc57806395d89b41146108e15780639a3bf728146108f65780639cb270001461090b5761043c565b80637890b2c91461085a5780637d26f4701461086d5780638bc35c2f146108825780638c595fe7146108975761043c565b8063438b6300116103455780635ca1e165116102cd578063715018a611610291578063715018a6146107db5780637165ebfc146107f057806371e3500c146108055780637389fbb71461081a57806377b501b91461083a5761043c565b80635ca1e1651461075c5780636352211e146107715780636817c76c146107915780636c509428146107a657806370a08231146107bb5761043c565b80634dfea627116103145780634dfea627146106c75780634f6ccce7146106e757806355f804b31461070757806356a87caa146107275780635b92ac0d146107475761043c565b8063438b63001461065b578063442890d51461068857806346c226c11461069d5780634d0550de146106b25761043c565b80632c1205f4116103c85780633e6e093a116103975780633e6e093a146105de5780633e8f0987146105fe57806340c10f191461061357806342842e0e14610626578063428b0e84146106465761043c565b80632c1205f4146105695780632f745c591461058957806330a36c4c146105a95780633ccfd60b146105c95761043c565b8063081812fc1161040f578063081812fc146104d0578063095ea7b3146104fd57806318160ddd1461051f57806323b872dd146105345780632992b0b0146105545761043c565b806301ffc9a71461044157806305a2e3411461047757806306fdde031461048c57806307bfac6d146104ae575b600080fd5b34801561044d57600080fd5b5061046161045c366004612f5c565b610c52565b60405161046e9190613198565b60405180910390f35b34801561048357600080fd5b50610461610cb5565b34801561049857600080fd5b506104a1610cc4565b60405161046e91906131ac565b3480156104ba57600080fd5b506104c3610d56565b60405161046e91906131a3565b3480156104dc57600080fd5b506104f06104eb366004612f44565b610d5c565b60405161046e9190613103565b34801561050957600080fd5b5061051d610518366004612e93565b610da8565b005b34801561052b57600080fd5b506104c3610e41565b34801561054057600080fd5b5061051d61054f366004612db7565b610e47565b34801561056057600080fd5b506104c3610e52565b34801561057557600080fd5b50610461610584366004612d6b565b610e58565b34801561059557600080fd5b506104c36105a4366004612e93565b610e76565b3480156105b557600080fd5b5061051d6105c4366004612f44565b610f71565b3480156105d557600080fd5b5061051d610f92565b3480156105ea57600080fd5b5061051d6105f9366004612f2a565b6110aa565b34801561060a57600080fd5b506104c36110e2565b61051d610621366004612e93565b6110e8565b34801561063257600080fd5b5061051d610641366004612db7565b611302565b34801561065257600080fd5b506104c361131d565b34801561066757600080fd5b5061067b610676366004612d6b565b611323565b60405161046e9190613154565b34801561069457600080fd5b506104f06113e0565b3480156106a957600080fd5b506104c36113ef565b3480156106be57600080fd5b506104c36113f5565b3480156106d357600080fd5b5061051d6106e2366004612f44565b6113fb565b3480156106f357600080fd5b506104c3610702366004612f44565b61141c565b34801561071357600080fd5b5061051d610722366004612f94565b611448565b34801561073357600080fd5b5061051d610742366004612f44565b611477565b34801561075357600080fd5b50610461611498565b34801561076857600080fd5b506104c36114a8565b34801561077d57600080fd5b506104f061078c366004612f44565b6114ae565b34801561079d57600080fd5b506104c36114c0565b3480156107b257600080fd5b506104616114c6565b3480156107c757600080fd5b506104c36107d6366004612d6b565b6114cf565b3480156107e757600080fd5b5061051d61151c565b3480156107fc57600080fd5b50610461611567565b34801561081157600080fd5b5061051d611575565b34801561082657600080fd5b5061051d610835366004612f44565b61164a565b34801561084657600080fd5b5061051d610855366004612e93565b61166b565b61051d610868366004612fd9565b6116f0565b34801561087957600080fd5b50610461611b3f565b34801561088e57600080fd5b506104c3611b50565b3480156108a357600080fd5b5061051d6108b2366004612f2a565b611b74565b3480156108c357600080fd5b506104f0611baa565b3480156108d857600080fd5b5061051d611bb9565b3480156108ed57600080fd5b506104a1611bec565b34801561090257600080fd5b506104c3611bfb565b34801561091757600080fd5b506104c3611c01565b34801561092c57600080fd5b5061051d61093b366004612f44565b611c07565b34801561094c57600080fd5b5061051d61095b366004612e6a565b611c28565b34801561096c57600080fd5b5061051d61097b366004612ebc565b611cf6565b34801561098c57600080fd5b5061051d61099b366004612f44565b611df0565b3480156109ac57600080fd5b506104c3611e11565b3480156109c157600080fd5b506104c3611e17565b3480156109d657600080fd5b506104c3611e3c565b3480156109eb57600080fd5b5061051d6109fa366004612df2565b611e42565b348015610a0b57600080fd5b5061051d610a1a366004612f44565b611e75565b348015610a2b57600080fd5b5061051d610a3a366004612f44565b611e96565b348015610a4b57600080fd5b506104c3611eb7565b348015610a6057600080fd5b506104a1610a6f366004612f44565b611ec1565b348015610a8057600080fd5b506104c3611f44565b348015610a9557600080fd5b506104c3611f4a565b348015610aaa57600080fd5b5061051d610ab9366004612f44565b611f50565b348015610aca57600080fd5b5061051d610ad9366004612f44565b611f71565b348015610aea57600080fd5b506104c3610af9366004612d6b565b611f92565b348015610b0a57600080fd5b506104c3611f9d565b348015610b1f57600080fd5b50610461610b2e366004612d85565b611fa3565b348015610b3f57600080fd5b5061051d610b4e366004612f44565b611fd1565b348015610b5f57600080fd5b506104c3611ff2565b348015610b7457600080fd5b5061051d610b83366004612f44565b611ff8565b348015610b9457600080fd5b5061051d610ba3366004612f2a565b612019565b348015610bb457600080fd5b50610461612087565b348015610bc957600080fd5b5061051d610bd8366004612d6b565b612098565b348015610be957600080fd5b5061051d610bf8366004612f44565b612109565b348015610c0957600080fd5b506104c361212a565b348015610c1e57600080fd5b5061051d610c2d366004612f2a565b612130565b348015610c3e57600080fd5b5061051d610c4d366004612f44565b61215f565b60006001600160e01b031982166380ac58cd60e01b1480610c8357506001600160e01b03198216635b5e139f60e01b145b80610c9e57506001600160e01b0319821663780e9d6360e01b145b80610cad5750610cad82612180565b90505b919050565b60135462010000900460ff1681565b606060018054610cd390613c91565b80601f0160208091040260200160405190810160405280929190818152602001828054610cff90613c91565b8015610d4c5780601f10610d2157610100808354040283529160200191610d4c565b820191906000526020600020905b815481529060010190602001808311610d2f57829003601f168201915b5050505050905090565b60185481565b6000610d6782612199565b610d8c5760405162461bcd60e51b8152600401610d8390613acc565b60405180910390fd5b506000908152600560205260409020546001600160a01b031690565b6000610db3826114ae565b9050806001600160a01b0316836001600160a01b03161415610de75760405162461bcd60e51b8152600401610d83906137cb565b806001600160a01b0316610df96121a0565b6001600160a01b03161480610e155750610e1581610b2e6121a0565b610e315760405162461bcd60e51b8152600401610d83906134e3565b610e3c8383836121a4565b505050565b60005490565b610e3c838383612200565b600b5490565b6001600160a01b03166000908152601c602052604090205460ff1690565b6000610e81836114cf565b8210610e9f5760405162461bcd60e51b8152600401610d83906131bf565b6000610ea9610e41565b905060008060005b83811015610f52576000818152600360209081526040918290208251808401909352546001600160a01b038116808452600160a01b9091046001600160401b03169183019190915215610f0357805192505b876001600160a01b0316836001600160a01b03161415610f3f5786841415610f3157509350610f6b92505050565b83610f3b81613ccc565b9450505b5080610f4a81613ccc565b915050610eb1565b5060405162461bcd60e51b8152600401610d83906139c1565b92915050565b33610f7a611baa565b6001600160a01b031614610f8d57600080fd5b601855565b33610f9b611baa565b6001600160a01b031614610fae57600080fd5b601a5447906001600160a01b03166108fc612710610fce84611388613bf0565b610fd89190613bdc565b6040518115909202916000818181858888f19350505050158015611000573d6000803e3d6000fd5b50601b546001600160a01b03166108fc61271061101f84611388613bf0565b6110299190613bdc565b6040518115909202916000818181858888f19350505050158015611051573d6000803e3d6000fd5b5061105a611baa565b6001600160a01b03166108fc612710611074846000613bf0565b61107e9190613bdc565b6040518115909202916000818181858888f193505050501580156110a6573d6000803e3d6000fd5b5050565b336110b3611baa565b6001600160a01b0316146110c657600080fd5b60138054911515620100000262ff000019909216919091179055565b600b5481565b6014546110f3610e41565b11156111115760405162461bcd60e51b8152600401610d83906133a6565b3233146111305760405162461bcd60e51b8152600401610d8390613465565b611138611baa565b6001600160a01b0316336001600160a01b031614611179576013546301000000900460ff166111795760405162461bcd60e51b8152600401610d8390613238565b611181611baa565b6001600160a01b0316826001600160a01b0316146111ce57601654816111a6846114cf565b6111b09190613bc4565b11156111ce5760405162461bcd60e51b8152600401610d839061332c565b601454816111da610e41565b6111e49190613bc4565b11156112025760405162461bcd60e51b8152600401610d839061379b565b60145461120d610e41565b111561122b5760405162461bcd60e51b8152600401610d839061395d565b60155481111561124d5760405162461bcd60e51b8152600401610d8390613764565b7f00000000000000000000000000000000000000000000000000000000000000008161127833611f92565b6112829190613bc4565b11156112a05760405162461bcd60e51b8152600401610d839061392d565b601354640100000000900460ff16156112cb5760405162461bcd60e51b8152600401610d83906132ff565b80600a546112d99190613bf0565b3410156112f85760405162461bcd60e51b8152600401610d839061398a565b6110a68282612512565b610e3c83838360405180602001604052806000815250611e42565b60175481565b60606000611330836114cf565b90506000816001600160401b0381111561135a57634e487b7160e01b600052604160045260246000fd5b604051908082528060200260200182016040528015611383578160200160208202803683370190505b50905060005b828110156113d85761139b8582610e76565b8282815181106113bb57634e487b7160e01b600052603260045260246000fd5b6020908102919091010152806113d081613ccc565b915050611389565b509392505050565b60006113ea611baa565b905090565b600c5481565b60145481565b33611404611baa565b6001600160a01b03161461141757600080fd5b601555565b6000611426610e41565b82106114445760405162461bcd60e51b8152600401610d8390613363565b5090565b33611451611baa565b6001600160a01b03161461146457600080fd5b80516110a6906012906020840190612c41565b33611480611baa565b6001600160a01b03161461149357600080fd5b601155565b6013546301000000900460ff1681565b60095490565b60006114b98261252c565b5192915050565b600a5481565b60135460ff1681565b60006001600160a01b0382166114f75760405162461bcd60e51b8152600401610d839061358f565b506001600160a01b03166000908152600460205260409020546001600160801b031690565b6115246121a0565b6001600160a01b0316611535611baa565b6001600160a01b03161461155b5760405162461bcd60e51b8152600401610d8390613657565b611565600061263e565b565b601354610100900460ff1681565b3361157e611baa565b6001600160a01b03161461159157600080fd5b60115460105411156115b55760405162461bcd60e51b8152600401610d8390613201565b60006115bf610e41565b905060015b600f5481116110a6577f55f284809f4c5b7377fbe62f2feeb9686e3834dcae5f3ca955140fe6547cd3556115f88284613bc4565b33604051611607929190613b5b565b60405180910390a16116223361161d8385613bc4565b612512565b6010805490600061163283613ccc565b9190505550808061164290613ccc565b9150506115c4565b33611653611baa565b6001600160a01b03161461166657600080fd5b601455565b33611674611baa565b6001600160a01b03161461168757600080fd5b60005b81811015610e3c577f55f284809f4c5b7377fbe62f2feeb9686e3834dcae5f3ca955140fe6547cd3556116bb610e41565b846040516116ca929190613b5b565b60405180910390a16116de8361161d610e41565b806116e881613ccc565b91505061168a565b6014546116fb610e41565b11156117195760405162461bcd60e51b8152600401610d83906133a6565b60003360405160200161172c91906130b7565b604051602081830303815290604052805190602001209050600061174e610e41565b60095490915061176090849084612690565b61177c5760405162461bcd60e51b8152600401610d83906138c5565b601454611787610e41565b106117a45760405162461bcd60e51b8152600401610d8390613a95565b83600b546117b29190613bf0565b3410156117d15760405162461bcd60e51b8152600401610d839061398a565b601354640100000000900460ff16156117fc5760405162461bcd60e51b8152600401610d83906132ff565b60135460ff161580156118175750601354610100900460ff16155b801561182c575060135462010000900460ff16155b156118495760405162461bcd60e51b8152600401610d839061380d565b60135460ff161561190a576017548411156118765760405162461bcd60e51b8152600401610d8390613540565b600c54611881610e41565b61188b9086613bc4565b11156118a95760405162461bcd60e51b8152600401610d839061349c565b601754336000908152601d60205260409020546118c7908690613bc4565b11156118e55760405162461bcd60e51b8152600401610d8390613a0f565b336000908152601d602052604081208054869290611904908490613bc4565b90915550505b601354610100900460ff16156119d05760185484111561193c5760405162461bcd60e51b8152600401610d8390613540565b600d54611947610e41565b6119519086613bc4565b111561196f5760405162461bcd60e51b8152600401610d839061349c565b601854336000908152601e602052604090205461198d908690613bc4565b11156119ab5760405162461bcd60e51b8152600401610d8390613a0f565b336000908152601e6020526040812080548692906119ca908490613bc4565b90915550505b60135462010000900460ff1615611a9757601954841115611a035760405162461bcd60e51b8152600401610d8390613540565b600e54611a0e610e41565b611a189086613bc4565b1115611a365760405162461bcd60e51b8152600401610d839061349c565b601954336000908152601f6020526040902054611a54908690613bc4565b1115611a725760405162461bcd60e51b8152600401610d8390613a0f565b336000908152601f602052604081208054869290611a91908490613bc4565b90915550505b600c5484611aa3610e41565b611aad9190613bc4565b1415611ace576013805460ff1916905567026db992a3b18000600b55611b2f565b600d5484611ada610e41565b611ae49190613bc4565b1415611b06576013805461ff00191690556702c68af0bb140000600b55611b2f565b600e5484611b12610e41565b611b1c9190613bc4565b1415611b2f576013805462ff0000191690555b611b393385612512565b50505050565b601354640100000000900460ff1681565b7f000000000000000000000000000000000000000000000000000000000000000081565b33611b7d611baa565b6001600160a01b031614611b9057600080fd5b601380549115156101000261ff0019909216919091179055565b6008546001600160a01b031690565b33611bc2611baa565b6001600160a01b031614611bd557600080fd5b6013805464ff000000001916640100000000179055565b606060028054610cd390613c91565b60155481565b60195481565b33611c10611baa565b6001600160a01b031614611c2357600080fd5b601755565b611c306121a0565b6001600160a01b0316826001600160a01b03161415611c615760405162461bcd60e51b8152600401610d83906136db565b8060066000611c6e6121a0565b6001600160a01b03908116825260208083019390935260409182016000908120918716808252919093529120805460ff191692151592909217909155611cb26121a0565b6001600160a01b03167f17307eab39ab6107e8899845ad3d59bd9653f200f220920489ca2b5937696c3183604051611cea9190613198565b60405180910390a35050565b33611cff611baa565b6001600160a01b031614611d1257600080fd5b60005b81811015610e3c576000838383818110611d3f57634e487b7160e01b600052603260045260246000fd5b9050602002016020810190611d549190612d6b565b6001600160a01b03161415611d7b5760405162461bcd60e51b8152600401610d8390613620565b6000601c6000858585818110611da157634e487b7160e01b600052603260045260246000fd5b9050602002016020810190611db69190612d6b565b6001600160a01b031681526020810191909152604001600020805460ff191691151591909117905580611de881613ccc565b915050611d15565b33611df9611baa565b6001600160a01b031614611e0c57600080fd5b600c55565b600a5490565b600033611e22611baa565b6001600160a01b031614611e3557600080fd5b5060155490565b600e5481565b611e4d848484612200565b611e59848484846126a6565b611b395760405162461bcd60e51b8152600401610d839061383b565b33611e7e611baa565b6001600160a01b031614611e9157600080fd5b601955565b33611e9f611baa565b6001600160a01b031614611eb257600080fd5b600b55565b60006113ea610e41565b6060611ecc82612199565b611ee85760405162461bcd60e51b8152600401610d839061368c565b6000611ef26127c2565b90506000815111611f125760405180602001604052806000815250611f3d565b80611f1c846127d1565b604051602001611f2d9291906130d4565b6040516020818303038152906040525b9392505050565b60165481565b60075481565b33611f59611baa565b6001600160a01b031614611f6c57600080fd5b600d55565b33611f7a611baa565b6001600160a01b031614611f8d57600080fd5b600955565b6000610cad826128eb565b600f5490565b6001600160a01b03918216600090815260066020908152604080832093909416825291909152205460ff1690565b33611fda611baa565b6001600160a01b031614611fed57600080fd5b601655565b60095481565b33612001611baa565b6001600160a01b03161461201457600080fd5b600e55565b33612022611baa565b6001600160a01b03161461203557600080fd5b6013805463ff00000019166301000000831515021790556040517f58655b75d3df612fe99ead00dbf0812d415d35078fe06217a94c0818bb13967f9061207c908390613198565b60405180910390a150565b601354640100000000900460ff1690565b6120a06121a0565b6001600160a01b03166120b1611baa565b6001600160a01b0316146120d75760405162461bcd60e51b8152600401610d8390613657565b6001600160a01b0381166120fd5760405162461bcd60e51b8152600401610d839061326f565b6121068161263e565b50565b33612112611baa565b6001600160a01b03161461212557600080fd5b600a55565b600d5481565b33612139611baa565b6001600160a01b03161461214c57600080fd5b6013805460ff1916911515919091179055565b33612168611baa565b6001600160a01b03161461217b57600080fd5b600f55565b6001600160e01b031981166301ffc9a760e01b14919050565b6000541190565b3390565b60008281526005602052604080822080546001600160a01b0319166001600160a01b0387811691821790925591518593918516917f8c5be1e5ebec7d5bd14f71427d1e84f3dd0314c0f7b2291e5b200ac8c7c3b92591a4505050565b600061220b8261252c565b9050600081600001516001600160a01b03166122256121a0565b6001600160a01b0316148061225a575061223d6121a0565b6001600160a01b031661224f84610d5c565b6001600160a01b0316145b8061226e5750815161226e90610b2e6121a0565b90508061228d5760405162461bcd60e51b8152600401610d8390613712565b846001600160a01b031682600001516001600160a01b0316146122c25760405162461bcd60e51b8152600401610d83906135da565b6001600160a01b0384166122e85760405162461bcd60e51b8152600401610d83906133cf565b6122f58585856001611b39565b61230560008484600001516121a4565b6001600160a01b03851660009081526004602052604081208054600192906123379084906001600160801b0316613c0f565b82546101009290920a6001600160801b038181021990931691831602179091556001600160a01b0386166000908152600460205260408120805460019450909261238391859116613ba2565b82546001600160801b039182166101009390930a9283029190920219909116179055506040805180820182526001600160a01b0380871682526001600160401b03428116602080850191825260008981526003909152948520935184549151909216600160a01b0267ffffffffffffffff60a01b19929093166001600160a01b03199091161716179055612418846001613bc4565b6000818152600360205260409020549091506001600160a01b03166124bc5761244081612199565b156124bc5760408051808201825284516001600160a01b0390811682526020808701516001600160401b0390811682850190815260008781526003909352949091209251835494516001600160a01b031990951692169190911767ffffffffffffffff60a01b1916600160a01b93909116929092029190911790555b83856001600160a01b0316876001600160a01b03167fddf252ad1be2c89b69c2b068fc378daa952ba7f163c4a11628f55a4df523b3ef60405160405180910390a461250a8686866001611b39565b505050505050565b6110a682826040518060200160405280600081525061293f565b612534612cc1565b61253d82612199565b6125595760405162461bcd60e51b8152600401610d83906132b5565b60007f000000000000000000000000000000000000000000000000000000000000000083106125ba576125ac7f000000000000000000000000000000000000000000000000000000000000000084613c37565b6125b7906001613bc4565b90505b825b818110612625576000818152600360209081526040918290208251808401909352546001600160a01b038116808452600160a01b9091046001600160401b03169183019190915215612612579250610cb0915050565b508061261d81613c7a565b9150506125bc565b5060405162461bcd60e51b8152600401610d8390613a46565b600880546001600160a01b038381166001600160a01b0319831681179093556040519116919082907f8be0079c531659141344cd1fd0a4f28419497f9722a3daafe3b4186f6b6457e090600090a35050565b60008261269d8584612bb1565b14949350505050565b60006126ba846001600160a01b0316612c23565b156127b657836001600160a01b031663150b7a026126d66121a0565b8786866040518563ffffffff1660e01b81526004016126f89493929190613117565b602060405180830381600087803b15801561271257600080fd5b505af1925050508015612742575060408051601f3d908101601f1916820190925261273f91810190612f78565b60015b61279c573d808015612770576040519150601f19603f3d011682016040523d82523d6000602084013e612775565b606091505b5080516127945760405162461bcd60e51b8152600401610d839061383b565b805181602001fd5b6001600160e01b031916630a85bd0160e11b1490506127ba565b5060015b949350505050565b606060128054610cd390613c91565b6060816127f657506040805180820190915260018152600360fc1b6020820152610cb0565b8160005b8115612820578061280a81613ccc565b91506128199050600a83613bdc565b91506127fa565b6000816001600160401b0381111561284857634e487b7160e01b600052604160045260246000fd5b6040519080825280601f01601f191660200182016040528015612872576020820181803683370190505b5090505b84156127ba57612887600183613c37565b9150612894600a86613ce7565b61289f906030613bc4565b60f81b8183815181106128c257634e487b7160e01b600052603260045260246000fd5b60200101906001600160f81b031916908160001a9053506128e4600a86613bdc565b9450612876565b60006001600160a01b0382166129135760405162461bcd60e51b8152600401610d8390613414565b506001600160a01b0316600090815260046020526040902054600160801b90046001600160801b031690565b6000546001600160a01b0384166129685760405162461bcd60e51b8152600401610d83906138ec565b61297181612199565b1561298e5760405162461bcd60e51b8152600401610d839061388e565b7f00000000000000000000000000000000000000000000000000000000000000008311156129ce5760405162461bcd60e51b8152600401610d8390613b19565b6129db6000858386611b39565b6001600160a01b0384166000908152600460209081526040918290208251808401845290546001600160801b038082168352600160801b9091041691810191909152815180830190925280519091908190612a37908790613ba2565b6001600160801b03168152602001858360200151612a559190613ba2565b6001600160801b039081169091526001600160a01b03808816600081815260046020908152604080832087518154988401518816600160801b029088166fffffffffffffffffffffffffffffffff199099169890981790961696909617909455845180860186529182526001600160401b034281168386019081528883526003909552948120915182549451909516600160a01b0267ffffffffffffffff60a01b19959093166001600160a01b031990941693909317939093161790915582905b85811015612b9f5760405182906001600160a01b038916906000907fddf252ad1be2c89b69c2b068fc378daa952ba7f163c4a11628f55a4df523b3ef908290a4612b6360008884886126a6565b612b7f5760405162461bcd60e51b8152600401610d839061383b565b81612b8981613ccc565b9250508080612b9790613ccc565b915050612b16565b50600081815561250a90878588611b39565b600081815b84518110156113d8576000858281518110612be157634e487b7160e01b600052603260045260246000fd5b60200260200101519050808311612c0357612bfc8382612c32565b9250612c10565b612c0d8184612c32565b92505b5080612c1b81613ccc565b915050612bb6565b6001600160a01b03163b151590565b60009182526020526040902090565b828054612c4d90613c91565b90600052602060002090601f016020900481019282612c6f5760008555612cb5565b82601f10612c8857805160ff1916838001178555612cb5565b82800160010185558215612cb5579182015b82811115612cb5578251825591602001919060010190612c9a565b50611444929150612cd8565b604080518082019091526000808252602082015290565b5b808211156114445760008155600101612cd9565b60006001600160401b03831115612d0657612d06613d27565b612d19601f8401601f1916602001613b72565b9050828152838383011115612d2d57600080fd5b828260208301376000602084830101529392505050565b80356001600160a01b0381168114610cb057600080fd5b80358015158114610cb057600080fd5b600060208284031215612d7c578081fd5b611f3d82612d44565b60008060408385031215612d97578081fd5b612da083612d44565b9150612dae60208401612d44565b90509250929050565b600080600060608486031215612dcb578081fd5b612dd484612d44565b9250612de260208501612d44565b9150604084013590509250925092565b60008060008060808587031215612e07578081fd5b612e1085612d44565b9350612e1e60208601612d44565b92506040850135915060608501356001600160401b03811115612e3f578182fd5b8501601f81018713612e4f578182fd5b612e5e87823560208401612ced565b91505092959194509250565b60008060408385031215612e7c578182fd5b612e8583612d44565b9150612dae60208401612d5b565b60008060408385031215612ea5578182fd5b612eae83612d44565b946020939093013593505050565b60008060208385031215612ece578182fd5b82356001600160401b0380821115612ee4578384fd5b818501915085601f830112612ef7578384fd5b813581811115612f05578485fd5b8660208083028501011115612f18578485fd5b60209290920196919550909350505050565b600060208284031215612f3b578081fd5b611f3d82612d5b565b600060208284031215612f55578081fd5b5035919050565b600060208284031215612f6d578081fd5b8135611f3d81613d3d565b600060208284031215612f89578081fd5b8151611f3d81613d3d565b600060208284031215612fa5578081fd5b81356001600160401b03811115612fba578182fd5b8201601f81018413612fca578182fd5b6127ba84823560208401612ced565b60008060408385031215612feb578182fd5b823591506020808401356001600160401b0380821115613009578384fd5b818601915086601f83011261301c578384fd5b81358181111561302e5761302e613d27565b838102915061303e848301613b72565b8181528481019084860184860187018b1015613058578788fd5b8795505b8386101561307a57803583526001959095019491860191860161305c565b508096505050505050509250929050565b600081518084526130a3816020860160208601613c4e565b601f01601f19169290920160200192915050565b60609190911b6bffffffffffffffffffffffff1916815260140190565b600083516130e6818460208801613c4e565b8351908301906130fa818360208801613c4e565b01949350505050565b6001600160a01b0391909116815260200190565b6001600160a01b038581168252841660208201526040810183905260806060820181905260009061314a9083018461308b565b9695505050505050565b6020808252825182820181905260009190848201906040850190845b8181101561318c57835183529284019291840191600101613170565b50909695505050505050565b901515815260200190565b90815260200190565b600060208252611f3d602083018461308b565b60208082526022908201527f455243373231413a206f776e657220696e646578206f7574206f6620626f756e604082015261647360f01b606082015260800190565b6020808252601b908201527f4d61782052657365727665732074616b656e20616c7265616479210000000000604082015260600190565b6020808252601d908201527f53616c65206973206e6f74206163746976652063757272656e746c792e000000604082015260600190565b60208082526026908201527f4f776e61626c653a206e6577206f776e657220697320746865207a65726f206160408201526564647265737360d01b606082015260800190565b6020808252602a908201527f455243373231413a206f776e657220717565727920666f72206e6f6e657869736040820152693a32b73a103a37b5b2b760b11b606082015260800190565b60208082526013908201527226b4b73a1021b637b9b2b2102337b932bb32b960691b604082015260600190565b60208082526018908201527f4d617820686f6c64696e672063617020726561636865642e0000000000000000604082015260600190565b60208082526023908201527f455243373231413a20676c6f62616c20696e646578206f7574206f6620626f756040820152626e647360e81b606082015260800190565b6020808252600f908201526e29b0b632903430b99032b73232b21760891b604082015260600190565b60208082526025908201527f455243373231413a207472616e7366657220746f20746865207a65726f206164604082015264647265737360d81b606082015260800190565b60208082526031908201527f455243373231413a206e756d626572206d696e74656420717565727920666f7260408201527020746865207a65726f206164647265737360781b606082015260800190565b6020808252601e908201527f5468652063616c6c657220697320616e6f7468657220636f6e74726163740000604082015260600190565b60208082526027908201527f4e6f204e46547320617265206c65667420746f206d696e7420666f72207468696040820152667320737461676560c81b606082015260800190565b60208082526039908201527f455243373231413a20617070726f76652063616c6c6572206973206e6f74206f60408201527f776e6572206e6f7220617070726f76656420666f7220616c6c00000000000000606082015260800190565b6020808252602f908201527f43616e6e6f742070757263686173652074686973206d616e7920746f6b656e7360408201526e20666f72207468697320737461676560881b606082015260800190565b6020808252602b908201527f455243373231413a2062616c616e636520717565727920666f7220746865207a60408201526a65726f206164647265737360a81b606082015260800190565b60208082526026908201527f455243373231413a207472616e736665722066726f6d20696e636f72726563746040820152651037bbb732b960d11b606082015260800190565b60208082526018908201527f43616e2774206164642061206e756c6c20616464726573730000000000000000604082015260600190565b6020808252818101527f4f776e61626c653a2063616c6c6572206973206e6f7420746865206f776e6572604082015260600190565b6020808252602f908201527f4552433732314d657461646174613a2055524920717565727920666f72206e6f60408201526e3732bc34b9ba32b73a103a37b5b2b760891b606082015260800190565b6020808252601a908201527f455243373231413a20617070726f766520746f2063616c6c6572000000000000604082015260600190565b60208082526032908201527f455243373231413a207472616e736665722063616c6c6572206973206e6f74206040820152711bdddb995c881b9bdc88185c1c1c9bdd995960721b606082015260800190565b6020808252601e908201527f45786365656473206d6178696d756d20616c6c6f77656420746f6b656e730000604082015260600190565b6020808252601690820152752a37ba30b61039bab838363c9032bc31b2b2b232b21760511b604082015260600190565b60208082526022908201527f455243373231413a20617070726f76616c20746f2063757272656e74206f776e60408201526132b960f11b606082015260800190565b602080825260149082015273526166666c65206973206e6f742061637469766560601b604082015260600190565b60208082526033908201527f455243373231413a207472616e7366657220746f206e6f6e204552433732315260408201527232b1b2b4bb32b91034b6b83632b6b2b73a32b960691b606082015260800190565b6020808252601d908201527f455243373231413a20746f6b656e20616c7265616479206d696e746564000000604082015260600190565b6020808252600d908201526c34b73b30b634b210383937b7b360991b604082015260600190565b60208082526021908201527f455243373231413a206d696e7420746f20746865207a65726f206164647265736040820152607360f81b606082015260800190565b60208082526016908201527563616e206e6f74206d696e742074686973206d616e7960501b604082015260600190565b6020808252601390820152722a37ba30b61039bab838363c9039b832b73a1760691b604082015260600190565b6020808252601b908201527f496e7375666669656e742045544820616d6f756e742073656e742e0000000000604082015260600190565b6020808252602e908201527f455243373231413a20756e61626c6520746f2067657420746f6b656e206f662060408201526d0deeedccae440c4f240d2dcc8caf60931b606082015260800190565b6020808252601c908201527f50757263686173652065786365656473206d617820616c6c6f77656400000000604082015260600190565b6020808252602f908201527f455243373231413a20756e61626c6520746f2064657465726d696e652074686560408201526e1037bbb732b91037b3103a37b5b2b760891b606082015260800190565b6020808252601b908201527f416c6c20746f6b656e732068617665206265656e206d696e7465640000000000604082015260600190565b6020808252602d908201527f455243373231413a20617070726f76656420717565727920666f72206e6f6e6560408201526c3c34b9ba32b73a103a37b5b2b760991b606082015260800190565b60208082526022908201527f455243373231413a207175616e7469747920746f206d696e7420746f6f2068696040820152610ced60f31b606082015260800190565b9182526001600160a01b0316602082015260400190565b604051601f8201601f191681016001600160401b0381118282101715613b9a57613b9a613d27565b604052919050565b60006001600160801b038083168185168083038211156130fa576130fa613cfb565b60008219821115613bd757613bd7613cfb565b500190565b600082613beb57613beb613d11565b500490565b6000816000190483118215151615613c0a57613c0a613cfb565b500290565b60006001600160801b0383811690831681811015613c2f57613c2f613cfb565b039392505050565b600082821015613c4957613c49613cfb565b500390565b60005b83811015613c69578181015183820152602001613c51565b83811115611b395750506000910152565b600081613c8957613c89613cfb565b506000190190565b600281046001821680613ca557607f821691505b60208210811415613cc657634e487b7160e01b600052602260045260246000fd5b50919050565b6000600019821415613ce057613ce0613cfb565b5060010190565b600082613cf657613cf6613d11565b500690565b634e487b7160e01b600052601160045260246000fd5b634e487b7160e01b600052601260045260246000fd5b634e487b7160e01b600052604160045260246000fd5b6001600160e01b03198116811461210657600080fdfea2646970667358221220edf7fcec85908fabee9b21a1e73e8fe1a2b42352298d96be89af459a7807371164736f6c63430008010033",
  "immutableReferences": {
    "989": [
      {
        "length": 32,
        "start": 9565
      },
      {
        "length": 32,
        "start": 9607
      },
      {
        "length": 32,
        "start": 10640
      }
    ],
    "2216": [
      {
        "length": 32,
        "start": 4687
      },
      {
        "length": 32,
        "start": 6994
      }
    ]
  },
  "source": "// SPDX-License-Identifier: MIT\n// Made by: NFT Stack\n//          https://nftstack.info\n//\n\npragma solidity ^0.8.1;\n\nimport \"@openzeppelin/contracts/access/Ownable.sol\";\nimport \"@openzeppelin/contracts/utils/cryptography/MerkleProof.sol\";\nimport \"./ERC721A.sol\";\n\ncontract M3taMoguls is ERC721A, Ownable {\n  using MerkleProof for bytes32[];\n\n  bytes32 public root;\n  uint256 public mintPrice = 0.3 ether;\n  uint256 public raffleMintPrice = 0.15 ether;\n  uint256 public raffleBreakPoint1 = 5;\n  uint256 public raffleBreakPoint2 = 10;\n  uint256 public raffleBreakPoint3 = 15;\n\n  uint256 private reserveAtATime = 50;\n  uint256 private reservedCount = 0;\n  uint256 private maxReserveCount = 100;\n\n  string _baseTokenURI;\n\n  bool public isRaffleActive1 = false;\n  bool public isRaffleActive2 = false;\n  bool public isRaffleActive3 = false;\n  bool public isMintActive = false;\n  bool public isClosedMintForever = false;\n\n  uint256 public maximumMintSupply = 8888;\n  uint256 public maximumAllowedTokensPerPurchase = 5;\n  uint256 public maximumAllowedTokensPerWallet = 5;\n  uint256 public raffleMaxMint1 = 2;\n  uint256 public raffleMaxMint2 = 3;\n  uint256 public raffleMaxMint3 = 4;\n\n  uint256 public immutable maxPerAddressDuringMint;\n\n  address private OtherAddress1 = 0x9DbF14C79847D1566419dCddd5ad35DAf0382E05;\n  address private OtherAddress2 = 0x9DbF14C79847D1566419dCddd5ad35DAf0382E05;\n\n  mapping(address => bool) private _allowList;\n  mapping(address => uint256) private _allowListClaimed1;\n  mapping(address => uint256) private _allowListClaimed2;\n  mapping(address => uint256) private _allowListClaimed3;\n\n  event AssetMinted(uint256 tokenId, address sender);\n  event SaleActivation(bool isMintActive);\n\n  constructor(\n    string memory baseURI,\n    uint256 maxBatchSize_,\n    uint256 collectionSize_\n   ) ERC721A(\"M3TA MOGULS\", \"MM\", maxBatchSize_, collectionSize_) {\n    setBaseURI(baseURI);\n    maxPerAddressDuringMint = maxBatchSize_;\n  }\n\n  modifier saleIsOpen {\n    require(totalSupply() <= maximumMintSupply, \"Sale has ended.\");\n    _;\n  }\n\n  modifier onlyAuthorized() {\n    require(owner() == msg.sender);\n    _;\n  }\n\n  modifier callerIsUser() {\n    require(tx.origin == msg.sender, \"The caller is another contract\");\n    _;\n  }\n\n  function setMaximumAllowedTokens(uint256 _count) public onlyAuthorized {\n    maximumAllowedTokensPerPurchase = _count;\n  }\n\n  function setMaximumAllowedTokensPerWallet(uint256 _count) public onlyAuthorized {\n    maximumAllowedTokensPerWallet = _count;\n  }\n\n  function setMintActive(bool val) public onlyAuthorized {\n    isMintActive = val;\n    emit SaleActivation(val);\n  }\n\n  function setMaxMintSupply(uint256 maxMintSupply) external  onlyAuthorized {\n    maximumMintSupply = maxMintSupply;\n  }\n\n  function setRaffleBreakPoint1(uint256 point) external  onlyAuthorized {\n    raffleBreakPoint1 = point;\n  }\n\n  function setRaffleBreakPoint2(uint256 point) external  onlyAuthorized {\n    raffleBreakPoint2 = point;\n  }\n\n  function setRaffleBreakPoint3(uint256 point) external  onlyAuthorized {\n    raffleBreakPoint3 = point;\n  }\n\n  function setRaffleActive1(bool _isRaffleActive) public onlyAuthorized {\n    isRaffleActive1 = _isRaffleActive;\n  }\n\n  function setRaffleActive2(bool _isRaffleActive) public onlyAuthorized {\n    isRaffleActive2 = _isRaffleActive;\n  }\n\n  function setRaffleActive3(bool _isRaffleActive) public onlyAuthorized {\n    isRaffleActive3 = _isRaffleActive;\n  }\n\n  function setRaffleMaxMint1(uint256 maxMint) external  onlyAuthorized {\n    raffleMaxMint1 = maxMint;\n  }\n\n  function setRaffleMaxMint2(uint256 maxMint) external  onlyAuthorized {\n    raffleMaxMint2 = maxMint;\n  }\n\n  function setRaffleMaxMint3(uint256 maxMint) external  onlyAuthorized {\n    raffleMaxMint3 = maxMint;\n  }\n\n  function checkIfOnAllowList(address addr) external view returns (bool) {\n    return _allowList[addr];\n  }\n\n  function removeFromAllowList(address[] calldata addresses) external onlyAuthorized {\n    for (uint256 i = 0; i < addresses.length; i++) {\n      require(addresses[i] != address(0), \"Can't add a null address\");\n      _allowList[addresses[i]] = false;\n    }\n  }\n\n  function setReserveAtATime(uint256 val) public onlyAuthorized {\n    reserveAtATime = val;\n  }\n\n  function setMaxReserve(uint256 val) public onlyAuthorized {\n    maxReserveCount = val;\n  }\n\n  function setMintPrice(uint256 _price) public onlyAuthorized {\n    mintPrice = _price;\n  }\n\n  function setRaffleMintPrice(uint256 _price) public onlyAuthorized {\n    raffleMintPrice = _price;\n  }\n\n  function setBaseURI(string memory baseURI) public onlyAuthorized {\n    _baseTokenURI = baseURI;\n  }\n\n  function getMaximumAllowedTokens() public view onlyAuthorized returns (uint256) {\n    return maximumAllowedTokensPerPurchase;\n  }\n\n  function getMintPrice() external view returns (uint256) {\n    return mintPrice;\n  }\n\n  function getRaffleMintPrice() external view returns (uint256) {\n    return raffleMintPrice;\n  }\n\n  function getIsClosedMintForever() external view returns (bool) {\n    return isClosedMintForever;\n  }\n\n  function setIsClosedMintForever() external onlyAuthorized {\n    isClosedMintForever = true;\n  }\n\n  function setRoot(bytes32 _root) public onlyAuthorized {\n    root = _root;\n  }\n\n  function getReserveAtATime() external view returns (uint256) {\n    return reserveAtATime;\n  }\n\n  function getTotalSupply() external view returns (uint256) {\n    return totalSupply();\n  }\n\n  function getRoot() external view returns (bytes32) {\n    return root;\n  }\n\n  function getContractOwner() public view returns (address) {\n    return owner();\n  }\n\n  function _baseURI() internal view virtual override returns (string memory) {\n    return _baseTokenURI;\n  }\n\n  function reserveNft() public onlyAuthorized {\n    require(reservedCount <= maxReserveCount, \"Max Reserves taken already!\");\n    uint256 supply = totalSupply();\n    uint256 i;\n\n    for (i = 1; i <= reserveAtATime; i++) {\n      emit AssetMinted(supply + i, msg.sender);\n      _safeMint(msg.sender, supply + i);\n      reservedCount++;\n    }\n  }\n\n  function reserveToCustomWallet(address _walletAddress, uint256 _count) public onlyAuthorized {\n    for (uint256 i = 0; i < _count; i++) {\n      emit AssetMinted(totalSupply(), _walletAddress);\n      _safeMint(_walletAddress, totalSupply());\n    }\n  }\n\n  function mint(address _to, uint256 _count) public payable saleIsOpen callerIsUser {\n    if (msg.sender != owner()) {\n      require(isMintActive, \"Sale is not active currently.\");\n    }\n\n    if(_to != owner()) {\n      require(balanceOf(_to) + _count <= maximumAllowedTokensPerWallet, \"Max holding cap reached.\");\n    }\n\n    require(totalSupply() + _count <= maximumMintSupply, \"Total supply exceeded.\");\n    require(totalSupply() <= maximumMintSupply, \"Total supply spent.\");\n    require(\n      _count <= maximumAllowedTokensPerPurchase,\n      \"Exceeds maximum allowed tokens\"\n    );\n    require(\n      numberMinted(msg.sender) + _count <= maxPerAddressDuringMint,\n      \"can not mint this many\"\n    );\n    require(!isClosedMintForever, \"Mint Closed Forever\");\n    require(msg.value >= mintPrice * _count, \"Insuffient ETH amount sent.\");\n\n    _safeMint(_to, _count);\n  }\n\n  function raffleMint(uint256 _count, bytes32[] memory _proof) public payable saleIsOpen {\n    bytes32 leaf = keccak256(abi.encodePacked(msg.sender));\n    uint256 supply = totalSupply();\n    require(_proof.verify(root, leaf), \"invalid proof\");\n    require(totalSupply() < maximumMintSupply, \"All tokens have been minted\");\n    require(msg.value >= raffleMintPrice * _count, \"Insuffient ETH amount sent.\");\n    require(!isClosedMintForever, \"Mint Closed Forever\");\n    if(!isRaffleActive1 && !isRaffleActive2 && !isRaffleActive3) {\n      require(false, \"Raffle is not active\");\n    }\n\n\n    if (isRaffleActive1) {\n      require(_count <= raffleMaxMint1, \"Cannot purchase this many tokens for this stage\");\n      require(_count + totalSupply() <= raffleBreakPoint1, \"No NFTs are left to mint for this stage\");\n      require(_allowListClaimed1[msg.sender] + _count <= raffleMaxMint1, 'Purchase exceeds max allowed');\n      _allowListClaimed1[msg.sender] += _count;\n    }\n\n    if (isRaffleActive2) {\n      require(_count <= raffleMaxMint2, \"Cannot purchase this many tokens for this stage\");\n      require(_count + totalSupply() <= raffleBreakPoint2, \"No NFTs are left to mint for this stage\");\n      require(_allowListClaimed2[msg.sender] + _count <= raffleMaxMint2, 'Purchase exceeds max allowed');\n      _allowListClaimed2[msg.sender] += _count;\n    }\n\n    if (isRaffleActive3) {\n      require(_count <= raffleMaxMint3, \"Cannot purchase this many tokens for this stage\");\n      require(_count + totalSupply() <= raffleBreakPoint3, \"No NFTs are left to mint for this stage\");\n      require(_allowListClaimed3[msg.sender] + _count <= raffleMaxMint3, 'Purchase exceeds max allowed');\n      _allowListClaimed3[msg.sender] += _count;\n    }\n\n    if(totalSupply() + _count == raffleBreakPoint1) {\n      isRaffleActive1 = false;\n      raffleMintPrice = 0.175 ether;\n    } else if(totalSupply() + _count == raffleBreakPoint2) {\n      isRaffleActive2 = false;\n      raffleMintPrice = 0.2 ether;\n    } else if(totalSupply() + _count == raffleBreakPoint3) {\n      isRaffleActive3 = false;\n    }\n\n    _safeMint(msg.sender, _count);\n  }\n\n  function numberMinted(address owner) public view returns (uint256) {\n    return _numberMinted(owner);\n  }\n\n  function walletOfOwner(address _owner) external view returns(uint256[] memory) {\n    uint tokenCount = balanceOf(_owner);\n    uint256[] memory tokensId = new uint256[](tokenCount);\n\n    for(uint i = 0; i < tokenCount; i++){\n      tokensId[i] = tokenOfOwnerByIndex(_owner, i);\n    }\n    return tokensId;\n  }\n\n  function withdraw() external onlyAuthorized {\n    uint balance = address(this).balance;\n    payable(OtherAddress1).transfer(balance * 5000 / 10000);\n    payable(OtherAddress2).transfer(balance * 5000 / 10000);\n    payable(owner()).transfer(balance * 0 / 10000);\n  }\n}",
  "sourcePath": "/Users/nftstack/Documents/GitHub/meta-moguls/contracts/M3taMoguls.sol",
  "compiler": {
    "name": "solc",
    "version": "0.8.1+commit.df193b15.Emscripten.clang"
  },
  "schemaVersion": "3.4.7",
  "updatedAt": "2022-06-01T16:33:50.746Z",
  "devdoc": {
    "kind": "dev",
    "methods": {
      "approve(address,uint256)": {
        "details": "See {IERC721-approve}."
      },
      "balanceOf(address)": {
        "details": "See {IERC721-balanceOf}."
      },
      "getApproved(uint256)": {
        "details": "See {IERC721-getApproved}."
      },
      "isApprovedForAll(address,address)": {
        "details": "See {IERC721-isApprovedForAll}."
      },
      "name()": {
        "details": "See {IERC721Metadata-name}."
      },
      "owner()": {
        "details": "Returns the address of the current owner."
      },
      "ownerOf(uint256)": {
        "details": "See {IERC721-ownerOf}."
      },
      "renounceOwnership()": {
        "details": "Leaves the contract without owner. It will not be possible to call `onlyOwner` functions anymore. Can only be called by the current owner. NOTE: Renouncing ownership will leave the contract without an owner, thereby removing any functionality that is only available to the owner."
      },
      "safeTransferFrom(address,address,uint256)": {
        "details": "See {IERC721-safeTransferFrom}."
      },
      "safeTransferFrom(address,address,uint256,bytes)": {
        "details": "See {IERC721-safeTransferFrom}."
      },
      "setApprovalForAll(address,bool)": {
        "details": "See {IERC721-setApprovalForAll}."
      },
      "supportsInterface(bytes4)": {
        "details": "See {IERC165-supportsInterface}."
      },
      "symbol()": {
        "details": "See {IERC721Metadata-symbol}."
      },
      "tokenByIndex(uint256)": {
        "details": "See {IERC721Enumerable-tokenByIndex}."
      },
      "tokenOfOwnerByIndex(address,uint256)": {
        "details": "See {IERC721Enumerable-tokenOfOwnerByIndex}. This read function is O(collectionSize). If calling from a separate contract, be sure to test gas first. It may also degrade with extremely large collection sizes (e.g >> 10000), test for your use case."
      },
      "tokenURI(uint256)": {
        "details": "See {IERC721Metadata-tokenURI}."
      },
      "totalSupply()": {
        "details": "See {IERC721Enumerable-totalSupply}."
      },
      "transferFrom(address,address,uint256)": {
        "details": "See {IERC721-transferFrom}."
      },
      "transferOwnership(address)": {
        "details": "Transfers ownership of the contract to a new account (`newOwner`). Can only be called by the current owner."
      }
    },
    "version": 1
  },
  "userdoc": {
    "kind": "user",
    "methods": {},
    "version": 1
  }
}