{
  "contractName": "M3taMoguls",
  "abi": [
    {
      "inputs": [
        {
          "internalType": "string",
          "name": "baseURI",
          "type": "string"
        },
        {
          "internalType": "uint256",
          "name": "maxBatchSize_",
          "type": "uint256"
        },
        {
          "internalType": "uint256",
          "name": "collectionSize_",
          "type": "uint256"
        }
      ],
      "stateMutability": "nonpayable",
      "type": "constructor"
    },
    {
      "anonymous": false,
      "inputs": [
        {
          "indexed": true,
          "internalType": "address",
          "name": "owner",
          "type": "address"
        },
        {
          "indexed": true,
          "internalType": "address",
          "name": "approved",
          "type": "address"
        },
        {
          "indexed": true,
          "internalType": "uint256",
          "name": "tokenId",
          "type": "uint256"
        }
      ],
      "name": "Approval",
      "type": "event"
    },
    {
      "anonymous": false,
      "inputs": [
        {
          "indexed": true,
          "internalType": "address",
          "name": "owner",
          "type": "address"
        },
        {
          "indexed": true,
          "internalType": "address",
          "name": "operator",
          "type": "address"
        },
        {
          "indexed": false,
          "internalType": "bool",
          "name": "approved",
          "type": "bool"
        }
      ],
      "name": "ApprovalForAll",
      "type": "event"
    },
    {
      "anonymous": false,
      "inputs": [
        {
          "indexed": false,
          "internalType": "uint256",
          "name": "tokenId",
          "type": "uint256"
        },
        {
          "indexed": false,
          "internalType": "address",
          "name": "sender",
          "type": "address"
        }
      ],
      "name": "AssetMinted",
      "type": "event"
    },
    {
      "anonymous": false,
      "inputs": [
        {
          "indexed": true,
          "internalType": "address",
          "name": "previousOwner",
          "type": "address"
        },
        {
          "indexed": true,
          "internalType": "address",
          "name": "newOwner",
          "type": "address"
        }
      ],
      "name": "OwnershipTransferred",
      "type": "event"
    },
    {
      "anonymous": false,
      "inputs": [
        {
          "indexed": false,
          "internalType": "bool",
          "name": "isMintActive",
          "type": "bool"
        }
      ],
      "name": "SaleActivation",
      "type": "event"
    },
    {
      "anonymous": false,
      "inputs": [
        {
          "indexed": true,
          "internalType": "address",
          "name": "from",
          "type": "address"
        },
        {
          "indexed": true,
          "internalType": "address",
          "name": "to",
          "type": "address"
        },
        {
          "indexed": true,
          "internalType": "uint256",
          "name": "tokenId",
          "type": "uint256"
        }
      ],
      "name": "Transfer",
      "type": "event"
    },
    {
      "inputs": [
        {
          "internalType": "address",
          "name": "to",
          "type": "address"
        },
        {
          "internalType": "uint256",
          "name": "tokenId",
          "type": "uint256"
        }
      ],
      "name": "approve",
      "outputs": [],
      "stateMutability": "nonpayable",
      "type": "function"
    },
    {
      "inputs": [
        {
          "internalType": "address",
          "name": "owner",
          "type": "address"
        }
      ],
      "name": "balanceOf",
      "outputs": [
        {
          "internalType": "uint256",
          "name": "",
          "type": "uint256"
        }
      ],
      "stateMutability": "view",
      "type": "function"
    },
    {
      "inputs": [
        {
          "internalType": "uint256",
          "name": "tokenId",
          "type": "uint256"
        }
      ],
      "name": "getApproved",
      "outputs": [
        {
          "internalType": "address",
          "name": "",
          "type": "address"
        }
      ],
      "stateMutability": "view",
      "type": "function"
    },
    {
      "inputs": [
        {
          "internalType": "address",
          "name": "owner",
          "type": "address"
        },
        {
          "internalType": "address",
          "name": "operator",
          "type": "address"
        }
      ],
      "name": "isApprovedForAll",
      "outputs": [
        {
          "internalType": "bool",
          "name": "",
          "type": "bool"
        }
      ],
      "stateMutability": "view",
      "type": "function"
    },
    {
      "inputs": [],
      "name": "isClosedMintForever",
      "outputs": [
        {
          "internalType": "bool",
          "name": "",
          "type": "bool"
        }
      ],
      "stateMutability": "view",
      "type": "function"
    },
    {
      "inputs": [],
      "name": "isMintActive",
      "outputs": [
        {
          "internalType": "bool",
          "name": "",
          "type": "bool"
        }
      ],
      "stateMutability": "view",
      "type": "function"
    },
    {
      "inputs": [],
      "name": "isRaffleActive1",
      "outputs": [
        {
          "internalType": "bool",
          "name": "",
          "type": "bool"
        }
      ],
      "stateMutability": "view",
      "type": "function"
    },
    {
      "inputs": [],
      "name": "isRaffleActive2",
      "outputs": [
        {
          "internalType": "bool",
          "name": "",
          "type": "bool"
        }
      ],
      "stateMutability": "view",
      "type": "function"
    },
    {
      "inputs": [],
      "name": "isRaffleActive3",
      "outputs": [
        {
          "internalType": "bool",
          "name": "",
          "type": "bool"
        }
      ],
      "stateMutability": "view",
      "type": "function"
    },
    {
      "inputs": [],
      "name": "maxPerAddressDuringMint",
      "outputs": [
        {
          "internalType": "uint256",
          "name": "",
          "type": "uint256"
        }
      ],
      "stateMutability": "view",
      "type": "function"
    },
    {
      "inputs": [],
      "name": "maximumAllowedTokensPerPurchase",
      "outputs": [
        {
          "internalType": "uint256",
          "name": "",
          "type": "uint256"
        }
      ],
      "stateMutability": "view",
      "type": "function"
    },
    {
      "inputs": [],
      "name": "maximumAllowedTokensPerWallet",
      "outputs": [
        {
          "internalType": "uint256",
          "name": "",
          "type": "uint256"
        }
      ],
      "stateMutability": "view",
      "type": "function"
    },
    {
      "inputs": [],
      "name": "maximumMintSupply",
      "outputs": [
        {
          "internalType": "uint256",
          "name": "",
          "type": "uint256"
        }
      ],
      "stateMutability": "view",
      "type": "function"
    },
    {
      "inputs": [],
      "name": "mintPrice",
      "outputs": [
        {
          "internalType": "uint256",
          "name": "",
          "type": "uint256"
        }
      ],
      "stateMutability": "view",
      "type": "function"
    },
    {
      "inputs": [],
      "name": "name",
      "outputs": [
        {
          "internalType": "string",
          "name": "",
          "type": "string"
        }
      ],
      "stateMutability": "view",
      "type": "function"
    },
    {
      "inputs": [],
      "name": "nextOwnerToExplicitlySet",
      "outputs": [
        {
          "internalType": "uint256",
          "name": "",
          "type": "uint256"
        }
      ],
      "stateMutability": "view",
      "type": "function"
    },
    {
      "inputs": [],
      "name": "owner",
      "outputs": [
        {
          "internalType": "address",
          "name": "",
          "type": "address"
        }
      ],
      "stateMutability": "view",
      "type": "function"
    },
    {
      "inputs": [
        {
          "internalType": "uint256",
          "name": "tokenId",
          "type": "uint256"
        }
      ],
      "name": "ownerOf",
      "outputs": [
        {
          "internalType": "address",
          "name": "",
          "type": "address"
        }
      ],
      "stateMutability": "view",
      "type": "function"
    },
    {
      "inputs": [],
      "name": "raffleBreakPoint1",
      "outputs": [
        {
          "internalType": "uint256",
          "name": "",
          "type": "uint256"
        }
      ],
      "stateMutability": "view",
      "type": "function"
    },
    {
      "inputs": [],
      "name": "raffleBreakPoint2",
      "outputs": [
        {
          "internalType": "uint256",
          "name": "",
          "type": "uint256"
        }
      ],
      "stateMutability": "view",
      "type": "function"
    },
    {
      "inputs": [],
      "name": "raffleBreakPoint3",
      "outputs": [
        {
          "internalType": "uint256",
          "name": "",
          "type": "uint256"
        }
      ],
      "stateMutability": "view",
      "type": "function"
    },
    {
      "inputs": [],
      "name": "raffleMaxMint1",
      "outputs": [
        {
          "internalType": "uint256",
          "name": "",
          "type": "uint256"
        }
      ],
      "stateMutability": "view",
      "type": "function"
    },
    {
      "inputs": [],
      "name": "raffleMaxMint2",
      "outputs": [
        {
          "internalType": "uint256",
          "name": "",
          "type": "uint256"
        }
      ],
      "stateMutability": "view",
      "type": "function"
    },
    {
      "inputs": [],
      "name": "raffleMaxMint3",
      "outputs": [
        {
          "internalType": "uint256",
          "name": "",
          "type": "uint256"
        }
      ],
      "stateMutability": "view",
      "type": "function"
    },
    {
      "inputs": [],
      "name": "raffleMintPrice",
      "outputs": [
        {
          "internalType": "uint256",
          "name": "",
          "type": "uint256"
        }
      ],
      "stateMutability": "view",
      "type": "function"
    },
    {
      "inputs": [],
      "name": "renounceOwnership",
      "outputs": [],
      "stateMutability": "nonpayable",
      "type": "function"
    },
    {
      "inputs": [],
      "name": "root",
      "outputs": [
        {
          "internalType": "bytes32",
          "name": "",
          "type": "bytes32"
        }
      ],
      "stateMutability": "view",
      "type": "function"
    },
    {
      "inputs": [
        {
          "internalType": "address",
          "name": "from",
          "type": "address"
        },
        {
          "internalType": "address",
          "name": "to",
          "type": "address"
        },
        {
          "internalType": "uint256",
          "name": "tokenId",
          "type": "uint256"
        }
      ],
      "name": "safeTransferFrom",
      "outputs": [],
      "stateMutability": "nonpayable",
      "type": "function"
    },
    {
      "inputs": [
        {
          "internalType": "address",
          "name": "from",
          "type": "address"
        },
        {
          "internalType": "address",
          "name": "to",
          "type": "address"
        },
        {
          "internalType": "uint256",
          "name": "tokenId",
          "type": "uint256"
        },
        {
          "internalType": "bytes",
          "name": "_data",
          "type": "bytes"
        }
      ],
      "name": "safeTransferFrom",
      "outputs": [],
      "stateMutability": "nonpayable",
      "type": "function"
    },
    {
      "inputs": [
        {
          "internalType": "address",
          "name": "operator",
          "type": "address"
        },
        {
          "internalType": "bool",
          "name": "approved",
          "type": "bool"
        }
      ],
      "name": "setApprovalForAll",
      "outputs": [],
      "stateMutability": "nonpayable",
      "type": "function"
    },
    {
      "inputs": [
        {
          "internalType": "bytes4",
          "name": "interfaceId",
          "type": "bytes4"
        }
      ],
      "name": "supportsInterface",
      "outputs": [
        {
          "internalType": "bool",
          "name": "",
          "type": "bool"
        }
      ],
      "stateMutability": "view",
      "type": "function"
    },
    {
      "inputs": [],
      "name": "symbol",
      "outputs": [
        {
          "internalType": "string",
          "name": "",
          "type": "string"
        }
      ],
      "stateMutability": "view",
      "type": "function"
    },
    {
      "inputs": [
        {
          "internalType": "uint256",
          "name": "index",
          "type": "uint256"
        }
      ],
      "name": "tokenByIndex",
      "outputs": [
        {
          "internalType": "uint256",
          "name": "",
          "type": "uint256"
        }
      ],
      "stateMutability": "view",
      "type": "function"
    },
    {
      "inputs": [
        {
          "internalType": "address",
          "name": "owner",
          "type": "address"
        },
        {
          "internalType": "uint256",
          "name": "index",
          "type": "uint256"
        }
      ],
      "name": "tokenOfOwnerByIndex",
      "outputs": [
        {
          "internalType": "uint256",
          "name": "",
          "type": "uint256"
        }
      ],
      "stateMutability": "view",
      "type": "function"
    },
    {
      "inputs": [
        {
          "internalType": "uint256",
          "name": "tokenId",
          "type": "uint256"
        }
      ],
      "name": "tokenURI",
      "outputs": [
        {
          "internalType": "string",
          "name": "",
          "type": "string"
        }
      ],
      "stateMutability": "view",
      "type": "function"
    },
    {
      "inputs": [],
      "name": "totalSupply",
      "outputs": [
        {
          "internalType": "uint256",
          "name": "",
          "type": "uint256"
        }
      ],
      "stateMutability": "view",
      "type": "function"
    },
    {
      "inputs": [
        {
          "internalType": "address",
          "name": "from",
          "type": "address"
        },
        {
          "internalType": "address",
          "name": "to",
          "type": "address"
        },
        {
          "internalType": "uint256",
          "name": "tokenId",
          "type": "uint256"
        }
      ],
      "name": "transferFrom",
      "outputs": [],
      "stateMutability": "nonpayable",
      "type": "function"
    },
    {
      "inputs": [
        {
          "internalType": "address",
          "name": "newOwner",
          "type": "address"
        }
      ],
      "name": "transferOwnership",
      "outputs": [],
      "stateMutability": "nonpayable",
      "type": "function"
    },
    {
      "inputs": [
        {
          "internalType": "uint256",
          "name": "_count",
          "type": "uint256"
        }
      ],
      "name": "setMaximumAllowedTokens",
      "outputs": [],
      "stateMutability": "nonpayable",
      "type": "function"
    },
    {
      "inputs": [
        {
          "internalType": "uint256",
          "name": "_count",
          "type": "uint256"
        }
      ],
      "name": "setMaximumAllowedTokensPerWallet",
      "outputs": [],
      "stateMutability": "nonpayable",
      "type": "function"
    },
    {
      "inputs": [
        {
          "internalType": "bool",
          "name": "val",
          "type": "bool"
        }
      ],
      "name": "setMintActive",
      "outputs": [],
      "stateMutability": "nonpayable",
      "type": "function"
    },
    {
      "inputs": [
        {
          "internalType": "uint256",
          "name": "maxMintSupply",
          "type": "uint256"
        }
      ],
      "name": "setMaxMintSupply",
      "outputs": [],
      "stateMutability": "nonpayable",
      "type": "function"
    },
    {
      "inputs": [
        {
          "internalType": "uint256",
          "name": "point",
          "type": "uint256"
        }
      ],
      "name": "setRaffleBreakPoint1",
      "outputs": [],
      "stateMutability": "nonpayable",
      "type": "function"
    },
    {
      "inputs": [
        {
          "internalType": "uint256",
          "name": "point",
          "type": "uint256"
        }
      ],
      "name": "setRaffleBreakPoint2",
      "outputs": [],
      "stateMutability": "nonpayable",
      "type": "function"
    },
    {
      "inputs": [
        {
          "internalType": "uint256",
          "name": "point",
          "type": "uint256"
        }
      ],
      "name": "setRaffleBreakPoint3",
      "outputs": [],
      "stateMutability": "nonpayable",
      "type": "function"
    },
    {
      "inputs": [
        {
          "internalType": "bool",
          "name": "_isRaffleActive",
          "type": "bool"
        }
      ],
      "name": "setRaffleActive1",
      "outputs": [],
      "stateMutability": "nonpayable",
      "type": "function"
    },
    {
      "inputs": [
        {
          "internalType": "bool",
          "name": "_isRaffleActive",
          "type": "bool"
        }
      ],
      "name": "setRaffleActive2",
      "outputs": [],
      "stateMutability": "nonpayable",
      "type": "function"
    },
    {
      "inputs": [
        {
          "internalType": "bool",
          "name": "_isRaffleActive",
          "type": "bool"
        }
      ],
      "name": "setRaffleActive3",
      "outputs": [],
      "stateMutability": "nonpayable",
      "type": "function"
    },
    {
      "inputs": [
        {
          "internalType": "uint256",
          "name": "maxMint",
          "type": "uint256"
        }
      ],
      "name": "setRaffleMaxMint1",
      "outputs": [],
      "stateMutability": "nonpayable",
      "type": "function"
    },
    {
      "inputs": [
        {
          "internalType": "uint256",
          "name": "maxMint",
          "type": "uint256"
        }
      ],
      "name": "setRaffleMaxMint2",
      "outputs": [],
      "stateMutability": "nonpayable",
      "type": "function"
    },
    {
      "inputs": [
        {
          "internalType": "uint256",
          "name": "maxMint",
          "type": "uint256"
        }
      ],
      "name": "setRaffleMaxMint3",
      "outputs": [],
      "stateMutability": "nonpayable",
      "type": "function"
    },
    {
      "inputs": [
        {
          "internalType": "address",
          "name": "addr",
          "type": "address"
        }
      ],
      "name": "checkIfOnAllowList",
      "outputs": [
        {
          "internalType": "bool",
          "name": "",
          "type": "bool"
        }
      ],
      "stateMutability": "view",
      "type": "function"
    },
    {
      "inputs": [
        {
          "internalType": "address[]",
          "name": "addresses",
          "type": "address[]"
        }
      ],
      "name": "removeFromAllowList",
      "outputs": [],
      "stateMutability": "nonpayable",
      "type": "function"
    },
    {
      "inputs": [
        {
          "internalType": "uint256",
          "name": "val",
          "type": "uint256"
        }
      ],
      "name": "setReserveAtATime",
      "outputs": [],
      "stateMutability": "nonpayable",
      "type": "function"
    },
    {
      "inputs": [
        {
          "internalType": "uint256",
          "name": "val",
          "type": "uint256"
        }
      ],
      "name": "setMaxReserve",
      "outputs": [],
      "stateMutability": "nonpayable",
      "type": "function"
    },
    {
      "inputs": [
        {
          "internalType": "uint256",
          "name": "_price",
          "type": "uint256"
        }
      ],
      "name": "setMintPrice",
      "outputs": [],
      "stateMutability": "nonpayable",
      "type": "function"
    },
    {
      "inputs": [
        {
          "internalType": "uint256",
          "name": "_price",
          "type": "uint256"
        }
      ],
      "name": "setRaffleMintPrice",
      "outputs": [],
      "stateMutability": "nonpayable",
      "type": "function"
    },
    {
      "inputs": [
        {
          "internalType": "string",
          "name": "baseURI",
          "type": "string"
        }
      ],
      "name": "setBaseURI",
      "outputs": [],
      "stateMutability": "nonpayable",
      "type": "function"
    },
    {
      "inputs": [],
      "name": "getMaximumAllowedTokens",
      "outputs": [
        {
          "internalType": "uint256",
          "name": "",
          "type": "uint256"
        }
      ],
      "stateMutability": "view",
      "type": "function"
    },
    {
      "inputs": [],
      "name": "getMintPrice",
      "outputs": [
        {
          "internalType": "uint256",
          "name": "",
          "type": "uint256"
        }
      ],
      "stateMutability": "view",
      "type": "function"
    },
    {
      "inputs": [],
      "name": "getRaffleMintPrice",
      "outputs": [
        {
          "internalType": "uint256",
          "name": "",
          "type": "uint256"
        }
      ],
      "stateMutability": "view",
      "type": "function"
    },
    {
      "inputs": [],
      "name": "getIsClosedMintForever",
      "outputs": [
        {
          "internalType": "bool",
          "name": "",
          "type": "bool"
        }
      ],
      "stateMutability": "view",
      "type": "function"
    },
    {
      "inputs": [],
      "name": "setIsClosedMintForever",
      "outputs": [],
      "stateMutability": "nonpayable",
      "type": "function"
    },
    {
      "inputs": [
        {
          "internalType": "bytes32",
          "name": "_root",
          "type": "bytes32"
        }
      ],
      "name": "setRoot",
      "outputs": [],
      "stateMutability": "nonpayable",
      "type": "function"
    },
    {
      "inputs": [],
      "name": "getReserveAtATime",
      "outputs": [
        {
          "internalType": "uint256",
          "name": "",
          "type": "uint256"
        }
      ],
      "stateMutability": "view",
      "type": "function"
    },
    {
      "inputs": [],
      "name": "getTotalSupply",
      "outputs": [
        {
          "internalType": "uint256",
          "name": "",
          "type": "uint256"
        }
      ],
      "stateMutability": "view",
      "type": "function"
    },
    {
      "inputs": [],
      "name": "getRoot",
      "outputs": [
        {
          "internalType": "bytes32",
          "name": "",
          "type": "bytes32"
        }
      ],
      "stateMutability": "view",
      "type": "function"
    },
    {
      "inputs": [],
      "name": "getContractOwner",
      "outputs": [
        {
          "internalType": "address",
          "name": "",
          "type": "address"
        }
      ],
      "stateMutability": "view",
      "type": "function"
    },
    {
      "inputs": [],
      "name": "reserveNft",
      "outputs": [],
      "stateMutability": "nonpayable",
      "type": "function"
    },
    {
      "inputs": [
        {
          "internalType": "address",
          "name": "_walletAddress",
          "type": "address"
        },
        {
          "internalType": "uint256",
          "name": "_count",
          "type": "uint256"
        }
      ],
      "name": "alfaGroupMint",
      "outputs": [],
      "stateMutability": "nonpayable",
      "type": "function"
    },
    {
      "inputs": [
        {
          "internalType": "address",
          "name": "_to",
          "type": "address"
        },
        {
          "internalType": "uint256",
          "name": "_count",
          "type": "uint256"
        }
      ],
      "name": "mint",
      "outputs": [],
      "stateMutability": "payable",
      "type": "function"
    },
    {
      "inputs": [
        {
          "internalType": "uint256",
          "name": "_count",
          "type": "uint256"
        },
        {
          "internalType": "bytes32[]",
          "name": "_proof",
          "type": "bytes32[]"
        }
      ],
      "name": "raffleMint",
      "outputs": [],
      "stateMutability": "payable",
      "type": "function"
    },
    {
      "inputs": [
        {
          "internalType": "address",
          "name": "owner",
          "type": "address"
        }
      ],
      "name": "numberMinted",
      "outputs": [
        {
          "internalType": "uint256",
          "name": "",
          "type": "uint256"
        }
      ],
      "stateMutability": "view",
      "type": "function"
    },
    {
      "inputs": [
        {
          "internalType": "address",
          "name": "_owner",
          "type": "address"
        }
      ],
      "name": "walletOfOwner",
      "outputs": [
        {
          "internalType": "uint256[]",
          "name": "",
          "type": "uint256[]"
        }
      ],
      "stateMutability": "view",
      "type": "function"
    },
    {
      "inputs": [],
      "name": "withdraw",
      "outputs": [],
      "stateMutability": "nonpayable",
      "type": "function"
    }
  ],
  "bytecode": "0x60e060405260008080556007819055670429d069189e0000600a55670214e8348c4f0000600b5561028a600c556103e8600d556105dc600e556032600f5560105560646011556013805464ffffffffff1916905561115c60145560056015819055601655600260175560036018556004601955601a80546001600160a01b031990811673ff1896cfc912ceda37319eba452906dea8cb343c17909155601b8054909116730facde93bb161b90d3cfe13da6787583339cce7c179055348015620000c757600080fd5b506040516200428a3803806200428a833981016040819052620000ea916200031f565b6040518060400160405280600b81526020016a4d335441204d4f47554c5360a81b815250604051806040016040528060028152602001614d4d60f01b815250838360008111620001575760405162461bcd60e51b81526004016200014e9062000450565b60405180910390fd5b600082116200017a5760405162461bcd60e51b81526004016200014e9062000409565b83516200018f90600190602087019062000279565b508251620001a590600290602086019062000279565b5060a09190915260805250620001c69050620001c0620001dc565b620001e0565b620001d18362000232565b5060c05250620004f1565b3390565b600880546001600160a01b038381166001600160a01b0319831681179093556040519116919082907f8be0079c531659141344cd1fd0a4f28419497f9722a3daafe3b4186f6b6457e090600090a35050565b336200023d6200026a565b6001600160a01b0316146200025157600080fd5b80516200026690601290602084019062000279565b5050565b6008546001600160a01b031690565b82805462000287906200049e565b90600052602060002090601f016020900481019282620002ab5760008555620002f6565b82601f10620002c657805160ff1916838001178555620002f6565b82800160010185558215620002f6579182015b82811115620002f6578251825591602001919060010190620002d9565b506200030492915062000308565b5090565b5b8082111562000304576000815560010162000309565b60008060006060848603121562000334578283fd5b83516001600160401b03808211156200034b578485fd5b818601915086601f8301126200035f578485fd5b815181811115620003745762000374620004db565b604051601f8201601f19908116603f011681019083821181831017156200039f576200039f620004db565b81604052828152602093508984848701011115620003bb578788fd5b8791505b82821015620003de5784820184015181830185015290830190620003bf565b82821115620003ef57878484830101525b928801516040909801519299979850919695505050505050565b60208082526027908201527f455243373231413a206d61782062617463682073697a65206d757374206265206040820152666e6f6e7a65726f60c81b606082015260800190565b6020808252602e908201527f455243373231413a20636f6c6c656374696f6e206d757374206861766520612060408201526d6e6f6e7a65726f20737570706c7960901b606082015260800190565b600281046001821680620004b357607f821691505b60208210811415620004d557634e487b7160e01b600052602260045260246000fd5b50919050565b634e487b7160e01b600052604160045260246000fd5b60805160a05160c051613d5762000533600039600081816112d20152611b370152600081816125420152818161256c0152612975015260005050613d576000f3fe60806040526004361061043c5760003560e01c80637890b2c911610234578063c4e41b221161012e578063ea6eb836116100b6578063f2fde38b1161007a578063f2fde38b14610bbd578063f4a0a52814610bdd578063f4c21dbc14610bfd578063f53beee114610c12578063f6c9d9e314610c325761043c565b8063ea6eb83614610b33578063ebf0c71714610b53578063ecfdeb4014610b68578063ee1cc94414610b88578063f132dc2914610ba85761043c565b8063d8a5a68e116100fd578063d8a5a68e14610a9e578063dab5f34014610abe578063dc33e68114610ade578063e7b62d9614610afe578063e985e9c514610b135761043c565b8063c4e41b2214610a3f578063c87b56dd14610a54578063cadf881814610a74578063d7224ba014610a895761043c565b80639cf24f18116101bc578063ad06d75811610180578063ad06d758146109b5578063b80a07e7146109ca578063b88d4fde146109df578063bc2ec854146109ff578063c3ac4feb14610a1f5761043c565b80639cf24f1814610920578063a22cb46514610940578063a51312c814610960578063a5166c1b14610980578063a7f93ebd146109a05761043c565b80638da5cb5b116102035780638da5cb5b146108b7578063932ecebc146108cc57806395d89b41146108e15780639a3bf728146108f65780639cb270001461090b5761043c565b80637890b2c91461085a5780637d26f4701461086d5780638bc35c2f146108825780638c595fe7146108975761043c565b8063428b0e84116103455780635b92ac0d116102cd57806370a082311161029157806370a08231146107db578063715018a6146107fb5780637165ebfc1461081057806371e3500c146108255780637389fbb71461083a5761043c565b80635b92ac0d146107675780635ca1e1651461077c5780636352211e146107915780636817c76c146107b15780636c509428146107c65761043c565b80634d0550de116103145780634d0550de146106d25780634dfea627146106e75780634f6ccce71461070757806355f804b31461072757806356a87caa146107475761043c565b8063428b0e8414610666578063438b63001461067b578063442890d5146106a857806346c226c1146106bd5761043c565b80632c1205f4116103c85780633ccfd60b116103975780633ccfd60b146105e95780633e6e093a146105fe5780633e8f09871461061e57806340c10f191461063357806342842e0e146106465761043c565b80632c1205f4146105695780632d4089cd146105895780632f745c59146105a957806330a36c4c146105c95761043c565b8063081812fc1161040f578063081812fc146104d0578063095ea7b3146104fd57806318160ddd1461051f57806323b872dd146105345780632992b0b0146105545761043c565b806301ffc9a71461044157806305a2e3411461047757806306fdde031461048c57806307bfac6d146104ae575b600080fd5b34801561044d57600080fd5b5061046161045c366004612f41565b610c52565b60405161046e919061317d565b60405180910390f35b34801561048357600080fd5b50610461610cb5565b34801561049857600080fd5b506104a1610cc4565b60405161046e9190613191565b3480156104ba57600080fd5b506104c3610d56565b60405161046e9190613188565b3480156104dc57600080fd5b506104f06104eb366004612f29565b610d5c565b60405161046e91906130e8565b34801561050957600080fd5b5061051d610518366004612e78565b610da8565b005b34801561052b57600080fd5b506104c3610e41565b34801561054057600080fd5b5061051d61054f366004612d9c565b610e47565b34801561056057600080fd5b506104c3610e52565b34801561057557600080fd5b50610461610584366004612d50565b610e58565b34801561059557600080fd5b5061051d6105a4366004612e78565b610e76565b3480156105b557600080fd5b506104c36105c4366004612e78565b610efd565b3480156105d557600080fd5b5061051d6105e4366004612f29565b610ff8565b3480156105f557600080fd5b5061051d611019565b34801561060a57600080fd5b5061051d610619366004612f0f565b61112d565b34801561062a57600080fd5b506104c3611165565b61051d610641366004612e78565b61116b565b34801561065257600080fd5b5061051d610661366004612d9c565b61137b565b34801561067257600080fd5b506104c3611396565b34801561068757600080fd5b5061069b610696366004612d50565b61139c565b60405161046e9190613139565b3480156106b457600080fd5b506104f0611459565b3480156106c957600080fd5b506104c3611468565b3480156106de57600080fd5b506104c361146e565b3480156106f357600080fd5b5061051d610702366004612f29565b611474565b34801561071357600080fd5b506104c3610722366004612f29565b611495565b34801561073357600080fd5b5061051d610742366004612f79565b6114c1565b34801561075357600080fd5b5061051d610762366004612f29565b6114f0565b34801561077357600080fd5b50610461611511565b34801561078857600080fd5b506104c3611521565b34801561079d57600080fd5b506104f06107ac366004612f29565b611527565b3480156107bd57600080fd5b506104c3611539565b3480156107d257600080fd5b5061046161153f565b3480156107e757600080fd5b506104c36107f6366004612d50565b611548565b34801561080757600080fd5b5061051d611595565b34801561081c57600080fd5b506104616115e0565b34801561083157600080fd5b5061051d6115ee565b34801561084657600080fd5b5061051d610855366004612f29565b6116b4565b61051d610868366004612fbe565b6116d5565b34801561087957600080fd5b50610461611b24565b34801561088e57600080fd5b506104c3611b35565b3480156108a357600080fd5b5061051d6108b2366004612f0f565b611b59565b3480156108c357600080fd5b506104f0611b8f565b3480156108d857600080fd5b5061051d611b9e565b3480156108ed57600080fd5b506104a1611bd1565b34801561090257600080fd5b506104c3611be0565b34801561091757600080fd5b506104c3611be6565b34801561092c57600080fd5b5061051d61093b366004612f29565b611bec565b34801561094c57600080fd5b5061051d61095b366004612e4f565b611c0d565b34801561096c57600080fd5b5061051d61097b366004612ea1565b611cdb565b34801561098c57600080fd5b5061051d61099b366004612f29565b611dd5565b3480156109ac57600080fd5b506104c3611df6565b3480156109c157600080fd5b506104c3611dfc565b3480156109d657600080fd5b506104c3611e21565b3480156109eb57600080fd5b5061051d6109fa366004612dd7565b611e27565b348015610a0b57600080fd5b5061051d610a1a366004612f29565b611e5a565b348015610a2b57600080fd5b5061051d610a3a366004612f29565b611e7b565b348015610a4b57600080fd5b506104c3611e9c565b348015610a6057600080fd5b506104a1610a6f366004612f29565b611ea6565b348015610a8057600080fd5b506104c3611f29565b348015610a9557600080fd5b506104c3611f2f565b348015610aaa57600080fd5b5061051d610ab9366004612f29565b611f35565b348015610aca57600080fd5b5061051d610ad9366004612f29565b611f56565b348015610aea57600080fd5b506104c3610af9366004612d50565b611f77565b348015610b0a57600080fd5b506104c3611f82565b348015610b1f57600080fd5b50610461610b2e366004612d6a565b611f88565b348015610b3f57600080fd5b5061051d610b4e366004612f29565b611fb6565b348015610b5f57600080fd5b506104c3611fd7565b348015610b7457600080fd5b5061051d610b83366004612f29565b611fdd565b348015610b9457600080fd5b5061051d610ba3366004612f0f565b611ffe565b348015610bb457600080fd5b5061046161206c565b348015610bc957600080fd5b5061051d610bd8366004612d50565b61207d565b348015610be957600080fd5b5061051d610bf8366004612f29565b6120ee565b348015610c0957600080fd5b506104c361210f565b348015610c1e57600080fd5b5061051d610c2d366004612f0f565b612115565b348015610c3e57600080fd5b5061051d610c4d366004612f29565b612144565b60006001600160e01b031982166380ac58cd60e01b1480610c8357506001600160e01b03198216635b5e139f60e01b145b80610c9e57506001600160e01b0319821663780e9d6360e01b145b80610cad5750610cad82612165565b90505b919050565b60135462010000900460ff1681565b606060018054610cd390613c5f565b80601f0160208091040260200160405190810160405280929190818152602001828054610cff90613c5f565b8015610d4c5780601f10610d2157610100808354040283529160200191610d4c565b820191906000526020600020905b815481529060010190602001808311610d2f57829003601f168201915b5050505050905090565b60185481565b6000610d678261217e565b610d8c5760405162461bcd60e51b8152600401610d8390613ab1565b60405180910390fd5b506000908152600560205260409020546001600160a01b031690565b6000610db382611527565b9050806001600160a01b0316836001600160a01b03161415610de75760405162461bcd60e51b8152600401610d83906137b0565b806001600160a01b0316610df9612185565b6001600160a01b03161480610e155750610e1581610b2e612185565b610e315760405162461bcd60e51b8152600401610d83906134c8565b610e3c838383612189565b505050565b60005490565b610e3c8383836121e5565b600b5490565b6001600160a01b03166000908152601c602052604090205460ff1690565b33610e7f611b8f565b6001600160a01b031614610e9257600080fd5b60145481610e9e610e41565b610ea89190613b92565b1115610ec65760405162461bcd60e51b8152600401610d8390613780565b601454610ed1610e41565b1115610eef5760405162461bcd60e51b8152600401610d8390613942565b610ef982826124f7565b5050565b6000610f0883611548565b8210610f265760405162461bcd60e51b8152600401610d83906131a4565b6000610f30610e41565b905060008060005b83811015610fd9576000818152600360209081526040918290208251808401909352546001600160a01b038116808452600160a01b9091046001600160401b03169183019190915215610f8a57805192505b876001600160a01b0316836001600160a01b03161415610fc65786841415610fb857509350610ff292505050565b83610fc281613c9a565b9450505b5080610fd181613c9a565b915050610f38565b5060405162461bcd60e51b8152600401610d83906139a6565b92915050565b33611001611b8f565b6001600160a01b03161461101457600080fd5b601855565b33611022611b8f565b6001600160a01b03161461103557600080fd5b601a5447906001600160a01b03166108fc61271061105584611388613bbe565b61105f9190613baa565b6040518115909202916000818181858888f19350505050158015611087573d6000803e3d6000fd5b50601b546001600160a01b03166108fc6127106110a684611388613bbe565b6110b09190613baa565b6040518115909202916000818181858888f193505050501580156110d8573d6000803e3d6000fd5b506110e1611b8f565b6001600160a01b03166108fc6127106110fb846000613bbe565b6111059190613baa565b6040518115909202916000818181858888f19350505050158015610ef9573d6000803e3d6000fd5b33611136611b8f565b6001600160a01b03161461114957600080fd5b60138054911515620100000262ff000019909216919091179055565b600b5481565b601454611176610e41565b11156111945760405162461bcd60e51b8152600401610d839061338b565b3233146111b35760405162461bcd60e51b8152600401610d839061344a565b6111bb611b8f565b6001600160a01b0316336001600160a01b0316146111fc576013546301000000900460ff166111fc5760405162461bcd60e51b8152600401610d839061321d565b611204611b8f565b6001600160a01b0316826001600160a01b031614611251576016548161122984611548565b6112339190613b92565b11156112515760405162461bcd60e51b8152600401610d8390613311565b6014548161125d610e41565b6112679190613b92565b11156112855760405162461bcd60e51b8152600401610d8390613780565b601454611290610e41565b11156112ae5760405162461bcd60e51b8152600401610d8390613942565b6015548111156112d05760405162461bcd60e51b8152600401610d8390613749565b7f0000000000000000000000000000000000000000000000000000000000000000816112fb33611f77565b6113059190613b92565b11156113235760405162461bcd60e51b8152600401610d8390613912565b601354640100000000900460ff161561134e5760405162461bcd60e51b8152600401610d83906132e4565b80600a5461135c9190613bbe565b341015610eef5760405162461bcd60e51b8152600401610d839061396f565b610e3c83838360405180602001604052806000815250611e27565b60175481565b606060006113a983611548565b90506000816001600160401b038111156113d357634e487b7160e01b600052604160045260246000fd5b6040519080825280602002602001820160405280156113fc578160200160208202803683370190505b50905060005b82811015611451576114148582610efd565b82828151811061143457634e487b7160e01b600052603260045260246000fd5b60209081029190910101528061144981613c9a565b915050611402565b509392505050565b6000611463611b8f565b905090565b600c5481565b60145481565b3361147d611b8f565b6001600160a01b03161461149057600080fd5b601555565b600061149f610e41565b82106114bd5760405162461bcd60e51b8152600401610d8390613348565b5090565b336114ca611b8f565b6001600160a01b0316146114dd57600080fd5b8051610ef9906012906020840190612c26565b336114f9611b8f565b6001600160a01b03161461150c57600080fd5b601155565b6013546301000000900460ff1681565b60095490565b600061153282612511565b5192915050565b600a5481565b60135460ff1681565b60006001600160a01b0382166115705760405162461bcd60e51b8152600401610d8390613574565b506001600160a01b03166000908152600460205260409020546001600160801b031690565b61159d612185565b6001600160a01b03166115ae611b8f565b6001600160a01b0316146115d45760405162461bcd60e51b8152600401610d839061363c565b6115de6000612623565b565b601354610100900460ff1681565b336115f7611b8f565b6001600160a01b03161461160a57600080fd5b601154601054111561162e5760405162461bcd60e51b8152600401610d83906131e6565b601454600f5461163c610e41565b6116469190613b92565b11156116645760405162461bcd60e51b8152600401610d8390613780565b60145461166f610e41565b111561168d5760405162461bcd60e51b8152600401610d8390613942565b600f54601060008282546116a19190613b92565b925050819055506115de33600f546124f7565b336116bd611b8f565b6001600160a01b0316146116d057600080fd5b601455565b6014546116e0610e41565b11156116fe5760405162461bcd60e51b8152600401610d839061338b565b600033604051602001611711919061309c565b6040516020818303038152906040528051906020012090506000611733610e41565b60095490915061174590849084612675565b6117615760405162461bcd60e51b8152600401610d83906138aa565b60145461176c610e41565b106117895760405162461bcd60e51b8152600401610d8390613a7a565b83600b546117979190613bbe565b3410156117b65760405162461bcd60e51b8152600401610d839061396f565b601354640100000000900460ff16156117e15760405162461bcd60e51b8152600401610d83906132e4565b60135460ff161580156117fc5750601354610100900460ff16155b8015611811575060135462010000900460ff16155b1561182e5760405162461bcd60e51b8152600401610d83906137f2565b60135460ff16156118ef5760175484111561185b5760405162461bcd60e51b8152600401610d8390613525565b600c54611866610e41565b6118709086613b92565b111561188e5760405162461bcd60e51b8152600401610d8390613481565b601754336000908152601d60205260409020546118ac908690613b92565b11156118ca5760405162461bcd60e51b8152600401610d83906139f4565b336000908152601d6020526040812080548692906118e9908490613b92565b90915550505b601354610100900460ff16156119b5576018548411156119215760405162461bcd60e51b8152600401610d8390613525565b600d5461192c610e41565b6119369086613b92565b11156119545760405162461bcd60e51b8152600401610d8390613481565b601854336000908152601e6020526040902054611972908690613b92565b11156119905760405162461bcd60e51b8152600401610d83906139f4565b336000908152601e6020526040812080548692906119af908490613b92565b90915550505b60135462010000900460ff1615611a7c576019548411156119e85760405162461bcd60e51b8152600401610d8390613525565b600e546119f3610e41565b6119fd9086613b92565b1115611a1b5760405162461bcd60e51b8152600401610d8390613481565b601954336000908152601f6020526040902054611a39908690613b92565b1115611a575760405162461bcd60e51b8152600401610d83906139f4565b336000908152601f602052604081208054869290611a76908490613b92565b90915550505b600c5484611a88610e41565b611a929190613b92565b1415611ab3576013805460ff1916905567026db992a3b18000600b55611b14565b600d5484611abf610e41565b611ac99190613b92565b1415611aeb576013805461ff00191690556702c68af0bb140000600b55611b14565b600e5484611af7610e41565b611b019190613b92565b1415611b14576013805462ff0000191690555b611b1e33856124f7565b50505050565b601354640100000000900460ff1681565b7f000000000000000000000000000000000000000000000000000000000000000081565b33611b62611b8f565b6001600160a01b031614611b7557600080fd5b601380549115156101000261ff0019909216919091179055565b6008546001600160a01b031690565b33611ba7611b8f565b6001600160a01b031614611bba57600080fd5b6013805464ff000000001916640100000000179055565b606060028054610cd390613c5f565b60155481565b60195481565b33611bf5611b8f565b6001600160a01b031614611c0857600080fd5b601755565b611c15612185565b6001600160a01b0316826001600160a01b03161415611c465760405162461bcd60e51b8152600401610d83906136c0565b8060066000611c53612185565b6001600160a01b03908116825260208083019390935260409182016000908120918716808252919093529120805460ff191692151592909217909155611c97612185565b6001600160a01b03167f17307eab39ab6107e8899845ad3d59bd9653f200f220920489ca2b5937696c3183604051611ccf919061317d565b60405180910390a35050565b33611ce4611b8f565b6001600160a01b031614611cf757600080fd5b60005b81811015610e3c576000838383818110611d2457634e487b7160e01b600052603260045260246000fd5b9050602002016020810190611d399190612d50565b6001600160a01b03161415611d605760405162461bcd60e51b8152600401610d8390613605565b6000601c6000858585818110611d8657634e487b7160e01b600052603260045260246000fd5b9050602002016020810190611d9b9190612d50565b6001600160a01b031681526020810191909152604001600020805460ff191691151591909117905580611dcd81613c9a565b915050611cfa565b33611dde611b8f565b6001600160a01b031614611df157600080fd5b600c55565b600a5490565b600033611e07611b8f565b6001600160a01b031614611e1a57600080fd5b5060155490565b600e5481565b611e328484846121e5565b611e3e8484848461268b565b611b1e5760405162461bcd60e51b8152600401610d8390613820565b33611e63611b8f565b6001600160a01b031614611e7657600080fd5b601955565b33611e84611b8f565b6001600160a01b031614611e9757600080fd5b600b55565b6000611463610e41565b6060611eb18261217e565b611ecd5760405162461bcd60e51b8152600401610d8390613671565b6000611ed76127a7565b90506000815111611ef75760405180602001604052806000815250611f22565b80611f01846127b6565b604051602001611f129291906130b9565b6040516020818303038152906040525b9392505050565b60165481565b60075481565b33611f3e611b8f565b6001600160a01b031614611f5157600080fd5b600d55565b33611f5f611b8f565b6001600160a01b031614611f7257600080fd5b600955565b6000610cad826128d0565b600f5490565b6001600160a01b03918216600090815260066020908152604080832093909416825291909152205460ff1690565b33611fbf611b8f565b6001600160a01b031614611fd257600080fd5b601655565b60095481565b33611fe6611b8f565b6001600160a01b031614611ff957600080fd5b600e55565b33612007611b8f565b6001600160a01b03161461201a57600080fd5b6013805463ff00000019166301000000831515021790556040517f58655b75d3df612fe99ead00dbf0812d415d35078fe06217a94c0818bb13967f9061206190839061317d565b60405180910390a150565b601354640100000000900460ff1690565b612085612185565b6001600160a01b0316612096611b8f565b6001600160a01b0316146120bc5760405162461bcd60e51b8152600401610d839061363c565b6001600160a01b0381166120e25760405162461bcd60e51b8152600401610d8390613254565b6120eb81612623565b50565b336120f7611b8f565b6001600160a01b03161461210a57600080fd5b600a55565b600d5481565b3361211e611b8f565b6001600160a01b03161461213157600080fd5b6013805460ff1916911515919091179055565b3361214d611b8f565b6001600160a01b03161461216057600080fd5b600f55565b6001600160e01b031981166301ffc9a760e01b14919050565b6000541190565b3390565b60008281526005602052604080822080546001600160a01b0319166001600160a01b0387811691821790925591518593918516917f8c5be1e5ebec7d5bd14f71427d1e84f3dd0314c0f7b2291e5b200ac8c7c3b92591a4505050565b60006121f082612511565b9050600081600001516001600160a01b031661220a612185565b6001600160a01b0316148061223f5750612222612185565b6001600160a01b031661223484610d5c565b6001600160a01b0316145b806122535750815161225390610b2e612185565b9050806122725760405162461bcd60e51b8152600401610d83906136f7565b846001600160a01b031682600001516001600160a01b0316146122a75760405162461bcd60e51b8152600401610d83906135bf565b6001600160a01b0384166122cd5760405162461bcd60e51b8152600401610d83906133b4565b6122da8585856001611b1e565b6122ea6000848460000151612189565b6001600160a01b038516600090815260046020526040812080546001929061231c9084906001600160801b0316613bdd565b82546101009290920a6001600160801b038181021990931691831602179091556001600160a01b0386166000908152600460205260408120805460019450909261236891859116613b70565b82546001600160801b039182166101009390930a9283029190920219909116179055506040805180820182526001600160a01b0380871682526001600160401b03428116602080850191825260008981526003909152948520935184549151909216600160a01b0267ffffffffffffffff60a01b19929093166001600160a01b031990911617161790556123fd846001613b92565b6000818152600360205260409020549091506001600160a01b03166124a1576124258161217e565b156124a15760408051808201825284516001600160a01b0390811682526020808701516001600160401b0390811682850190815260008781526003909352949091209251835494516001600160a01b031990951692169190911767ffffffffffffffff60a01b1916600160a01b93909116929092029190911790555b83856001600160a01b0316876001600160a01b03167fddf252ad1be2c89b69c2b068fc378daa952ba7f163c4a11628f55a4df523b3ef60405160405180910390a46124ef8686866001611b1e565b505050505050565b610ef9828260405180602001604052806000815250612924565b612519612ca6565b6125228261217e565b61253e5760405162461bcd60e51b8152600401610d839061329a565b60007f0000000000000000000000000000000000000000000000000000000000000000831061259f576125917f000000000000000000000000000000000000000000000000000000000000000084613c05565b61259c906001613b92565b90505b825b81811061260a576000818152600360209081526040918290208251808401909352546001600160a01b038116808452600160a01b9091046001600160401b031691830191909152156125f7579250610cb0915050565b508061260281613c48565b9150506125a1565b5060405162461bcd60e51b8152600401610d8390613a2b565b600880546001600160a01b038381166001600160a01b0319831681179093556040519116919082907f8be0079c531659141344cd1fd0a4f28419497f9722a3daafe3b4186f6b6457e090600090a35050565b6000826126828584612b96565b14949350505050565b600061269f846001600160a01b0316612c08565b1561279b57836001600160a01b031663150b7a026126bb612185565b8786866040518563ffffffff1660e01b81526004016126dd94939291906130fc565b602060405180830381600087803b1580156126f757600080fd5b505af1925050508015612727575060408051601f3d908101601f1916820190925261272491810190612f5d565b60015b612781573d808015612755576040519150601f19603f3d011682016040523d82523d6000602084013e61275a565b606091505b5080516127795760405162461bcd60e51b8152600401610d8390613820565b805181602001fd5b6001600160e01b031916630a85bd0160e11b14905061279f565b5060015b949350505050565b606060128054610cd390613c5f565b6060816127db57506040805180820190915260018152600360fc1b6020820152610cb0565b8160005b811561280557806127ef81613c9a565b91506127fe9050600a83613baa565b91506127df565b6000816001600160401b0381111561282d57634e487b7160e01b600052604160045260246000fd5b6040519080825280601f01601f191660200182016040528015612857576020820181803683370190505b5090505b841561279f5761286c600183613c05565b9150612879600a86613cb5565b612884906030613b92565b60f81b8183815181106128a757634e487b7160e01b600052603260045260246000fd5b60200101906001600160f81b031916908160001a9053506128c9600a86613baa565b945061285b565b60006001600160a01b0382166128f85760405162461bcd60e51b8152600401610d83906133f9565b506001600160a01b0316600090815260046020526040902054600160801b90046001600160801b031690565b6000546001600160a01b03841661294d5760405162461bcd60e51b8152600401610d83906138d1565b6129568161217e565b156129735760405162461bcd60e51b8152600401610d8390613873565b7f00000000000000000000000000000000000000000000000000000000000000008311156129b35760405162461bcd60e51b8152600401610d8390613afe565b6129c06000858386611b1e565b6001600160a01b0384166000908152600460209081526040918290208251808401845290546001600160801b038082168352600160801b9091041691810191909152815180830190925280519091908190612a1c908790613b70565b6001600160801b03168152602001858360200151612a3a9190613b70565b6001600160801b039081169091526001600160a01b03808816600081815260046020908152604080832087518154988401518816600160801b029088166fffffffffffffffffffffffffffffffff199099169890981790961696909617909455845180860186529182526001600160401b034281168386019081528883526003909552948120915182549451909516600160a01b0267ffffffffffffffff60a01b19959093166001600160a01b031990941693909317939093161790915582905b85811015612b845760405182906001600160a01b038916906000907fddf252ad1be2c89b69c2b068fc378daa952ba7f163c4a11628f55a4df523b3ef908290a4612b48600088848861268b565b612b645760405162461bcd60e51b8152600401610d8390613820565b81612b6e81613c9a565b9250508080612b7c90613c9a565b915050612afb565b5060008181556124ef90878588611b1e565b600081815b8451811015611451576000858281518110612bc657634e487b7160e01b600052603260045260246000fd5b60200260200101519050808311612be857612be18382612c17565b9250612bf5565b612bf28184612c17565b92505b5080612c0081613c9a565b915050612b9b565b6001600160a01b03163b151590565b60009182526020526040902090565b828054612c3290613c5f565b90600052602060002090601f016020900481019282612c545760008555612c9a565b82601f10612c6d57805160ff1916838001178555612c9a565b82800160010185558215612c9a579182015b82811115612c9a578251825591602001919060010190612c7f565b506114bd929150612cbd565b604080518082019091526000808252602082015290565b5b808211156114bd5760008155600101612cbe565b60006001600160401b03831115612ceb57612ceb613cf5565b612cfe601f8401601f1916602001613b40565b9050828152838383011115612d1257600080fd5b828260208301376000602084830101529392505050565b80356001600160a01b0381168114610cb057600080fd5b80358015158114610cb057600080fd5b600060208284031215612d61578081fd5b611f2282612d29565b60008060408385031215612d7c578081fd5b612d8583612d29565b9150612d9360208401612d29565b90509250929050565b600080600060608486031215612db0578081fd5b612db984612d29565b9250612dc760208501612d29565b9150604084013590509250925092565b60008060008060808587031215612dec578081fd5b612df585612d29565b9350612e0360208601612d29565b92506040850135915060608501356001600160401b03811115612e24578182fd5b8501601f81018713612e34578182fd5b612e4387823560208401612cd2565b91505092959194509250565b60008060408385031215612e61578182fd5b612e6a83612d29565b9150612d9360208401612d40565b60008060408385031215612e8a578182fd5b612e9383612d29565b946020939093013593505050565b60008060208385031215612eb3578182fd5b82356001600160401b0380821115612ec9578384fd5b818501915085601f830112612edc578384fd5b813581811115612eea578485fd5b8660208083028501011115612efd578485fd5b60209290920196919550909350505050565b600060208284031215612f20578081fd5b611f2282612d40565b600060208284031215612f3a578081fd5b5035919050565b600060208284031215612f52578081fd5b8135611f2281613d0b565b600060208284031215612f6e578081fd5b8151611f2281613d0b565b600060208284031215612f8a578081fd5b81356001600160401b03811115612f9f578182fd5b8201601f81018413612faf578182fd5b61279f84823560208401612cd2565b60008060408385031215612fd0578182fd5b823591506020808401356001600160401b0380821115612fee578384fd5b818601915086601f830112613001578384fd5b81358181111561301357613013613cf5565b8381029150613023848301613b40565b8181528481019084860184860187018b101561303d578788fd5b8795505b8386101561305f578035835260019590950194918601918601613041565b508096505050505050509250929050565b60008151808452613088816020860160208601613c1c565b601f01601f19169290920160200192915050565b60609190911b6bffffffffffffffffffffffff1916815260140190565b600083516130cb818460208801613c1c565b8351908301906130df818360208801613c1c565b01949350505050565b6001600160a01b0391909116815260200190565b6001600160a01b038581168252841660208201526040810183905260806060820181905260009061312f90830184613070565b9695505050505050565b6020808252825182820181905260009190848201906040850190845b8181101561317157835183529284019291840191600101613155565b50909695505050505050565b901515815260200190565b90815260200190565b600060208252611f226020830184613070565b60208082526022908201527f455243373231413a206f776e657220696e646578206f7574206f6620626f756e604082015261647360f01b606082015260800190565b6020808252601b908201527f4d61782052657365727665732074616b656e20616c7265616479210000000000604082015260600190565b6020808252601d908201527f53616c65206973206e6f74206163746976652063757272656e746c792e000000604082015260600190565b60208082526026908201527f4f776e61626c653a206e6577206f776e657220697320746865207a65726f206160408201526564647265737360d01b606082015260800190565b6020808252602a908201527f455243373231413a206f776e657220717565727920666f72206e6f6e657869736040820152693a32b73a103a37b5b2b760b11b606082015260800190565b60208082526013908201527226b4b73a1021b637b9b2b2102337b932bb32b960691b604082015260600190565b60208082526018908201527f4d617820686f6c64696e672063617020726561636865642e0000000000000000604082015260600190565b60208082526023908201527f455243373231413a20676c6f62616c20696e646578206f7574206f6620626f756040820152626e647360e81b606082015260800190565b6020808252600f908201526e29b0b632903430b99032b73232b21760891b604082015260600190565b60208082526025908201527f455243373231413a207472616e7366657220746f20746865207a65726f206164604082015264647265737360d81b606082015260800190565b60208082526031908201527f455243373231413a206e756d626572206d696e74656420717565727920666f7260408201527020746865207a65726f206164647265737360781b606082015260800190565b6020808252601e908201527f5468652063616c6c657220697320616e6f7468657220636f6e74726163740000604082015260600190565b60208082526027908201527f4e6f204e46547320617265206c65667420746f206d696e7420666f72207468696040820152667320737461676560c81b606082015260800190565b60208082526039908201527f455243373231413a20617070726f76652063616c6c6572206973206e6f74206f60408201527f776e6572206e6f7220617070726f76656420666f7220616c6c00000000000000606082015260800190565b6020808252602f908201527f43616e6e6f742070757263686173652074686973206d616e7920746f6b656e7360408201526e20666f72207468697320737461676560881b606082015260800190565b6020808252602b908201527f455243373231413a2062616c616e636520717565727920666f7220746865207a60408201526a65726f206164647265737360a81b606082015260800190565b60208082526026908201527f455243373231413a207472616e736665722066726f6d20696e636f72726563746040820152651037bbb732b960d11b606082015260800190565b60208082526018908201527f43616e2774206164642061206e756c6c20616464726573730000000000000000604082015260600190565b6020808252818101527f4f776e61626c653a2063616c6c6572206973206e6f7420746865206f776e6572604082015260600190565b6020808252602f908201527f4552433732314d657461646174613a2055524920717565727920666f72206e6f60408201526e3732bc34b9ba32b73a103a37b5b2b760891b606082015260800190565b6020808252601a908201527f455243373231413a20617070726f766520746f2063616c6c6572000000000000604082015260600190565b60208082526032908201527f455243373231413a207472616e736665722063616c6c6572206973206e6f74206040820152711bdddb995c881b9bdc88185c1c1c9bdd995960721b606082015260800190565b6020808252601e908201527f45786365656473206d6178696d756d20616c6c6f77656420746f6b656e730000604082015260600190565b6020808252601690820152752a37ba30b61039bab838363c9032bc31b2b2b232b21760511b604082015260600190565b60208082526022908201527f455243373231413a20617070726f76616c20746f2063757272656e74206f776e60408201526132b960f11b606082015260800190565b602080825260149082015273526166666c65206973206e6f742061637469766560601b604082015260600190565b60208082526033908201527f455243373231413a207472616e7366657220746f206e6f6e204552433732315260408201527232b1b2b4bb32b91034b6b83632b6b2b73a32b960691b606082015260800190565b6020808252601d908201527f455243373231413a20746f6b656e20616c7265616479206d696e746564000000604082015260600190565b6020808252600d908201526c34b73b30b634b210383937b7b360991b604082015260600190565b60208082526021908201527f455243373231413a206d696e7420746f20746865207a65726f206164647265736040820152607360f81b606082015260800190565b60208082526016908201527563616e206e6f74206d696e742074686973206d616e7960501b604082015260600190565b6020808252601390820152722a37ba30b61039bab838363c9039b832b73a1760691b604082015260600190565b6020808252601b908201527f496e7375666669656e742045544820616d6f756e742073656e742e0000000000604082015260600190565b6020808252602e908201527f455243373231413a20756e61626c6520746f2067657420746f6b656e206f662060408201526d0deeedccae440c4f240d2dcc8caf60931b606082015260800190565b6020808252601c908201527f50757263686173652065786365656473206d617820616c6c6f77656400000000604082015260600190565b6020808252602f908201527f455243373231413a20756e61626c6520746f2064657465726d696e652074686560408201526e1037bbb732b91037b3103a37b5b2b760891b606082015260800190565b6020808252601b908201527f416c6c20746f6b656e732068617665206265656e206d696e7465640000000000604082015260600190565b6020808252602d908201527f455243373231413a20617070726f76656420717565727920666f72206e6f6e6560408201526c3c34b9ba32b73a103a37b5b2b760991b606082015260800190565b60208082526022908201527f455243373231413a207175616e7469747920746f206d696e7420746f6f2068696040820152610ced60f31b606082015260800190565b604051601f8201601f191681016001600160401b0381118282101715613b6857613b68613cf5565b604052919050565b60006001600160801b038083168185168083038211156130df576130df613cc9565b60008219821115613ba557613ba5613cc9565b500190565b600082613bb957613bb9613cdf565b500490565b6000816000190483118215151615613bd857613bd8613cc9565b500290565b60006001600160801b0383811690831681811015613bfd57613bfd613cc9565b039392505050565b600082821015613c1757613c17613cc9565b500390565b60005b83811015613c37578181015183820152602001613c1f565b83811115611b1e5750506000910152565b600081613c5757613c57613cc9565b506000190190565b600281046001821680613c7357607f821691505b60208210811415613c9457634e487b7160e01b600052602260045260246000fd5b50919050565b6000600019821415613cae57613cae613cc9565b5060010190565b600082613cc457613cc4613cdf565b500690565b634e487b7160e01b600052601160045260246000fd5b634e487b7160e01b600052601260045260246000fd5b634e487b7160e01b600052604160045260246000fd5b6001600160e01b0319811681146120eb57600080fdfea26469706673582212200f87799fdfbdce2d7feb06dfeefebf95f7d797ef3adbed29f23c4d8f662effd064736f6c63430008010033",
  "immutableReferences": {
    "989": [
      {
        "length": 32,
        "start": 9538
      },
      {
        "length": 32,
        "start": 9580
      },
      {
        "length": 32,
        "start": 10613
      }
    ],
    "2216": [
      {
        "length": 32,
        "start": 4818
      },
      {
        "length": 32,
        "start": 6967
      }
    ]
  },
  "source": "// SPDX-License-Identifier: MIT\n// Made by: NFT Stack\n//          https://nftstack.info\n//\n\npragma solidity ^0.8.1;\n\nimport \"@openzeppelin/contracts/access/Ownable.sol\";\nimport \"@openzeppelin/contracts/utils/cryptography/MerkleProof.sol\";\nimport \"./ERC721A.sol\";\n\ncontract M3taMoguls is ERC721A, Ownable {\n  using MerkleProof for bytes32[];\n\n  bytes32 public root;\n  uint256 public mintPrice = 0.3 ether;\n  uint256 public raffleMintPrice = 0.15 ether;\n  uint256 public raffleBreakPoint1 = 650;\n  uint256 public raffleBreakPoint2 = 1000;\n  uint256 public raffleBreakPoint3 = 1500;\n\n  uint256 private reserveAtATime = 50;\n  uint256 private reservedCount = 0;\n  uint256 private maxReserveCount = 100;\n\n  string _baseTokenURI;\n\n  bool public isRaffleActive1 = false;\n  bool public isRaffleActive2 = false;\n  bool public isRaffleActive3 = false;\n  bool public isMintActive = false;\n  bool public isClosedMintForever = false;\n\n  uint256 public maximumMintSupply = 4444;\n  uint256 public maximumAllowedTokensPerPurchase = 5;\n  uint256 public maximumAllowedTokensPerWallet = 5;\n  uint256 public raffleMaxMint1 = 2;\n  uint256 public raffleMaxMint2 = 3;\n  uint256 public raffleMaxMint3 = 4;\n\n  uint256 public immutable maxPerAddressDuringMint;\n\n  address private OtherAddress1 = 0xFf1896CFC912CeDa37319EBA452906dea8cb343C;\n  address private OtherAddress2 = 0x0FACDE93BB161B90d3CfE13Da6787583339cce7c;\n\n  mapping(address => bool) private _allowList;\n  mapping(address => uint256) private _allowListClaimed1;\n  mapping(address => uint256) private _allowListClaimed2;\n  mapping(address => uint256) private _allowListClaimed3;\n\n  event AssetMinted(uint256 tokenId, address sender);\n  event SaleActivation(bool isMintActive);\n\n  constructor(\n    string memory baseURI,\n    uint256 maxBatchSize_,\n    uint256 collectionSize_\n   ) ERC721A(\"M3TA MOGULS\", \"MM\", maxBatchSize_, collectionSize_) {\n    setBaseURI(baseURI);\n    maxPerAddressDuringMint = maxBatchSize_;\n  }\n\n  modifier saleIsOpen {\n    require(totalSupply() <= maximumMintSupply, \"Sale has ended.\");\n    _;\n  }\n\n  modifier onlyAuthorized() {\n    require(owner() == msg.sender);\n    _;\n  }\n\n  modifier callerIsUser() {\n    require(tx.origin == msg.sender, \"The caller is another contract\");\n    _;\n  }\n\n  function setMaximumAllowedTokens(uint256 _count) public onlyAuthorized {\n    maximumAllowedTokensPerPurchase = _count;\n  }\n\n  function setMaximumAllowedTokensPerWallet(uint256 _count) public onlyAuthorized {\n    maximumAllowedTokensPerWallet = _count;\n  }\n\n  function setMintActive(bool val) public onlyAuthorized {\n    isMintActive = val;\n    emit SaleActivation(val);\n  }\n\n  function setMaxMintSupply(uint256 maxMintSupply) external  onlyAuthorized {\n    maximumMintSupply = maxMintSupply;\n  }\n\n  function setRaffleBreakPoint1(uint256 point) external  onlyAuthorized {\n    raffleBreakPoint1 = point;\n  }\n\n  function setRaffleBreakPoint2(uint256 point) external  onlyAuthorized {\n    raffleBreakPoint2 = point;\n  }\n\n  function setRaffleBreakPoint3(uint256 point) external  onlyAuthorized {\n    raffleBreakPoint3 = point;\n  }\n\n  function setRaffleActive1(bool _isRaffleActive) public onlyAuthorized {\n    isRaffleActive1 = _isRaffleActive;\n  }\n\n  function setRaffleActive2(bool _isRaffleActive) public onlyAuthorized {\n    isRaffleActive2 = _isRaffleActive;\n  }\n\n  function setRaffleActive3(bool _isRaffleActive) public onlyAuthorized {\n    isRaffleActive3 = _isRaffleActive;\n  }\n\n  function setRaffleMaxMint1(uint256 maxMint) external  onlyAuthorized {\n    raffleMaxMint1 = maxMint;\n  }\n\n  function setRaffleMaxMint2(uint256 maxMint) external  onlyAuthorized {\n    raffleMaxMint2 = maxMint;\n  }\n\n  function setRaffleMaxMint3(uint256 maxMint) external  onlyAuthorized {\n    raffleMaxMint3 = maxMint;\n  }\n\n  function checkIfOnAllowList(address addr) external view returns (bool) {\n    return _allowList[addr];\n  }\n\n  function removeFromAllowList(address[] calldata addresses) external onlyAuthorized {\n    for (uint256 i = 0; i < addresses.length; i++) {\n      require(addresses[i] != address(0), \"Can't add a null address\");\n      _allowList[addresses[i]] = false;\n    }\n  }\n\n  function setReserveAtATime(uint256 val) public onlyAuthorized {\n    reserveAtATime = val;\n  }\n\n  function setMaxReserve(uint256 val) public onlyAuthorized {\n    maxReserveCount = val;\n  }\n\n  function setMintPrice(uint256 _price) public onlyAuthorized {\n    mintPrice = _price;\n  }\n\n  function setRaffleMintPrice(uint256 _price) public onlyAuthorized {\n    raffleMintPrice = _price;\n  }\n\n  function setBaseURI(string memory baseURI) public onlyAuthorized {\n    _baseTokenURI = baseURI;\n  }\n\n  function getMaximumAllowedTokens() public view onlyAuthorized returns (uint256) {\n    return maximumAllowedTokensPerPurchase;\n  }\n\n  function getMintPrice() external view returns (uint256) {\n    return mintPrice;\n  }\n\n  function getRaffleMintPrice() external view returns (uint256) {\n    return raffleMintPrice;\n  }\n\n  function getIsClosedMintForever() external view returns (bool) {\n    return isClosedMintForever;\n  }\n\n  function setIsClosedMintForever() external onlyAuthorized {\n    isClosedMintForever = true;\n  }\n\n  function setRoot(bytes32 _root) public onlyAuthorized {\n    root = _root;\n  }\n\n  function getReserveAtATime() external view returns (uint256) {\n    return reserveAtATime;\n  }\n\n  function getTotalSupply() external view returns (uint256) {\n    return totalSupply();\n  }\n\n  function getRoot() external view returns (bytes32) {\n    return root;\n  }\n\n  function getContractOwner() public view returns (address) {\n    return owner();\n  }\n\n  function _baseURI() internal view virtual override returns (string memory) {\n    return _baseTokenURI;\n  }\n\n  function reserveNft() public onlyAuthorized {\n    require(reservedCount <= maxReserveCount, \"Max Reserves taken already!\");\n    require(totalSupply() + reserveAtATime <= maximumMintSupply, \"Total supply exceeded.\");\n    require(totalSupply() <= maximumMintSupply, \"Total supply spent.\");\n\n    reservedCount += reserveAtATime;\n    _safeMint(msg.sender, reserveAtATime);\n  }\n\n  function alfaGroupMint(address _walletAddress, uint256 _count) public onlyAuthorized {\n    require(totalSupply() + _count <= maximumMintSupply, \"Total supply exceeded.\");\n    require(totalSupply() <= maximumMintSupply, \"Total supply spent.\");\n\n    _safeMint(_walletAddress, _count);\n  }\n\n  function mint(address _to, uint256 _count) public payable saleIsOpen callerIsUser {\n    if (msg.sender != owner()) {\n      require(isMintActive, \"Sale is not active currently.\");\n    }\n\n    if(_to != owner()) {\n      require(balanceOf(_to) + _count <= maximumAllowedTokensPerWallet, \"Max holding cap reached.\");\n    }\n\n    require(totalSupply() + _count <= maximumMintSupply, \"Total supply exceeded.\");\n    require(totalSupply() <= maximumMintSupply, \"Total supply spent.\");\n    require(\n      _count <= maximumAllowedTokensPerPurchase,\n      \"Exceeds maximum allowed tokens\"\n    );\n    require(\n      numberMinted(msg.sender) + _count <= maxPerAddressDuringMint,\n      \"can not mint this many\"\n    );\n    require(!isClosedMintForever, \"Mint Closed Forever\");\n    require(msg.value >= mintPrice * _count, \"Insuffient ETH amount sent.\");\n\n    _safeMint(_to, _count);\n  }\n\n  function raffleMint(uint256 _count, bytes32[] memory _proof) public payable saleIsOpen {\n    bytes32 leaf = keccak256(abi.encodePacked(msg.sender));\n    uint256 supply = totalSupply();\n    require(_proof.verify(root, leaf), \"invalid proof\");\n    require(totalSupply() < maximumMintSupply, \"All tokens have been minted\");\n    require(msg.value >= raffleMintPrice * _count, \"Insuffient ETH amount sent.\");\n    require(!isClosedMintForever, \"Mint Closed Forever\");\n    if(!isRaffleActive1 && !isRaffleActive2 && !isRaffleActive3) {\n      require(false, \"Raffle is not active\");\n    }\n\n\n    if (isRaffleActive1) {\n      require(_count <= raffleMaxMint1, \"Cannot purchase this many tokens for this stage\");\n      require(_count + totalSupply() <= raffleBreakPoint1, \"No NFTs are left to mint for this stage\");\n      require(_allowListClaimed1[msg.sender] + _count <= raffleMaxMint1, 'Purchase exceeds max allowed');\n      _allowListClaimed1[msg.sender] += _count;\n    }\n\n    if (isRaffleActive2) {\n      require(_count <= raffleMaxMint2, \"Cannot purchase this many tokens for this stage\");\n      require(_count + totalSupply() <= raffleBreakPoint2, \"No NFTs are left to mint for this stage\");\n      require(_allowListClaimed2[msg.sender] + _count <= raffleMaxMint2, 'Purchase exceeds max allowed');\n      _allowListClaimed2[msg.sender] += _count;\n    }\n\n    if (isRaffleActive3) {\n      require(_count <= raffleMaxMint3, \"Cannot purchase this many tokens for this stage\");\n      require(_count + totalSupply() <= raffleBreakPoint3, \"No NFTs are left to mint for this stage\");\n      require(_allowListClaimed3[msg.sender] + _count <= raffleMaxMint3, 'Purchase exceeds max allowed');\n      _allowListClaimed3[msg.sender] += _count;\n    }\n\n    if(totalSupply() + _count == raffleBreakPoint1) {\n      isRaffleActive1 = false;\n      raffleMintPrice = 0.175 ether;\n    } else if(totalSupply() + _count == raffleBreakPoint2) {\n      isRaffleActive2 = false;\n      raffleMintPrice = 0.2 ether;\n    } else if(totalSupply() + _count == raffleBreakPoint3) {\n      isRaffleActive3 = false;\n    }\n\n    _safeMint(msg.sender, _count);\n  }\n\n  function numberMinted(address owner) public view returns (uint256) {\n    return _numberMinted(owner);\n  }\n\n  function walletOfOwner(address _owner) external view returns(uint256[] memory) {\n    uint tokenCount = balanceOf(_owner);\n    uint256[] memory tokensId = new uint256[](tokenCount);\n\n    for(uint i = 0; i < tokenCount; i++){\n      tokensId[i] = tokenOfOwnerByIndex(_owner, i);\n    }\n    return tokensId;\n  }\n\n  function withdraw() external onlyAuthorized {\n    uint balance = address(this).balance;\n    payable(OtherAddress1).transfer(balance * 5000 / 10000);\n    payable(OtherAddress2).transfer(balance * 5000 / 10000);\n    payable(owner()).transfer(balance * 0 / 10000);\n  }\n}",
  "sourcePath": "/Users/nftstack/Documents/GitHub/meta-moguls/contracts/M3taMoguls.sol",
  "compiler": {
    "name": "solc",
    "version": "0.8.1+commit.df193b15.Emscripten.clang"
  },
  "schemaVersion": "3.4.7",
  "updatedAt": "2022-06-02T13:47:31.437Z",
  "devdoc": {
    "kind": "dev",
    "methods": {
      "approve(address,uint256)": {
        "details": "See {IERC721-approve}."
      },
      "balanceOf(address)": {
        "details": "See {IERC721-balanceOf}."
      },
      "getApproved(uint256)": {
        "details": "See {IERC721-getApproved}."
      },
      "isApprovedForAll(address,address)": {
        "details": "See {IERC721-isApprovedForAll}."
      },
      "name()": {
        "details": "See {IERC721Metadata-name}."
      },
      "owner()": {
        "details": "Returns the address of the current owner."
      },
      "ownerOf(uint256)": {
        "details": "See {IERC721-ownerOf}."
      },
      "renounceOwnership()": {
        "details": "Leaves the contract without owner. It will not be possible to call `onlyOwner` functions anymore. Can only be called by the current owner. NOTE: Renouncing ownership will leave the contract without an owner, thereby removing any functionality that is only available to the owner."
      },
      "safeTransferFrom(address,address,uint256)": {
        "details": "See {IERC721-safeTransferFrom}."
      },
      "safeTransferFrom(address,address,uint256,bytes)": {
        "details": "See {IERC721-safeTransferFrom}."
      },
      "setApprovalForAll(address,bool)": {
        "details": "See {IERC721-setApprovalForAll}."
      },
      "supportsInterface(bytes4)": {
        "details": "See {IERC165-supportsInterface}."
      },
      "symbol()": {
        "details": "See {IERC721Metadata-symbol}."
      },
      "tokenByIndex(uint256)": {
        "details": "See {IERC721Enumerable-tokenByIndex}."
      },
      "tokenOfOwnerByIndex(address,uint256)": {
        "details": "See {IERC721Enumerable-tokenOfOwnerByIndex}. This read function is O(collectionSize). If calling from a separate contract, be sure to test gas first. It may also degrade with extremely large collection sizes (e.g >> 10000), test for your use case."
      },
      "tokenURI(uint256)": {
        "details": "See {IERC721Metadata-tokenURI}."
      },
      "totalSupply()": {
        "details": "See {IERC721Enumerable-totalSupply}."
      },
      "transferFrom(address,address,uint256)": {
        "details": "See {IERC721-transferFrom}."
      },
      "transferOwnership(address)": {
        "details": "Transfers ownership of the contract to a new account (`newOwner`). Can only be called by the current owner."
      }
    },
    "version": 1
  },
  "userdoc": {
    "kind": "user",
    "methods": {},
    "version": 1
  }
}