{
  "contractName": "NFTStack721ARaffle",
  "abi": [
    {
      "inputs": [
        {
          "internalType": "string",
          "name": "baseURI",
          "type": "string"
        },
        {
          "internalType": "uint256",
          "name": "maxBatchSize_",
          "type": "uint256"
        },
        {
          "internalType": "uint256",
          "name": "collectionSize_",
          "type": "uint256"
        }
      ],
      "stateMutability": "nonpayable",
      "type": "constructor"
    },
    {
      "anonymous": false,
      "inputs": [
        {
          "indexed": true,
          "internalType": "address",
          "name": "owner",
          "type": "address"
        },
        {
          "indexed": true,
          "internalType": "address",
          "name": "approved",
          "type": "address"
        },
        {
          "indexed": true,
          "internalType": "uint256",
          "name": "tokenId",
          "type": "uint256"
        }
      ],
      "name": "Approval",
      "type": "event"
    },
    {
      "anonymous": false,
      "inputs": [
        {
          "indexed": true,
          "internalType": "address",
          "name": "owner",
          "type": "address"
        },
        {
          "indexed": true,
          "internalType": "address",
          "name": "operator",
          "type": "address"
        },
        {
          "indexed": false,
          "internalType": "bool",
          "name": "approved",
          "type": "bool"
        }
      ],
      "name": "ApprovalForAll",
      "type": "event"
    },
    {
      "anonymous": false,
      "inputs": [
        {
          "indexed": false,
          "internalType": "uint256",
          "name": "tokenId",
          "type": "uint256"
        },
        {
          "indexed": false,
          "internalType": "address",
          "name": "sender",
          "type": "address"
        }
      ],
      "name": "AssetMinted",
      "type": "event"
    },
    {
      "anonymous": false,
      "inputs": [
        {
          "indexed": true,
          "internalType": "address",
          "name": "previousOwner",
          "type": "address"
        },
        {
          "indexed": true,
          "internalType": "address",
          "name": "newOwner",
          "type": "address"
        }
      ],
      "name": "OwnershipTransferred",
      "type": "event"
    },
    {
      "anonymous": false,
      "inputs": [
        {
          "indexed": false,
          "internalType": "bool",
          "name": "isMintActive",
          "type": "bool"
        }
      ],
      "name": "SaleActivation",
      "type": "event"
    },
    {
      "anonymous": false,
      "inputs": [
        {
          "indexed": true,
          "internalType": "address",
          "name": "from",
          "type": "address"
        },
        {
          "indexed": true,
          "internalType": "address",
          "name": "to",
          "type": "address"
        },
        {
          "indexed": true,
          "internalType": "uint256",
          "name": "tokenId",
          "type": "uint256"
        }
      ],
      "name": "Transfer",
      "type": "event"
    },
    {
      "inputs": [],
      "name": "allowListMaxMint",
      "outputs": [
        {
          "internalType": "uint256",
          "name": "",
          "type": "uint256"
        }
      ],
      "stateMutability": "view",
      "type": "function"
    },
    {
      "inputs": [
        {
          "internalType": "address",
          "name": "to",
          "type": "address"
        },
        {
          "internalType": "uint256",
          "name": "tokenId",
          "type": "uint256"
        }
      ],
      "name": "approve",
      "outputs": [],
      "stateMutability": "nonpayable",
      "type": "function"
    },
    {
      "inputs": [
        {
          "internalType": "address",
          "name": "owner",
          "type": "address"
        }
      ],
      "name": "balanceOf",
      "outputs": [
        {
          "internalType": "uint256",
          "name": "",
          "type": "uint256"
        }
      ],
      "stateMutability": "view",
      "type": "function"
    },
    {
      "inputs": [
        {
          "internalType": "uint256",
          "name": "tokenId",
          "type": "uint256"
        }
      ],
      "name": "getApproved",
      "outputs": [
        {
          "internalType": "address",
          "name": "",
          "type": "address"
        }
      ],
      "stateMutability": "view",
      "type": "function"
    },
    {
      "inputs": [
        {
          "internalType": "address",
          "name": "owner",
          "type": "address"
        },
        {
          "internalType": "address",
          "name": "operator",
          "type": "address"
        }
      ],
      "name": "isApprovedForAll",
      "outputs": [
        {
          "internalType": "bool",
          "name": "",
          "type": "bool"
        }
      ],
      "stateMutability": "view",
      "type": "function"
    },
    {
      "inputs": [],
      "name": "isClosedMintForever",
      "outputs": [
        {
          "internalType": "bool",
          "name": "",
          "type": "bool"
        }
      ],
      "stateMutability": "view",
      "type": "function"
    },
    {
      "inputs": [],
      "name": "isMintActive",
      "outputs": [
        {
          "internalType": "bool",
          "name": "",
          "type": "bool"
        }
      ],
      "stateMutability": "view",
      "type": "function"
    },
    {
      "inputs": [],
      "name": "isPreSaleMintActive",
      "outputs": [
        {
          "internalType": "bool",
          "name": "",
          "type": "bool"
        }
      ],
      "stateMutability": "view",
      "type": "function"
    },
    {
      "inputs": [],
      "name": "isRaffleActive",
      "outputs": [
        {
          "internalType": "bool",
          "name": "",
          "type": "bool"
        }
      ],
      "stateMutability": "view",
      "type": "function"
    },
    {
      "inputs": [],
      "name": "isSellOpen",
      "outputs": [
        {
          "internalType": "bool",
          "name": "",
          "type": "bool"
        }
      ],
      "stateMutability": "view",
      "type": "function"
    },
    {
      "inputs": [],
      "name": "maxPerAddressDuringMint",
      "outputs": [
        {
          "internalType": "uint256",
          "name": "",
          "type": "uint256"
        }
      ],
      "stateMutability": "view",
      "type": "function"
    },
    {
      "inputs": [],
      "name": "maximumAllowedTokensPerPurchase",
      "outputs": [
        {
          "internalType": "uint256",
          "name": "",
          "type": "uint256"
        }
      ],
      "stateMutability": "view",
      "type": "function"
    },
    {
      "inputs": [],
      "name": "maximumAllowedTokensPerWallet",
      "outputs": [
        {
          "internalType": "uint256",
          "name": "",
          "type": "uint256"
        }
      ],
      "stateMutability": "view",
      "type": "function"
    },
    {
      "inputs": [],
      "name": "maximumMintSupply",
      "outputs": [
        {
          "internalType": "uint256",
          "name": "",
          "type": "uint256"
        }
      ],
      "stateMutability": "view",
      "type": "function"
    },
    {
      "inputs": [],
      "name": "mintPrice",
      "outputs": [
        {
          "internalType": "uint256",
          "name": "",
          "type": "uint256"
        }
      ],
      "stateMutability": "view",
      "type": "function"
    },
    {
      "inputs": [],
      "name": "name",
      "outputs": [
        {
          "internalType": "string",
          "name": "",
          "type": "string"
        }
      ],
      "stateMutability": "view",
      "type": "function"
    },
    {
      "inputs": [],
      "name": "nextOwnerToExplicitlySet",
      "outputs": [
        {
          "internalType": "uint256",
          "name": "",
          "type": "uint256"
        }
      ],
      "stateMutability": "view",
      "type": "function"
    },
    {
      "inputs": [],
      "name": "owner",
      "outputs": [
        {
          "internalType": "address",
          "name": "",
          "type": "address"
        }
      ],
      "stateMutability": "view",
      "type": "function"
    },
    {
      "inputs": [
        {
          "internalType": "uint256",
          "name": "tokenId",
          "type": "uint256"
        }
      ],
      "name": "ownerOf",
      "outputs": [
        {
          "internalType": "address",
          "name": "",
          "type": "address"
        }
      ],
      "stateMutability": "view",
      "type": "function"
    },
    {
      "inputs": [],
      "name": "preSaleMintPrice",
      "outputs": [
        {
          "internalType": "uint256",
          "name": "",
          "type": "uint256"
        }
      ],
      "stateMutability": "view",
      "type": "function"
    },
    {
      "inputs": [],
      "name": "raffleMintPrice",
      "outputs": [
        {
          "internalType": "uint256",
          "name": "",
          "type": "uint256"
        }
      ],
      "stateMutability": "view",
      "type": "function"
    },
    {
      "inputs": [],
      "name": "renounceOwnership",
      "outputs": [],
      "stateMutability": "nonpayable",
      "type": "function"
    },
    {
      "inputs": [],
      "name": "root",
      "outputs": [
        {
          "internalType": "bytes32",
          "name": "",
          "type": "bytes32"
        }
      ],
      "stateMutability": "view",
      "type": "function"
    },
    {
      "inputs": [
        {
          "internalType": "address",
          "name": "from",
          "type": "address"
        },
        {
          "internalType": "address",
          "name": "to",
          "type": "address"
        },
        {
          "internalType": "uint256",
          "name": "tokenId",
          "type": "uint256"
        }
      ],
      "name": "safeTransferFrom",
      "outputs": [],
      "stateMutability": "nonpayable",
      "type": "function"
    },
    {
      "inputs": [
        {
          "internalType": "address",
          "name": "from",
          "type": "address"
        },
        {
          "internalType": "address",
          "name": "to",
          "type": "address"
        },
        {
          "internalType": "uint256",
          "name": "tokenId",
          "type": "uint256"
        },
        {
          "internalType": "bytes",
          "name": "_data",
          "type": "bytes"
        }
      ],
      "name": "safeTransferFrom",
      "outputs": [],
      "stateMutability": "nonpayable",
      "type": "function"
    },
    {
      "inputs": [
        {
          "internalType": "bytes4",
          "name": "interfaceId",
          "type": "bytes4"
        }
      ],
      "name": "supportsInterface",
      "outputs": [
        {
          "internalType": "bool",
          "name": "",
          "type": "bool"
        }
      ],
      "stateMutability": "view",
      "type": "function"
    },
    {
      "inputs": [],
      "name": "symbol",
      "outputs": [
        {
          "internalType": "string",
          "name": "",
          "type": "string"
        }
      ],
      "stateMutability": "view",
      "type": "function"
    },
    {
      "inputs": [
        {
          "internalType": "uint256",
          "name": "index",
          "type": "uint256"
        }
      ],
      "name": "tokenByIndex",
      "outputs": [
        {
          "internalType": "uint256",
          "name": "",
          "type": "uint256"
        }
      ],
      "stateMutability": "view",
      "type": "function"
    },
    {
      "inputs": [
        {
          "internalType": "address",
          "name": "owner",
          "type": "address"
        },
        {
          "internalType": "uint256",
          "name": "index",
          "type": "uint256"
        }
      ],
      "name": "tokenOfOwnerByIndex",
      "outputs": [
        {
          "internalType": "uint256",
          "name": "",
          "type": "uint256"
        }
      ],
      "stateMutability": "view",
      "type": "function"
    },
    {
      "inputs": [
        {
          "internalType": "uint256",
          "name": "tokenId",
          "type": "uint256"
        }
      ],
      "name": "tokenURI",
      "outputs": [
        {
          "internalType": "string",
          "name": "",
          "type": "string"
        }
      ],
      "stateMutability": "view",
      "type": "function"
    },
    {
      "inputs": [],
      "name": "totalSupply",
      "outputs": [
        {
          "internalType": "uint256",
          "name": "",
          "type": "uint256"
        }
      ],
      "stateMutability": "view",
      "type": "function"
    },
    {
      "inputs": [
        {
          "internalType": "address",
          "name": "from",
          "type": "address"
        },
        {
          "internalType": "address",
          "name": "to",
          "type": "address"
        },
        {
          "internalType": "uint256",
          "name": "tokenId",
          "type": "uint256"
        }
      ],
      "name": "transferFrom",
      "outputs": [],
      "stateMutability": "nonpayable",
      "type": "function"
    },
    {
      "inputs": [
        {
          "internalType": "address",
          "name": "newOwner",
          "type": "address"
        }
      ],
      "name": "transferOwnership",
      "outputs": [],
      "stateMutability": "nonpayable",
      "type": "function"
    },
    {
      "inputs": [
        {
          "internalType": "uint256",
          "name": "_count",
          "type": "uint256"
        }
      ],
      "name": "setMaximumAllowedTokens",
      "outputs": [],
      "stateMutability": "nonpayable",
      "type": "function"
    },
    {
      "inputs": [
        {
          "internalType": "uint256",
          "name": "_count",
          "type": "uint256"
        }
      ],
      "name": "setMaximumAllowedTokensPerWallet",
      "outputs": [],
      "stateMutability": "nonpayable",
      "type": "function"
    },
    {
      "inputs": [
        {
          "internalType": "bool",
          "name": "val",
          "type": "bool"
        }
      ],
      "name": "setMintActive",
      "outputs": [],
      "stateMutability": "nonpayable",
      "type": "function"
    },
    {
      "inputs": [
        {
          "internalType": "uint256",
          "name": "maxMintSupply",
          "type": "uint256"
        }
      ],
      "name": "setMaxMintSupply",
      "outputs": [],
      "stateMutability": "nonpayable",
      "type": "function"
    },
    {
      "inputs": [
        {
          "internalType": "bool",
          "name": "_isRaffleActive",
          "type": "bool"
        }
      ],
      "name": "setRaffleActive",
      "outputs": [],
      "stateMutability": "nonpayable",
      "type": "function"
    },
    {
      "inputs": [
        {
          "internalType": "bool",
          "name": "_isPreSaleMintActive",
          "type": "bool"
        }
      ],
      "name": "setIsPreSaleMintActive",
      "outputs": [],
      "stateMutability": "nonpayable",
      "type": "function"
    },
    {
      "inputs": [
        {
          "internalType": "bool",
          "name": "_isSellOpen",
          "type": "bool"
        }
      ],
      "name": "setIsSellOpen",
      "outputs": [],
      "stateMutability": "nonpayable",
      "type": "function"
    },
    {
      "inputs": [
        {
          "internalType": "uint256",
          "name": "maxMint",
          "type": "uint256"
        }
      ],
      "name": "setAllowListMaxMint",
      "outputs": [],
      "stateMutability": "nonpayable",
      "type": "function"
    },
    {
      "inputs": [
        {
          "internalType": "address[]",
          "name": "addresses",
          "type": "address[]"
        }
      ],
      "name": "addToAllowList",
      "outputs": [],
      "stateMutability": "nonpayable",
      "type": "function"
    },
    {
      "inputs": [
        {
          "internalType": "address",
          "name": "addr",
          "type": "address"
        }
      ],
      "name": "checkIfOnAllowList",
      "outputs": [
        {
          "internalType": "bool",
          "name": "",
          "type": "bool"
        }
      ],
      "stateMutability": "view",
      "type": "function"
    },
    {
      "inputs": [
        {
          "internalType": "address[]",
          "name": "addresses",
          "type": "address[]"
        }
      ],
      "name": "removeFromAllowList",
      "outputs": [],
      "stateMutability": "nonpayable",
      "type": "function"
    },
    {
      "inputs": [
        {
          "internalType": "address",
          "name": "owner",
          "type": "address"
        }
      ],
      "name": "allowListClaimedBy",
      "outputs": [
        {
          "internalType": "uint256",
          "name": "",
          "type": "uint256"
        }
      ],
      "stateMutability": "view",
      "type": "function"
    },
    {
      "inputs": [
        {
          "internalType": "uint256",
          "name": "val",
          "type": "uint256"
        }
      ],
      "name": "setReserveAtATime",
      "outputs": [],
      "stateMutability": "nonpayable",
      "type": "function"
    },
    {
      "inputs": [
        {
          "internalType": "uint256",
          "name": "val",
          "type": "uint256"
        }
      ],
      "name": "setMaxReserve",
      "outputs": [],
      "stateMutability": "nonpayable",
      "type": "function"
    },
    {
      "inputs": [
        {
          "internalType": "uint256",
          "name": "_price",
          "type": "uint256"
        }
      ],
      "name": "setMintPrice",
      "outputs": [],
      "stateMutability": "nonpayable",
      "type": "function"
    },
    {
      "inputs": [
        {
          "internalType": "uint256",
          "name": "_price",
          "type": "uint256"
        }
      ],
      "name": "setPreSaleMintPrice",
      "outputs": [],
      "stateMutability": "nonpayable",
      "type": "function"
    },
    {
      "inputs": [
        {
          "internalType": "uint256",
          "name": "_price",
          "type": "uint256"
        }
      ],
      "name": "setRaffleMintPrice",
      "outputs": [],
      "stateMutability": "nonpayable",
      "type": "function"
    },
    {
      "inputs": [
        {
          "internalType": "string",
          "name": "baseURI",
          "type": "string"
        }
      ],
      "name": "setBaseURI",
      "outputs": [],
      "stateMutability": "nonpayable",
      "type": "function"
    },
    {
      "inputs": [],
      "name": "getMaximumAllowedTokens",
      "outputs": [
        {
          "internalType": "uint256",
          "name": "",
          "type": "uint256"
        }
      ],
      "stateMutability": "view",
      "type": "function"
    },
    {
      "inputs": [],
      "name": "getMintPrice",
      "outputs": [
        {
          "internalType": "uint256",
          "name": "",
          "type": "uint256"
        }
      ],
      "stateMutability": "view",
      "type": "function"
    },
    {
      "inputs": [],
      "name": "getPreSaleMintPrice",
      "outputs": [
        {
          "internalType": "uint256",
          "name": "",
          "type": "uint256"
        }
      ],
      "stateMutability": "view",
      "type": "function"
    },
    {
      "inputs": [],
      "name": "getRaffleMintPrice",
      "outputs": [
        {
          "internalType": "uint256",
          "name": "",
          "type": "uint256"
        }
      ],
      "stateMutability": "view",
      "type": "function"
    },
    {
      "inputs": [],
      "name": "getIsClosedMintForever",
      "outputs": [
        {
          "internalType": "bool",
          "name": "",
          "type": "bool"
        }
      ],
      "stateMutability": "view",
      "type": "function"
    },
    {
      "inputs": [],
      "name": "setIsClosedMintForever",
      "outputs": [],
      "stateMutability": "nonpayable",
      "type": "function"
    },
    {
      "inputs": [
        {
          "internalType": "bytes32",
          "name": "_root",
          "type": "bytes32"
        }
      ],
      "name": "setRoot",
      "outputs": [],
      "stateMutability": "nonpayable",
      "type": "function"
    },
    {
      "inputs": [
        {
          "internalType": "address",
          "name": "operator",
          "type": "address"
        },
        {
          "internalType": "bool",
          "name": "approved",
          "type": "bool"
        }
      ],
      "name": "setApprovalForAll",
      "outputs": [],
      "stateMutability": "nonpayable",
      "type": "function"
    },
    {
      "inputs": [],
      "name": "getReserveAtATime",
      "outputs": [
        {
          "internalType": "uint256",
          "name": "",
          "type": "uint256"
        }
      ],
      "stateMutability": "view",
      "type": "function"
    },
    {
      "inputs": [],
      "name": "getTotalSupply",
      "outputs": [
        {
          "internalType": "uint256",
          "name": "",
          "type": "uint256"
        }
      ],
      "stateMutability": "view",
      "type": "function"
    },
    {
      "inputs": [],
      "name": "getRoot",
      "outputs": [
        {
          "internalType": "bytes32",
          "name": "",
          "type": "bytes32"
        }
      ],
      "stateMutability": "view",
      "type": "function"
    },
    {
      "inputs": [],
      "name": "getContractOwner",
      "outputs": [
        {
          "internalType": "address",
          "name": "",
          "type": "address"
        }
      ],
      "stateMutability": "view",
      "type": "function"
    },
    {
      "inputs": [],
      "name": "reserveNft",
      "outputs": [],
      "stateMutability": "nonpayable",
      "type": "function"
    },
    {
      "inputs": [
        {
          "internalType": "address",
          "name": "_walletAddress",
          "type": "address"
        },
        {
          "internalType": "uint256",
          "name": "_count",
          "type": "uint256"
        }
      ],
      "name": "reserveToCustomWallet",
      "outputs": [],
      "stateMutability": "nonpayable",
      "type": "function"
    },
    {
      "inputs": [
        {
          "internalType": "address",
          "name": "_to",
          "type": "address"
        },
        {
          "internalType": "uint256",
          "name": "_count",
          "type": "uint256"
        }
      ],
      "name": "mint",
      "outputs": [],
      "stateMutability": "payable",
      "type": "function"
    },
    {
      "inputs": [
        {
          "internalType": "uint256",
          "name": "_count",
          "type": "uint256"
        },
        {
          "internalType": "bytes32[]",
          "name": "_proof",
          "type": "bytes32[]"
        }
      ],
      "name": "raffleMint",
      "outputs": [],
      "stateMutability": "payable",
      "type": "function"
    },
    {
      "inputs": [
        {
          "internalType": "uint256",
          "name": "_count",
          "type": "uint256"
        }
      ],
      "name": "preSaleMint",
      "outputs": [],
      "stateMutability": "payable",
      "type": "function"
    },
    {
      "inputs": [
        {
          "internalType": "address",
          "name": "owner",
          "type": "address"
        }
      ],
      "name": "numberMinted",
      "outputs": [
        {
          "internalType": "uint256",
          "name": "",
          "type": "uint256"
        }
      ],
      "stateMutability": "view",
      "type": "function"
    },
    {
      "inputs": [
        {
          "internalType": "address",
          "name": "_owner",
          "type": "address"
        }
      ],
      "name": "walletOfOwner",
      "outputs": [
        {
          "internalType": "uint256[]",
          "name": "",
          "type": "uint256[]"
        }
      ],
      "stateMutability": "view",
      "type": "function"
    },
    {
      "inputs": [],
      "name": "withdraw",
      "outputs": [],
      "stateMutability": "nonpayable",
      "type": "function"
    }
  ],
  "bytecode": "0x60e0604052600080805560078190556702c68af0bb140000600a818155600b829055600c919091556032600d55600e9190915560c8600f556011805464ffffffffff1916905561271060125560138190556014819055601555601680546001600160a01b031916739dbf14c79847d1566419dcddd5ad35daf0382e051790553480156200008b57600080fd5b506040516200429e3803806200429e833981016040819052620000ae91620002e8565b6040518060400160405280600e81526020016d1391950814dd1858dac815195cdd60921b815250604051806040016040528060048152602001634e46545360e01b815250838360008111620001205760405162461bcd60e51b8152600401620001179062000419565b60405180910390fd5b60008211620001435760405162461bcd60e51b81526004016200011790620003d2565b83516200015890600190602087019062000242565b5082516200016e90600290602086019062000242565b5060a091909152608052506200018f905062000189620001a5565b620001a9565b6200019a83620001fb565b5060c05250620004ba565b3390565b600880546001600160a01b038381166001600160a01b0319831681179093556040519116919082907f8be0079c531659141344cd1fd0a4f28419497f9722a3daafe3b4186f6b6457e090600090a35050565b336200020662000233565b6001600160a01b0316146200021a57600080fd5b80516200022f90601090602084019062000242565b5050565b6008546001600160a01b031690565b828054620002509062000467565b90600052602060002090601f016020900481019282620002745760008555620002bf565b82601f106200028f57805160ff1916838001178555620002bf565b82800160010185558215620002bf579182015b82811115620002bf578251825591602001919060010190620002a2565b50620002cd929150620002d1565b5090565b5b80821115620002cd5760008155600101620002d2565b600080600060608486031215620002fd578283fd5b83516001600160401b038082111562000314578485fd5b818601915086601f83011262000328578485fd5b8151818111156200033d576200033d620004a4565b604051601f8201601f19908116603f01168101908382118183101715620003685762000368620004a4565b8160405282815260209350898484870101111562000384578788fd5b8791505b82821015620003a7578482018401518183018501529083019062000388565b82821115620003b857878484830101525b928801516040909801519299979850919695505050505050565b60208082526027908201527f455243373231413a206d61782062617463682073697a65206d757374206265206040820152666e6f6e7a65726f60c81b606082015260800190565b6020808252602e908201527f455243373231413a20636f6c6c656374696f6e206d757374206861766520612060408201526d6e6f6e7a65726f20737570706c7960901b606082015260800190565b6002810460018216806200047c57607f821691505b602082108114156200049e57634e487b7160e01b600052602260045260246000fd5b50919050565b634e487b7160e01b600052604160045260246000fd5b60805160a05160c051613da2620004fc600039600081816111c10152611b720152600081816124fb01528181612525015261292e015260005050613da26000f3fe60806040526004361061040f5760003560e01c806377b501b91161021e578063c344164611610123578063e985e9c5116100ab578063ee1cc9441161007a578063ee1cc94414610b24578063f132dc2914610b44578063f2fde38b14610b59578063f4a0a52814610b79578063f6c9d9e314610b995761040f565b8063e985e9c514610aba578063ea6eb83614610ada578063ebf0c71714610afa578063ec7d099114610b0f5761040f565b8063cadf8818116100f2578063cadf881814610a3b578063d7224ba014610a50578063dab5f34014610a65578063dc33e68114610a85578063e7b62d9614610aa55761040f565b8063c3441646146109d1578063c3ac4feb146109e6578063c4e41b2214610a06578063c87b56dd14610a1b5761040f565b806395d89b41116101a6578063a22cb46511610175578063a22cb46514610947578063a51312c814610967578063a7f93ebd14610987578063ad06d7581461099c578063b88d4fde146109b15761040f565b806395d89b41146108e857806398590a39146108fd5780639a3bf7281461091d5780639ccb0fea146109325761040f565b80637d26f470116101ed5780637d26f4701461087f5780637f44ab2f146108945780638bc35c2f146108a95780638da5cb5b146108be578063932ecebc146108d35761040f565b806377b501b9146108195780637835c635146108395780637890b2c91461084c5780637a6685f11461085f5761040f565b806342842e0e116103245780635b92ac0d116102ac57806370a082311161027b57806370a082311461078f578063715018a6146107af57806371e3500c146107c45780637263cfe2146107d95780637389fbb7146107f95761040f565b80635b92ac0d146107305780635ca1e165146107455780636352211e1461075a5780636817c76c1461077a5761040f565b80634d0550de116102f35780634d0550de1461069b5780634dfea627146106b05780634f6ccce7146106d057806355f804b3146106f057806356a87caa146107105761040f565b806342842e0e14610624578063431adcb114610644578063438b630014610659578063442890d5146106865761040f565b80632992b0b0116103a75780633b9ee7e4116103765780633b9ee7e4146105a75780633ccfd60b146105c75780633cfac570146105dc5780633e8f0987146105fc57806340c10f19146106115761040f565b80632992b0b0146105325780632c1205f4146105475780632f57bcfe146105675780632f745c59146105875761040f565b8063095ea7b3116103e3578063095ea7b3146104c657806318160ddd146104e857806321a911f8146104fd57806323b872dd146105125761040f565b806208ffdd1461041457806301ffc9a71461044a57806306fdde0314610477578063081812fc14610499575b600080fd5b34801561042057600080fd5b5061043461042f366004612d09565b610bb9565b6040516104419190613141565b60405180910390f35b34801561045657600080fd5b5061046a610465366004612efa565b610c0a565b6040516104419190613136565b34801561048357600080fd5b5061048c610c6b565b604051610441919061314a565b3480156104a557600080fd5b506104b96104b4366004612ee2565b610cfd565b60405161044191906130a1565b3480156104d257600080fd5b506104e66104e1366004612e31565b610d40565b005b3480156104f457600080fd5b50610434610dd9565b34801561050957600080fd5b50610434610ddf565b34801561051e57600080fd5b506104e661052d366004612d55565b610de5565b34801561053e57600080fd5b50610434610df0565b34801561055357600080fd5b5061046a610562366004612d09565b610df6565b34801561057357600080fd5b506104e6610582366004612ec8565b610e14565b34801561059357600080fd5b506104346105a2366004612e31565b610e43565b3480156105b357600080fd5b506104e66105c2366004612ee2565b610f38565b3480156105d357600080fd5b506104e6610f59565b3480156105e857600080fd5b506104e66105f7366004612ec8565b61101e565b34801561060857600080fd5b50610434611056565b6104e661061f366004612e31565b61105c565b34801561063057600080fd5b506104e661063f366004612d55565b611273565b34801561065057600080fd5b5061046a61128e565b34801561066557600080fd5b50610679610674366004612d09565b61129f565b60405161044191906130f2565b34801561069257600080fd5b506104b961135c565b3480156106a757600080fd5b5061043461136b565b3480156106bc57600080fd5b506104e66106cb366004612ee2565b611371565b3480156106dc57600080fd5b506104346106eb366004612ee2565b611392565b3480156106fc57600080fd5b506104e661070b366004612f32565b6113be565b34801561071c57600080fd5b506104e661072b366004612ee2565b6113ed565b34801561073c57600080fd5b5061046a61140e565b34801561075157600080fd5b5061043461141c565b34801561076657600080fd5b506104b9610775366004612ee2565b611422565b34801561078657600080fd5b50610434611434565b34801561079b57600080fd5b506104346107aa366004612d09565b61143a565b3480156107bb57600080fd5b506104e6611487565b3480156107d057600080fd5b506104e66114d2565b3480156107e557600080fd5b506104e66107f4366004612e5a565b6115a8565b34801561080557600080fd5b506104e6610814366004612ee2565b611766565b34801561082557600080fd5b506104e6610834366004612e31565b611787565b6104e6610847366004612ee2565b611844565b6104e661085a366004612f77565b6119ae565b34801561086b57600080fd5b506104e661087a366004612ee2565b611b39565b34801561088b57600080fd5b5061046a611b5a565b3480156108a057600080fd5b50610434611b6a565b3480156108b557600080fd5b50610434611b70565b3480156108ca57600080fd5b506104b9611b94565b3480156108df57600080fd5b506104e6611ba3565b3480156108f457600080fd5b5061048c611bd4565b34801561090957600080fd5b506104e6610918366004612ec8565b611be3565b34801561092957600080fd5b50610434611c1f565b34801561093e57600080fd5b5061046a611c25565b34801561095357600080fd5b506104e6610962366004612e08565b611c34565b34801561097357600080fd5b506104e6610982366004612e5a565b611d4c565b34801561099357600080fd5b50610434611e46565b3480156109a857600080fd5b50610434611e4c565b3480156109bd57600080fd5b506104e66109cc366004612d90565b611e71565b3480156109dd57600080fd5b5061046a611ea4565b3480156109f257600080fd5b506104e6610a01366004612ee2565b611ead565b348015610a1257600080fd5b50610434611ece565b348015610a2757600080fd5b5061048c610a36366004612ee2565b611ed8565b348015610a4757600080fd5b50610434611f5b565b348015610a5c57600080fd5b50610434611f61565b348015610a7157600080fd5b506104e6610a80366004612ee2565b611f67565b348015610a9157600080fd5b50610434610aa0366004612d09565b611f88565b348015610ab157600080fd5b50610434611f93565b348015610ac657600080fd5b5061046a610ad5366004612d23565b611f99565b348015610ae657600080fd5b506104e6610af5366004612ee2565b611fc7565b348015610b0657600080fd5b50610434611fe8565b348015610b1b57600080fd5b50610434611fee565b348015610b3057600080fd5b506104e6610b3f366004612ec8565b611ff4565b348015610b5057600080fd5b5061046a61205e565b348015610b6557600080fd5b506104e6610b74366004612d09565b61206e565b348015610b8557600080fd5b506104e6610b94366004612ee2565b6120dc565b348015610ba557600080fd5b506104e6610bb4366004612ee2565b6120fd565b60006001600160a01b038216610bea5760405162461bcd60e51b8152600401610be190613602565b60405180910390fd5b506001600160a01b0381166000908152601860205260409020545b919050565b60006001600160e01b031982166380ac58cd60e01b1480610c3b57506001600160e01b03198216635b5e139f60e01b145b80610c5657506001600160e01b0319821663780e9d6360e01b145b80610c655750610c658261211e565b92915050565b606060018054610c7a90613caa565b80601f0160208091040260200160405190810160405280929190818152602001828054610ca690613caa565b8015610cf35780601f10610cc857610100808354040283529160200191610cf3565b820191906000526020600020905b815481529060010190602001808311610cd657829003601f168201915b5050505050905090565b6000610d0882612137565b610d245760405162461bcd60e51b8152600401610be190613ab0565b506000908152600560205260409020546001600160a01b031690565b6000610d4b82611422565b9050806001600160a01b0316836001600160a01b03161415610d7f5760405162461bcd60e51b8152600401610be190613778565b806001600160a01b0316610d9161213e565b6001600160a01b03161480610dad5750610dad81610ad561213e565b610dc95760405162461bcd60e51b8152600401610be1906134a8565b610dd4838383612142565b505050565b60005490565b600b5490565b610dd483838361219e565b600c5490565b6001600160a01b031660009081526017602052604090205460ff1690565b33610e1d611b94565b6001600160a01b031614610e3057600080fd5b6011805460ff1916911515919091179055565b6000610e4e8361143a565b8210610e6c5760405162461bcd60e51b8152600401610be19061315d565b6000610e76610dd9565b905060008060005b83811015610f1f576000818152600360209081526040918290208251808401909352546001600160a01b038116808452600160a01b9091046001600160401b03169183019190915215610ed057805192505b876001600160a01b0316836001600160a01b03161415610f0c5786841415610efe57509350610c6592505050565b83610f0881613ce5565b9450505b5080610f1781613ce5565b915050610e7e565b5060405162461bcd60e51b8152600401610be1906139a5565b33610f41611b94565b6001600160a01b031614610f5457600080fd5b600b55565b33610f62611b94565b6001600160a01b031614610f7557600080fd5b60165447906001600160a01b03166108fc612710610f938482613c09565b610f9d9190613bf5565b6040518115909202916000818181858888f19350505050158015610fc5573d6000803e3d6000fd5b50610fce611b94565b6001600160a01b03166108fc612710610fe8846000613c09565b610ff29190613bf5565b6040518115909202916000818181858888f1935050505015801561101a573d6000803e3d6000fd5b5050565b33611027611b94565b6001600160a01b03161461103a57600080fd5b60118054911515620100000262ff000019909216919091179055565b600c5481565b601254611067610dd9565b11156110855760405162461bcd60e51b8152600401610be1906133b2565b3233146110a45760405162461bcd60e51b8152600401610be190613471565b6110ac611b94565b6001600160a01b0316336001600160a01b0316146110eb57601154610100900460ff166110eb5760405162461bcd60e51b8152600401610be190613244565b6110f3611b94565b6001600160a01b0316826001600160a01b03161461114057601454816111188461143a565b6111229190613bdd565b11156111405760405162461bcd60e51b8152600401610be190613338565b6012548161114c610dd9565b6111569190613bdd565b11156111745760405162461bcd60e51b8152600401610be190613748565b60125461117f610dd9565b111561119d5760405162461bcd60e51b8152600401610be190613941565b6013548111156111bf5760405162461bcd60e51b8152600401610be190613711565b7f0000000000000000000000000000000000000000000000000000000000000000816111ea33611f88565b6111f49190613bdd565b11156112125760405162461bcd60e51b8152600401610be1906138da565b6011546301000000900460ff161561123c5760405162461bcd60e51b8152600401610be19061330b565b80600a5461124a9190613c09565b3410156112695760405162461bcd60e51b8152600401610be19061396e565b61101a82826124b0565b610dd483838360405180602001604052806000815250611e71565b601154640100000000900460ff1681565b606060006112ac8361143a565b90506000816001600160401b038111156112d657634e487b7160e01b600052604160045260246000fd5b6040519080825280602002602001820160405280156112ff578160200160208202803683370190505b50905060005b82811015611354576113178582610e43565b82828151811061133757634e487b7160e01b600052603260045260246000fd5b60209081029190910101528061134c81613ce5565b915050611305565b509392505050565b6000611366611b94565b905090565b60125481565b3361137a611b94565b6001600160a01b03161461138d57600080fd5b601355565b600061139c610dd9565b82106113ba5760405162461bcd60e51b8152600401610be19061336f565b5090565b336113c7611b94565b6001600160a01b0316146113da57600080fd5b805161101a906010906020840190612bdf565b336113f6611b94565b6001600160a01b03161461140957600080fd5b600f55565b601154610100900460ff1681565b60095490565b600061142d826124ca565b5192915050565b600a5481565b60006001600160a01b0382166114625760405162461bcd60e51b8152600401610be190613505565b506001600160a01b03166000908152600460205260409020546001600160801b031690565b61148f61213e565b6001600160a01b03166114a0611b94565b6001600160a01b0316146114c65760405162461bcd60e51b8152600401610be1906135cd565b6114d060006125dc565b565b336114db611b94565b6001600160a01b0316146114ee57600080fd5b600f54600e5411156115125760405162461bcd60e51b8152600401610be1906131d6565b600061151c610dd9565b905060005b600d5481101561101a577f55f284809f4c5b7377fbe62f2feeb9686e3834dcae5f3ca955140fe6547cd3556115568284613bdd565b33604051611565929190613b74565b60405180910390a16115803361157b8385613bdd565b6124b0565b600e805490600061159083613ce5565b919050555080806115a090613ce5565b915050611521565b336115b1611b94565b6001600160a01b0316146115c457600080fd5b60005b81811015610dd45760008383838181106115f157634e487b7160e01b600052603260045260246000fd5b90506020020160208101906116069190612d09565b6001600160a01b0316141561162d5760405162461bcd60e51b8152600401610be190613596565b60016017600085858581811061165357634e487b7160e01b600052603260045260246000fd5b90506020020160208101906116689190612d09565b6001600160a01b0316815260208101919091526040016000908120805460ff1916921515929092179091556018818585858181106116b657634e487b7160e01b600052603260045260246000fd5b90506020020160208101906116cb9190612d09565b6001600160a01b03166001600160a01b0316815260200190815260200160002054116116f8576000611753565b6018600084848481811061171c57634e487b7160e01b600052603260045260246000fd5b90506020020160208101906117319190612d09565b6001600160a01b03166001600160a01b03168152602001908152602001600020545b508061175e81613ce5565b9150506115c7565b3361176f611b94565b6001600160a01b03161461178257600080fd5b601255565b33611790611b94565b6001600160a01b0316146117a357600080fd5b600f54600e5411156117c75760405162461bcd60e51b8152600401610be1906131d6565b60006117d1610dd9565b905060005b8281101561183e577f55f284809f4c5b7377fbe62f2feeb9686e3834dcae5f3ca955140fe6547cd3556118098284613bdd565b85604051611818929190613b74565b60405180910390a161182c8461157b610dd9565b8061183681613ce5565b9150506117d6565b50505050565b60125461184f610dd9565b111561186d5760405162461bcd60e51b8152600401610be1906133b2565b60115462010000900460ff166118955760405162461bcd60e51b8152600401610be19061390a565b3360009081526017602052604090205460ff166118c45760405162461bcd60e51b8152600401610be19061320d565b6012546118cf610dd9565b106118ec5760405162461bcd60e51b8152600401610be190613a79565b60155481111561190e5760405162461bcd60e51b8152600401610be190613b3f565b6015543360009081526018602052604090205461192c908390613bdd565b111561194a5760405162461bcd60e51b8152600401610be1906139f3565b80600b546119589190613c09565b3410156119775760405162461bcd60e51b8152600401610be19061396e565b6011546301000000900460ff16156119a15760405162461bcd60e51b8152600401610be19061330b565b6119ab33826124b0565b50565b6012546119b9610dd9565b11156119d75760405162461bcd60e51b8152600401610be1906133b2565b6000336040516020016119ea9190613055565b60408051601f19818403018152919052805160209091012060115490915060ff16611a275760405162461bcd60e51b8152600401610be1906137ba565b600954611a369083908361262e565b611a525760405162461bcd60e51b8152600401610be190613872565b601254611a5d610dd9565b10611a7a5760405162461bcd60e51b8152600401610be190613a79565b601554831115611a9c5760405162461bcd60e51b8152600401610be190613b3f565b60155433600090815260186020526040902054611aba908590613bdd565b1115611ad85760405162461bcd60e51b8152600401610be1906139f3565b82600c54611ae69190613c09565b341015611b055760405162461bcd60e51b8152600401610be19061396e565b6011546301000000900460ff1615611b2f5760405162461bcd60e51b8152600401610be19061330b565b610dd433846124b0565b33611b42611b94565b6001600160a01b031614611b5557600080fd5b601555565b6011546301000000900460ff1681565b60155481565b7f000000000000000000000000000000000000000000000000000000000000000081565b6008546001600160a01b031690565b33611bac611b94565b6001600160a01b031614611bbf57600080fd5b6011805463ff00000019166301000000179055565b606060028054610c7a90613caa565b33611bec611b94565b6001600160a01b031614611bff57600080fd5b601180549115156401000000000264ff0000000019909216919091179055565b60135481565b60115462010000900460ff1681565b611c3c61213e565b6001600160a01b0316826001600160a01b03161415611c6d5760405162461bcd60e51b8152600401610be190613688565b611c75611b94565b6001600160a01b0316336001600160a01b031614611cb757601154640100000000900460ff16611cb75760405162461bcd60e51b8152600401610be19061319f565b8060066000611cc461213e565b6001600160a01b03908116825260208083019390935260409182016000908120918716808252919093529120805460ff191692151592909217909155611d0861213e565b6001600160a01b03167f17307eab39ab6107e8899845ad3d59bd9653f200f220920489ca2b5937696c3183604051611d409190613136565b60405180910390a35050565b33611d55611b94565b6001600160a01b031614611d6857600080fd5b60005b81811015610dd4576000838383818110611d9557634e487b7160e01b600052603260045260246000fd5b9050602002016020810190611daa9190612d09565b6001600160a01b03161415611dd15760405162461bcd60e51b8152600401610be190613596565b600060176000858585818110611df757634e487b7160e01b600052603260045260246000fd5b9050602002016020810190611e0c9190612d09565b6001600160a01b031681526020810191909152604001600020805460ff191691151591909117905580611e3e81613ce5565b915050611d6b565b600a5490565b600033611e57611b94565b6001600160a01b031614611e6a57600080fd5b5060135490565b611e7c84848461219e565b611e8884848484612644565b61183e5760405162461bcd60e51b8152600401610be1906137e8565b60115460ff1681565b33611eb6611b94565b6001600160a01b031614611ec957600080fd5b600c55565b6000611366610dd9565b6060611ee382612137565b611eff5760405162461bcd60e51b8152600401610be190613639565b6000611f09612760565b90506000815111611f295760405180602001604052806000815250611f54565b80611f338461276f565b604051602001611f44929190613072565b6040516020818303038152906040525b9392505050565b60145481565b60075481565b33611f70611b94565b6001600160a01b031614611f8357600080fd5b600955565b6000610c6582612889565b600d5490565b6001600160a01b03918216600090815260066020908152604080832093909416825291909152205460ff1690565b33611fd0611b94565b6001600160a01b031614611fe357600080fd5b601455565b60095481565b600b5481565b33611ffd611b94565b6001600160a01b03161461201057600080fd5b6011805461ff001916610100831515021790556040517f58655b75d3df612fe99ead00dbf0812d415d35078fe06217a94c0818bb13967f90612053908390613136565b60405180910390a150565b6011546301000000900460ff1690565b61207661213e565b6001600160a01b0316612087611b94565b6001600160a01b0316146120ad5760405162461bcd60e51b8152600401610be1906135cd565b6001600160a01b0381166120d35760405162461bcd60e51b8152600401610be19061327b565b6119ab816125dc565b336120e5611b94565b6001600160a01b0316146120f857600080fd5b600a55565b33612106611b94565b6001600160a01b03161461211957600080fd5b600d55565b6001600160e01b031981166301ffc9a760e01b14919050565b6000541190565b3390565b60008281526005602052604080822080546001600160a01b0319166001600160a01b0387811691821790925591518593918516917f8c5be1e5ebec7d5bd14f71427d1e84f3dd0314c0f7b2291e5b200ac8c7c3b92591a4505050565b60006121a9826124ca565b9050600081600001516001600160a01b03166121c361213e565b6001600160a01b031614806121f857506121db61213e565b6001600160a01b03166121ed84610cfd565b6001600160a01b0316145b8061220c5750815161220c90610ad561213e565b90508061222b5760405162461bcd60e51b8152600401610be1906136bf565b846001600160a01b031682600001516001600160a01b0316146122605760405162461bcd60e51b8152600401610be190613550565b6001600160a01b0384166122865760405162461bcd60e51b8152600401610be1906133db565b612293858585600161183e565b6122a36000848460000151612142565b6001600160a01b03851660009081526004602052604081208054600192906122d59084906001600160801b0316613c28565b82546101009290920a6001600160801b038181021990931691831602179091556001600160a01b0386166000908152600460205260408120805460019450909261232191859116613bbb565b82546001600160801b039182166101009390930a9283029190920219909116179055506040805180820182526001600160a01b0380871682526001600160401b03428116602080850191825260008981526003909152948520935184549151909216600160a01b0267ffffffffffffffff60a01b19929093166001600160a01b031990911617161790556123b6846001613bdd565b6000818152600360205260409020549091506001600160a01b031661245a576123de81612137565b1561245a5760408051808201825284516001600160a01b0390811682526020808701516001600160401b0390811682850190815260008781526003909352949091209251835494516001600160a01b031990951692169190911767ffffffffffffffff60a01b1916600160a01b93909116929092029190911790555b83856001600160a01b0316876001600160a01b03167fddf252ad1be2c89b69c2b068fc378daa952ba7f163c4a11628f55a4df523b3ef60405160405180910390a46124a8868686600161183e565b505050505050565b61101a8282604051806020016040528060008152506128dd565b6124d2612c5f565b6124db82612137565b6124f75760405162461bcd60e51b8152600401610be1906132c1565b60007f000000000000000000000000000000000000000000000000000000000000000083106125585761254a7f000000000000000000000000000000000000000000000000000000000000000084613c50565b612555906001613bdd565b90505b825b8181106125c3576000818152600360209081526040918290208251808401909352546001600160a01b038116808452600160a01b9091046001600160401b031691830191909152156125b0579250610c05915050565b50806125bb81613c93565b91505061255a565b5060405162461bcd60e51b8152600401610be190613a2a565b600880546001600160a01b038381166001600160a01b0319831681179093556040519116919082907f8be0079c531659141344cd1fd0a4f28419497f9722a3daafe3b4186f6b6457e090600090a35050565b60008261263b8584612b4f565b14949350505050565b6000612658846001600160a01b0316612bc1565b1561275457836001600160a01b031663150b7a0261267461213e565b8786866040518563ffffffff1660e01b815260040161269694939291906130b5565b602060405180830381600087803b1580156126b057600080fd5b505af19250505080156126e0575060408051601f3d908101601f191682019092526126dd91810190612f16565b60015b61273a573d80801561270e576040519150601f19603f3d011682016040523d82523d6000602084013e612713565b606091505b5080516127325760405162461bcd60e51b8152600401610be1906137e8565b805181602001fd5b6001600160e01b031916630a85bd0160e11b149050612758565b5060015b949350505050565b606060108054610c7a90613caa565b60608161279457506040805180820190915260018152600360fc1b6020820152610c05565b8160005b81156127be57806127a881613ce5565b91506127b79050600a83613bf5565b9150612798565b6000816001600160401b038111156127e657634e487b7160e01b600052604160045260246000fd5b6040519080825280601f01601f191660200182016040528015612810576020820181803683370190505b5090505b841561275857612825600183613c50565b9150612832600a86613d00565b61283d906030613bdd565b60f81b81838151811061286057634e487b7160e01b600052603260045260246000fd5b60200101906001600160f81b031916908160001a905350612882600a86613bf5565b9450612814565b60006001600160a01b0382166128b15760405162461bcd60e51b8152600401610be190613420565b506001600160a01b0316600090815260046020526040902054600160801b90046001600160801b031690565b6000546001600160a01b0384166129065760405162461bcd60e51b8152600401610be190613899565b61290f81612137565b1561292c5760405162461bcd60e51b8152600401610be19061383b565b7f000000000000000000000000000000000000000000000000000000000000000083111561296c5760405162461bcd60e51b8152600401610be190613afd565b612979600085838661183e565b6001600160a01b0384166000908152600460209081526040918290208251808401845290546001600160801b038082168352600160801b90910416918101919091528151808301909252805190919081906129d5908790613bbb565b6001600160801b031681526020018583602001516129f39190613bbb565b6001600160801b039081169091526001600160a01b03808816600081815260046020908152604080832087518154988401518816600160801b029088166fffffffffffffffffffffffffffffffff199099169890981790961696909617909455845180860186529182526001600160401b034281168386019081528883526003909552948120915182549451909516600160a01b0267ffffffffffffffff60a01b19959093166001600160a01b031990941693909317939093161790915582905b85811015612b3d5760405182906001600160a01b038916906000907fddf252ad1be2c89b69c2b068fc378daa952ba7f163c4a11628f55a4df523b3ef908290a4612b016000888488612644565b612b1d5760405162461bcd60e51b8152600401610be1906137e8565b81612b2781613ce5565b9250508080612b3590613ce5565b915050612ab4565b5060008181556124a89087858861183e565b600081815b8451811015611354576000858281518110612b7f57634e487b7160e01b600052603260045260246000fd5b60200260200101519050808311612ba157612b9a8382612bd0565b9250612bae565b612bab8184612bd0565b92505b5080612bb981613ce5565b915050612b54565b6001600160a01b03163b151590565b60009182526020526040902090565b828054612beb90613caa565b90600052602060002090601f016020900481019282612c0d5760008555612c53565b82601f10612c2657805160ff1916838001178555612c53565b82800160010185558215612c53579182015b82811115612c53578251825591602001919060010190612c38565b506113ba929150612c76565b604080518082019091526000808252602082015290565b5b808211156113ba5760008155600101612c77565b60006001600160401b03831115612ca457612ca4613d40565b612cb7601f8401601f1916602001613b8b565b9050828152838383011115612ccb57600080fd5b828260208301376000602084830101529392505050565b80356001600160a01b0381168114610c0557600080fd5b80358015158114610c0557600080fd5b600060208284031215612d1a578081fd5b611f5482612ce2565b60008060408385031215612d35578081fd5b612d3e83612ce2565b9150612d4c60208401612ce2565b90509250929050565b600080600060608486031215612d69578081fd5b612d7284612ce2565b9250612d8060208501612ce2565b9150604084013590509250925092565b60008060008060808587031215612da5578081fd5b612dae85612ce2565b9350612dbc60208601612ce2565b92506040850135915060608501356001600160401b03811115612ddd578182fd5b8501601f81018713612ded578182fd5b612dfc87823560208401612c8b565b91505092959194509250565b60008060408385031215612e1a578182fd5b612e2383612ce2565b9150612d4c60208401612cf9565b60008060408385031215612e43578182fd5b612e4c83612ce2565b946020939093013593505050565b60008060208385031215612e6c578182fd5b82356001600160401b0380821115612e82578384fd5b818501915085601f830112612e95578384fd5b813581811115612ea3578485fd5b8660208083028501011115612eb6578485fd5b60209290920196919550909350505050565b600060208284031215612ed9578081fd5b611f5482612cf9565b600060208284031215612ef3578081fd5b5035919050565b600060208284031215612f0b578081fd5b8135611f5481613d56565b600060208284031215612f27578081fd5b8151611f5481613d56565b600060208284031215612f43578081fd5b81356001600160401b03811115612f58578182fd5b8201601f81018413612f68578182fd5b61275884823560208401612c8b565b60008060408385031215612f89578182fd5b823591506020808401356001600160401b0380821115612fa7578384fd5b818601915086601f830112612fba578384fd5b813581811115612fcc57612fcc613d40565b8381029150612fdc848301613b8b565b8181528481019084860184860187018b1015612ff6578788fd5b8795505b83861015613018578035835260019590950194918601918601612ffa565b508096505050505050509250929050565b60008151808452613041816020860160208601613c67565b601f01601f19169290920160200192915050565b60609190911b6bffffffffffffffffffffffff1916815260140190565b60008351613084818460208801613c67565b835190830190613098818360208801613c67565b01949350505050565b6001600160a01b0391909116815260200190565b6001600160a01b03858116825284166020820152604081018390526080606082018190526000906130e890830184613029565b9695505050505050565b6020808252825182820181905260009190848201906040850190845b8181101561312a5783518352928401929184019160010161310e565b50909695505050505050565b901515815260200190565b90815260200190565b600060208252611f546020830184613029565b60208082526022908201527f455243373231413a206f776e657220696e646578206f7574206f6620626f756e604082015261647360f01b606082015260800190565b6020808252601d908201527f53656c6c206973206e6f74206163746976652063757272656e746c792e000000604082015260600190565b6020808252601b908201527f4d61782052657365727665732074616b656e20616c7265616479210000000000604082015260600190565b6020808252601d908201527f596f7520617265206e6f74206f6e2074686520416c6c6f77204c697374000000604082015260600190565b6020808252601d908201527f53616c65206973206e6f74206163746976652063757272656e746c792e000000604082015260600190565b60208082526026908201527f4f776e61626c653a206e6577206f776e657220697320746865207a65726f206160408201526564647265737360d01b606082015260800190565b6020808252602a908201527f455243373231413a206f776e657220717565727920666f72206e6f6e657869736040820152693a32b73a103a37b5b2b760b11b606082015260800190565b60208082526013908201527226b4b73a1021b637b9b2b2102337b932bb32b960691b604082015260600190565b60208082526018908201527f4d617820686f6c64696e672063617020726561636865642e0000000000000000604082015260600190565b60208082526023908201527f455243373231413a20676c6f62616c20696e646578206f7574206f6620626f756040820152626e647360e81b606082015260800190565b6020808252600f908201526e29b0b632903430b99032b73232b21760891b604082015260600190565b60208082526025908201527f455243373231413a207472616e7366657220746f20746865207a65726f206164604082015264647265737360d81b606082015260800190565b60208082526031908201527f455243373231413a206e756d626572206d696e74656420717565727920666f7260408201527020746865207a65726f206164647265737360781b606082015260800190565b6020808252601e908201527f5468652063616c6c657220697320616e6f7468657220636f6e74726163740000604082015260600190565b60208082526039908201527f455243373231413a20617070726f76652063616c6c6572206973206e6f74206f60408201527f776e6572206e6f7220617070726f76656420666f7220616c6c00000000000000606082015260800190565b6020808252602b908201527f455243373231413a2062616c616e636520717565727920666f7220746865207a60408201526a65726f206164647265737360a81b606082015260800190565b60208082526026908201527f455243373231413a207472616e736665722066726f6d20696e636f72726563746040820152651037bbb732b960d11b606082015260800190565b60208082526018908201527f43616e2774206164642061206e756c6c20616464726573730000000000000000604082015260600190565b6020808252818101527f4f776e61626c653a2063616c6c6572206973206e6f7420746865206f776e6572604082015260600190565b6020808252601e908201527f5a65726f2061646472657373206e6f74206f6e20416c6c6f77204c6973740000604082015260600190565b6020808252602f908201527f4552433732314d657461646174613a2055524920717565727920666f72206e6f60408201526e3732bc34b9ba32b73a103a37b5b2b760891b606082015260800190565b6020808252601a908201527f455243373231413a20617070726f766520746f2063616c6c6572000000000000604082015260600190565b60208082526032908201527f455243373231413a207472616e736665722063616c6c6572206973206e6f74206040820152711bdddb995c881b9bdc88185c1c1c9bdd995960721b606082015260800190565b6020808252601e908201527f45786365656473206d6178696d756d20616c6c6f77656420746f6b656e730000604082015260600190565b6020808252601690820152752a37ba30b61039bab838363c9032bc31b2b2b232b21760511b604082015260600190565b60208082526022908201527f455243373231413a20617070726f76616c20746f2063757272656e74206f776e60408201526132b960f11b606082015260800190565b602080825260149082015273526166666c65206973206e6f742061637469766560601b604082015260600190565b60208082526033908201527f455243373231413a207472616e7366657220746f206e6f6e204552433732315260408201527232b1b2b4bb32b91034b6b83632b6b2b73a32b960691b606082015260800190565b6020808252601d908201527f455243373231413a20746f6b656e20616c7265616479206d696e746564000000604082015260600190565b6020808252600d908201526c34b73b30b634b210383937b7b360991b604082015260600190565b60208082526021908201527f455243373231413a206d696e7420746f20746865207a65726f206164647265736040820152607360f81b606082015260800190565b60208082526016908201527563616e206e6f74206d696e742074686973206d616e7960501b604082015260600190565b6020808252601b908201527f5072652053616c65204d696e74206973206e6f74206163746976650000000000604082015260600190565b6020808252601390820152722a37ba30b61039bab838363c9039b832b73a1760691b604082015260600190565b6020808252601b908201527f496e7375666669656e742045544820616d6f756e742073656e742e0000000000604082015260600190565b6020808252602e908201527f455243373231413a20756e61626c6520746f2067657420746f6b656e206f662060408201526d0deeedccae440c4f240d2dcc8caf60931b606082015260800190565b6020808252601c908201527f50757263686173652065786365656473206d617820616c6c6f77656400000000604082015260600190565b6020808252602f908201527f455243373231413a20756e61626c6520746f2064657465726d696e652074686560408201526e1037bbb732b91037b3103a37b5b2b760891b606082015260800190565b6020808252601b908201527f416c6c20746f6b656e732068617665206265656e206d696e7465640000000000604082015260600190565b6020808252602d908201527f455243373231413a20617070726f76656420717565727920666f72206e6f6e6560408201526c3c34b9ba32b73a103a37b5b2b760991b606082015260800190565b60208082526022908201527f455243373231413a207175616e7469747920746f206d696e7420746f6f2068696040820152610ced60f31b606082015260800190565b6020808252818101527f43616e6e6f742070757263686173652074686973206d616e7920746f6b656e73604082015260600190565b9182526001600160a01b0316602082015260400190565b604051601f8201601f191681016001600160401b0381118282101715613bb357613bb3613d40565b604052919050565b60006001600160801b0380831681851680830382111561309857613098613d14565b60008219821115613bf057613bf0613d14565b500190565b600082613c0457613c04613d2a565b500490565b6000816000190483118215151615613c2357613c23613d14565b500290565b60006001600160801b0383811690831681811015613c4857613c48613d14565b039392505050565b600082821015613c6257613c62613d14565b500390565b60005b83811015613c82578181015183820152602001613c6a565b8381111561183e5750506000910152565b600081613ca257613ca2613d14565b506000190190565b600281046001821680613cbe57607f821691505b60208210811415613cdf57634e487b7160e01b600052602260045260246000fd5b50919050565b6000600019821415613cf957613cf9613d14565b5060010190565b600082613d0f57613d0f613d2a565b500690565b634e487b7160e01b600052601160045260246000fd5b634e487b7160e01b600052601260045260246000fd5b634e487b7160e01b600052604160045260246000fd5b6001600160e01b0319811681146119ab57600080fdfea2646970667358221220af247def4f2d97d1789100f1de0fbccf2ef07b7208889c1e3f290aaaa6acc96d64736f6c63430008010033",
  "immutableReferences": {
    "989": [
      {
        "length": 32,
        "start": 9467
      },
      {
        "length": 32,
        "start": 9509
      },
      {
        "length": 32,
        "start": 10542
      }
    ],
    "2237": [
      {
        "length": 32,
        "start": 4545
      },
      {
        "length": 32,
        "start": 7026
      }
    ]
  },
  "source": "// SPDX-License-Identifier: MIT\r\n// Made by: NFT Stack\r\n//          https://nftstack.info\r\n\r\npragma solidity ^0.8.1;\r\n\r\nimport \"@openzeppelin/contracts/access/Ownable.sol\";\r\nimport \"@openzeppelin/contracts/utils/cryptography/MerkleProof.sol\";\r\nimport \"./ERC721A.sol\";\r\n\r\ncontract NFTStack721ARaffle is ERC721A, Ownable {\r\n  using MerkleProof for bytes32[];\r\n\r\n  bytes32 public root;\r\n\r\n  uint256 public mintPrice = 0.2 ether;\r\n  uint256 public preSaleMintPrice = 0.2 ether;\r\n  uint256 public raffleMintPrice = 0.2 ether;\r\n  uint256 private reserveAtATime = 50;\r\n  uint256 private reservedCount = 0;\r\n  uint256 private maxReserveCount = 200;\r\n\r\n  string _baseTokenURI;\r\n\r\n  bool public isRaffleActive = false;\r\n  bool public isMintActive = false;\r\n  bool public isPreSaleMintActive = false;\r\n  bool public isClosedMintForever = false;\r\n  bool public isSellOpen = false;\r\n\r\n  uint256 public maximumMintSupply = 10000;\r\n  uint256 public maximumAllowedTokensPerPurchase = 10;\r\n  uint256 public maximumAllowedTokensPerWallet = 10;\r\n  uint256 public allowListMaxMint = 10;\r\n  uint256 public immutable maxPerAddressDuringMint;\r\n\r\n  address private OtherAddress = 0x9DbF14C79847D1566419dCddd5ad35DAf0382E05;\r\n\r\n  mapping(address => bool) private _allowList;\r\n  mapping(address => uint256) private _allowListClaimed;\r\n\r\n  event AssetMinted(uint256 tokenId, address sender);\r\n  event SaleActivation(bool isMintActive);\r\n\r\n  constructor(\r\n    string memory baseURI,\r\n    uint256 maxBatchSize_,\r\n    uint256 collectionSize_\r\n  ) ERC721A(\"NFT Stack Test\", \"NFTS\", maxBatchSize_, collectionSize_) {\r\n    setBaseURI(baseURI);\r\n    maxPerAddressDuringMint = maxBatchSize_;\r\n  }\r\n\r\n  modifier saleIsOpen {\r\n    require(totalSupply() <= maximumMintSupply, \"Sale has ended.\");\r\n    _;\r\n  }\r\n\r\n  modifier onlyAuthorized() {\r\n    require(owner() == msg.sender);\r\n    _;\r\n  }\r\n\r\n  modifier callerIsUser() {\r\n    require(tx.origin == msg.sender, \"The caller is another contract\");\r\n    _;\r\n  }\r\n\r\n  function setMaximumAllowedTokens(uint256 _count) public onlyAuthorized {\r\n    maximumAllowedTokensPerPurchase = _count;\r\n  }\r\n\r\n  function setMaximumAllowedTokensPerWallet(uint256 _count) public onlyAuthorized {\r\n    maximumAllowedTokensPerWallet = _count;\r\n  }\r\n\r\n  function setMintActive(bool val) public onlyAuthorized {\r\n    isMintActive = val;\r\n    emit SaleActivation(val);\r\n  }\r\n\r\n  function setMaxMintSupply(uint256 maxMintSupply) external  onlyAuthorized {\r\n    maximumMintSupply = maxMintSupply;\r\n  }\r\n\r\n  function setRaffleActive(bool _isRaffleActive) public onlyAuthorized {\r\n    isRaffleActive = _isRaffleActive;\r\n  }\r\n\r\n  function setIsPreSaleMintActive(bool _isPreSaleMintActive) external onlyAuthorized {\r\n    isPreSaleMintActive = _isPreSaleMintActive;\r\n  }\r\n\r\n  function setIsSellOpen(bool _isSellOpen) external onlyAuthorized {\r\n    isSellOpen = _isSellOpen;\r\n  }\r\n\r\n  function setAllowListMaxMint(uint256 maxMint) external  onlyAuthorized {\r\n    allowListMaxMint = maxMint;\r\n  }\r\n\r\n  function addToAllowList(address[] calldata addresses) external onlyAuthorized {\r\n    for (uint256 i = 0; i < addresses.length; i++) {\r\n      require(addresses[i] != address(0), \"Can't add a null address\");\r\n      _allowList[addresses[i]] = true;\r\n      _allowListClaimed[addresses[i]] > 0 ? _allowListClaimed[addresses[i]] : 0;\r\n    }\r\n  }\r\n\r\n  function checkIfOnAllowList(address addr) external view returns (bool) {\r\n    return _allowList[addr];\r\n  }\r\n\r\n  function removeFromAllowList(address[] calldata addresses) external onlyAuthorized {\r\n    for (uint256 i = 0; i < addresses.length; i++) {\r\n      require(addresses[i] != address(0), \"Can't add a null address\");\r\n      _allowList[addresses[i]] = false;\r\n    }\r\n  }\r\n\r\n  function allowListClaimedBy(address owner) external view returns (uint256){\r\n    require(owner != address(0), 'Zero address not on Allow List');\r\n    return _allowListClaimed[owner];\r\n  }\r\n\r\n  function setReserveAtATime(uint256 val) public onlyAuthorized {\r\n    reserveAtATime = val;\r\n  }\r\n\r\n  function setMaxReserve(uint256 val) public onlyAuthorized {\r\n    maxReserveCount = val;\r\n  }\r\n\r\n  function setMintPrice(uint256 _price) public onlyAuthorized {\r\n    mintPrice = _price;\r\n  }\r\n\r\n  function setPreSaleMintPrice(uint256 _price) public onlyAuthorized {\r\n    preSaleMintPrice = _price;\r\n  }\r\n\r\n  function setRaffleMintPrice(uint256 _price) public onlyAuthorized {\r\n    raffleMintPrice = _price;\r\n  }\r\n\r\n  function setBaseURI(string memory baseURI) public onlyAuthorized {\r\n    _baseTokenURI = baseURI;\r\n  }\r\n\r\n  function getMaximumAllowedTokens() public view onlyAuthorized returns (uint256) {\r\n    return maximumAllowedTokensPerPurchase;\r\n  }\r\n\r\n  function getMintPrice() external view returns (uint256) {\r\n    return mintPrice;\r\n  }\r\n\r\n  function getPreSaleMintPrice() external view returns (uint256) {\r\n    return preSaleMintPrice;\r\n  }\r\n\r\n  function getRaffleMintPrice() external view returns (uint256) {\r\n    return raffleMintPrice;\r\n  }\r\n\r\n  function getIsClosedMintForever() external view returns (bool) {\r\n    return isClosedMintForever;\r\n  }\r\n\r\n  function setIsClosedMintForever() external onlyAuthorized {\r\n    isClosedMintForever = true;\r\n  }\r\n\r\n  function setRoot(bytes32 _root) public onlyAuthorized {\r\n    root = _root;\r\n  }\r\n\r\n  function setApprovalForAll(address operator, bool approved) public virtual override {\r\n    require(operator != _msgSender(), \"ERC721A: approve to caller\");\r\n    if (msg.sender != owner()) {\r\n      require(isSellOpen, \"Sell is not active currently.\");\r\n    }\r\n\r\n    _operatorApprovals[_msgSender()][operator] = approved;\r\n    emit ApprovalForAll(_msgSender(), operator, approved);\r\n  }\r\n\r\n  function getReserveAtATime() external view returns (uint256) {\r\n    return reserveAtATime;\r\n  }\r\n\r\n  function getTotalSupply() external view returns (uint256) {\r\n    return totalSupply();\r\n  }\r\n\r\n  function getRoot() external view returns (bytes32) {\r\n    return root;\r\n  }\r\n\r\n  function getContractOwner() public view returns (address) {\r\n    return owner();\r\n  }\r\n\r\n  function _baseURI() internal view virtual override returns (string memory) {\r\n    return _baseTokenURI;\r\n  }\r\n\r\n  function reserveNft() public onlyAuthorized {\r\n    require(reservedCount <= maxReserveCount, \"Max Reserves taken already!\");\r\n    uint256 supply = totalSupply();\r\n    uint256 i;\r\n\r\n    for (i = 0; i < reserveAtATime; i++) {\r\n      emit AssetMinted(supply + i, msg.sender);\r\n      _safeMint(msg.sender, supply + i);\r\n      reservedCount++;\r\n    }\r\n  }\r\n\r\n  function reserveToCustomWallet(address _walletAddress, uint256 _count) public onlyAuthorized {\r\n    require(reservedCount <= maxReserveCount, \"Max Reserves taken already!\");\r\n\r\n    uint256 supply = totalSupply();\r\n    uint256 i;\r\n\r\n    for (i = 0; i < _count; i++) {\r\n      emit AssetMinted(supply + i, _walletAddress);\r\n      _safeMint(_walletAddress, totalSupply());\r\n    }\r\n  }\r\n\r\n  function mint(address _to, uint256 _count) public payable saleIsOpen callerIsUser {\r\n    if (msg.sender != owner()) {\r\n      require(isMintActive, \"Sale is not active currently.\");\r\n    }\r\n\r\n    if(_to != owner()) {\r\n      require(balanceOf(_to) + _count <= maximumAllowedTokensPerWallet, \"Max holding cap reached.\");\r\n    }\r\n\r\n    require(totalSupply() + _count <= maximumMintSupply, \"Total supply exceeded.\");\r\n    require(totalSupply() <= maximumMintSupply, \"Total supply spent.\");\r\n    require(\r\n      _count <= maximumAllowedTokensPerPurchase,\r\n      \"Exceeds maximum allowed tokens\"\r\n    );\r\n    require(\r\n      numberMinted(msg.sender) + _count <= maxPerAddressDuringMint,\r\n      \"can not mint this many\"\r\n    );\r\n    require(!isClosedMintForever, \"Mint Closed Forever\");\r\n\r\n    require(msg.value >= mintPrice * _count, \"Insuffient ETH amount sent.\");\r\n\r\n    _safeMint(_to, _count);\r\n  }\r\n\r\n  function raffleMint(uint256 _count, bytes32[] memory _proof) public payable saleIsOpen {\r\n    bytes32 leaf = keccak256(abi.encodePacked(msg.sender));\r\n\r\n    require(isRaffleActive, \"Raffle is not active\");\r\n    require(_proof.verify(root, leaf), \"invalid proof\");\r\n    require(totalSupply() < maximumMintSupply, \"All tokens have been minted\");\r\n    require(_count <= allowListMaxMint, \"Cannot purchase this many tokens\");\r\n    require(_allowListClaimed[msg.sender] + _count <= allowListMaxMint, \"Purchase exceeds max allowed\");\r\n    require(msg.value >= raffleMintPrice * _count, \"Insuffient ETH amount sent.\");\r\n    require(!isClosedMintForever, \"Mint Closed Forever\");\r\n\r\n    _safeMint(msg.sender, _count);\r\n  }\r\n\r\n  function preSaleMint(uint256 _count) public payable saleIsOpen {\r\n    require(isPreSaleMintActive, 'Pre Sale Mint is not active');\r\n    require(_allowList[msg.sender], 'You are not on the Allow List');\r\n    require(totalSupply() < maximumMintSupply, 'All tokens have been minted');\r\n    require(_count <= allowListMaxMint, 'Cannot purchase this many tokens');\r\n    require(_allowListClaimed[msg.sender] + _count <= allowListMaxMint, 'Purchase exceeds max allowed');\r\n    require(msg.value >= preSaleMintPrice * _count, 'Insuffient ETH amount sent.');\r\n    require(!isClosedMintForever, 'Mint Closed Forever');\r\n\r\n    _safeMint(msg.sender, _count);\r\n  }\r\n\r\n  function numberMinted(address owner) public view returns (uint256) {\r\n    return _numberMinted(owner);\r\n  }\r\n\r\n  function walletOfOwner(address _owner) external view returns(uint256[] memory) {\r\n    uint tokenCount = balanceOf(_owner);\r\n    uint256[] memory tokensId = new uint256[](tokenCount);\r\n\r\n    for(uint i = 0; i < tokenCount; i++){\r\n      tokensId[i] = tokenOfOwnerByIndex(_owner, i);\r\n    }\r\n    return tokensId;\r\n  }\r\n\r\n  function withdraw() external onlyAuthorized {\r\n    uint balance = address(this).balance;\r\n    payable(OtherAddress).transfer(balance * 10000 / 10000);\r\n    payable(owner()).transfer(balance * 0 / 10000);\r\n  }\r\n}",
  "sourcePath": "C:\\Users\\User\\Documents\\GitHub\\meta-moguls\\contracts\\NFTStack721ARaffle.sol",
  "compiler": {
    "name": "solc",
    "version": "0.8.1+commit.df193b15.Emscripten.clang"
  },
  "schemaVersion": "3.4.5",
  "updatedAt": "2022-05-30T16:34:52.858Z",
  "devdoc": {
    "kind": "dev",
    "methods": {
      "approve(address,uint256)": {
        "details": "See {IERC721-approve}."
      },
      "balanceOf(address)": {
        "details": "See {IERC721-balanceOf}."
      },
      "getApproved(uint256)": {
        "details": "See {IERC721-getApproved}."
      },
      "isApprovedForAll(address,address)": {
        "details": "See {IERC721-isApprovedForAll}."
      },
      "name()": {
        "details": "See {IERC721Metadata-name}."
      },
      "owner()": {
        "details": "Returns the address of the current owner."
      },
      "ownerOf(uint256)": {
        "details": "See {IERC721-ownerOf}."
      },
      "renounceOwnership()": {
        "details": "Leaves the contract without owner. It will not be possible to call `onlyOwner` functions anymore. Can only be called by the current owner. NOTE: Renouncing ownership will leave the contract without an owner, thereby removing any functionality that is only available to the owner."
      },
      "safeTransferFrom(address,address,uint256)": {
        "details": "See {IERC721-safeTransferFrom}."
      },
      "safeTransferFrom(address,address,uint256,bytes)": {
        "details": "See {IERC721-safeTransferFrom}."
      },
      "setApprovalForAll(address,bool)": {
        "details": "See {IERC721-setApprovalForAll}."
      },
      "supportsInterface(bytes4)": {
        "details": "See {IERC165-supportsInterface}."
      },
      "symbol()": {
        "details": "See {IERC721Metadata-symbol}."
      },
      "tokenByIndex(uint256)": {
        "details": "See {IERC721Enumerable-tokenByIndex}."
      },
      "tokenOfOwnerByIndex(address,uint256)": {
        "details": "See {IERC721Enumerable-tokenOfOwnerByIndex}. This read function is O(collectionSize). If calling from a separate contract, be sure to test gas first. It may also degrade with extremely large collection sizes (e.g >> 10000), test for your use case."
      },
      "tokenURI(uint256)": {
        "details": "See {IERC721Metadata-tokenURI}."
      },
      "totalSupply()": {
        "details": "See {IERC721Enumerable-totalSupply}."
      },
      "transferFrom(address,address,uint256)": {
        "details": "See {IERC721-transferFrom}."
      },
      "transferOwnership(address)": {
        "details": "Transfers ownership of the contract to a new account (`newOwner`). Can only be called by the current owner."
      }
    },
    "version": 1
  },
  "userdoc": {
    "kind": "user",
    "methods": {},
    "version": 1
  }
}